:020000040000FA
:060000000DEF4DF01200AF
:020006001200E6
:0600080079EF2DF012005B
:02000E000500EB
:10001000B39A0000FE0C000001000000179B0000D6
:10002000970E00000A000000159B0000FC0C000069
:1000300002000000E19A0000000E00003400000001
:0C004000D49A0000800E00000D000000AB
:04004C00D9CFE6FF23
:10005000DACFE6FFE1CFD9FFE2CFDAFFE652060EB4
:10006000C16E8A908B808A928A8A939A9392949294
:100070009490939094948B948B92320EE66EA3ECB2
:100080004CF0E552320EE66E41EC4AF0E552020EBB
:10009000E66E6DEC4CF0E552240EE66EFA0EE66E5E
:1000A00086EC4BF0E552E552240EE66EFA0EE66E53
:1000B00057EC4BF0E552E552928492860B0EE66EB9
:1000C000140EE66EEB0EE66EEDEC4AF0E552E552EC
:1000D000E55292809282928A9384750EE66ED9ECF4
:1000E0004BF0E552240EE66EFA0EE66E19EC4CF07B
:1000F000E552E5520D01030E386F020E396F010E05
:100100003A6FDF6ADFCF00F0040EE76E0018E8AE4A
:1001100002D0E73402D0E750005C01E37FD0DFCFAC
:10012000E9FFEA6AE9BEEA680D0EEA02F3CFEAFFE8
:10013000E902F3CFE9FFF450EA26040EE9260D0E9A
:10014000EA22EF6ADFCFE9FFEA6AE9BEEA680D0E4C
:10015000EA02F3CFEAFFE902F3CFE9FFF450EA261F
:10016000040EE9260D0EEA22EE52240EEE6EFA0E71
:10017000ED6EDFCFE9FFEA6AE9BEEA680D0EEA023A
:10018000F3CFEAFFE902F3CFE9FFF450EA26040EC9
:10019000E9260D0EEA22EE52020EE926000EEA22B0
:1001A000EE6AEE6AEE6AEE6ADFCFE9FFEA6AE9BE5E
:1001B000EA680D0EEA02F3CFEAFFE902F3CFE9FFA6
:1001C000F450EA26040EE9260D0EEA22070EE9266F
:1001D000000EEA22240EEE6EFA0EED6EDFCFE9FF7E
:1001E000EA6AE9BEEA680D0EEA02F3CFEAFFE90225
:1001F000F3CFE9FFF450EA26040EE9260D0EEA22B9
:10020000070EE926000EEA22020EE926000EEA2277
:10021000EE6AEE6AEE6AEE6ADF2A74D7210EE66EA7
:10022000E66A1CEC48F0E552E552F3CF3CFDF4CF12
:100230003DFD0D013C513D1101E18FD03CCDE9FF69
:100240003DCDEAFFEF6A3CCDE9FF3DCDEAFFEE523E
:10025000EF6A3CCDE9FF3DCDEAFF020EEB6A030EEB
:10026000EB6A3CCDE9FF3DCDEAFF1A0EEB6A1B0EAF
:10027000EB6A3CCDE9FF3DCDEAFF040EE926000E16
:10028000EA229F0EEF6E3CCDE9FF3DCDEAFF070E5F
:10029000EB6A080EEB6A3CCDE9FF3DCDEAFF110E9B
:1002A000EB6A120EEB6A3CCDE9FF3DCDEAFF130E7F
:1002B000EB6A140EEB6A3CCDE9FF3DCDEAFF0B0E75
:1002C000EB6A0C0EEB6A3CCDE9FF3DCDEAFF090E6F
:1002D000EB6A0A0EEB6A3CCDE9FF3DCDEAFF050E65
:1002E000E926000EEA22A70EEF6E3CCDE9FF3DCDD8
:1002F000EAFF060EE926000EEA22C70EEF6E3CCD9D
:10030000E9FF3DCDEAFF0D0EEB6A0E0EEB6A3CCD28
:10031000E9FF3DCDEAFF0F0EEB6A100EEB6A3CCD14
:10032000E9FF3DCDEAFF150EE926000EEA22EF6A4D
:100330003CCDE9FF3DCDEAFF1C0EE926000EEA2286
:10034000EF6A3CCDE9FF3DCDEAFF160EE926000E2F
:10035000EA22EE6AEE6AEE6AEE6A210EE66EE66A5E
:100360001CEC48F0E552E552F3CF3EFDF4CF3FFDE3
:100370000D013E513F1101E190D03ECDE9FF3FCD4F
:10038000EAFF010EEF6E3ECDE9FF3FCDEAFFEE52F0
:10039000EF6A3ECDE9FF3FCDEAFF020EEB6A030EA6
:1003A000EB6A3ECDE9FF3FCDEAFF1A0EEB6A1B0E6A
:1003B000EB6A3ECDE9FF3FCDEAFF040EE926000ED1
:1003C000EA22970EEF6E3ECDE9FF3FCDEAFF070E22
:1003D000EB6A080EEB6A3ECDE9FF3FCDEAFF110E56
:1003E000EB6A120EEB6A3ECDE9FF3FCDEAFF130E3A
:1003F000EB6A140EEB6A3ECDE9FF3FCDEAFF0B0E30
:10040000EB6A0C0EEB6A3ECDE9FF3FCDEAFF090E29
:10041000EB6A0A0EEB6A3ECDE9FF3FCDEAFF050E1F
:10042000E926000EEA22870EEF6E3ECDE9FF3FCDB2
:10043000EAFF060EE926000EEA228F0EEF6E3ECD91
:10044000E9FF3FCDEAFF0D0EEB6A0E0EEB6A3ECDE3
:10045000E9FF3FCDEAFF0F0EEB6A100EEB6A3ECDCF
:10046000E9FF3FCDEAFF150EE926000EEA22EF6A0A
:100470003ECDE9FF3FCDEAFF1C0EE926000EEA2241
:10048000EF6A3ECDE9FF3FCDEAFF160EE926000EEA
:10049000EA22EE6AEE6AEE6AEE6AE552E552E5CFCE
:1004A000DAFFE7CFD9FF1200D9CFE6FFDACFE6FFB8
:1004B000E1CFD9FFE2CFDAFFE652E652010EDB6A66
:1004C000DF6ADFCF00F0040EE76E0018E8AE02D05E
:1004D000E73402D0E750005C58E2DFCFE9FFEA6A78
:1004E000E9BEEA68380EE9260D0EEA22EFCFE9FFF1
:1004F000EA6AE9BEEA680D0EEA02F3CFEAFFE90212
:10050000F3CFE9FFF450EA26040EE9260D0EEA22A5
:10051000EF5039E0DFCFE9FFEA6AE9BEEA68380E5A
:10052000E9260D0EEA22EFCFE9FFEA6AE9BEEA68A2
:100530000D0EEA02F3CFEAFFE902F3CFE9FFF45030
:10054000EA26040EE9260D0EEA22010EEFCFDBFFAC
:10055000DBCF00F0016A00BE01680D0E0102F3CF8F
:1005600001F00002F3CF00F0F4500126040E002643
:100570000D0E012200C0E6FF01C0E6FFB2EC09F05B
:10058000E552E55202D0DF2A9CD7E552E552E5520A
:10059000E5CFDAFFE7CFD9FF1200D8CFE4FFE0CFF5
:1005A000E4FFE46EE6529D909E90010E326E8A50FA
:1005B000010B325C01E18A90010E326E8A50020B0F
:1005C00001E0010E325C01E18A92E552E550E5CF8F
:1005D000E0FFE5CFD8FF1000D9CFE6FFDACFE6FF86
:1005E000E1CFD9FFE2CFDAFF9D909E90FC0EDBCFEA
:1005F000E6FFFD0EDBCFE6FF19EC4CF0E552E552CD
:100600009D808A80E552E5CFDAFFE7CFD9FF12005F
:10061000D9CFE6FFDACFE6FFE1CFD9FFE2CFDAFFAD
:100620009D909E90FC0EDBCFE6FFFD0EDBCFE6FF3C
:1006300019EC4CF0E552E5529D808A82E552E5CFF7
:10064000DAFFE7CFD9FF1200D9CFE6FFDACFE6FF16
:10065000E1CFD9FFE2CFDAFFD00EE66E070EE66EED
:1006600016EC1CF0E552E5523CCDE9FF3DCDEAFF2A
:10067000010EEB50000964E13ECDE9FF3FCDEAFFFA
:10068000010EEB5000095CE13CCDE9FF3DCDEAFFF6
:10069000020EE926000EEA22EE50ED100BE13ECDEF
:1006A000E9FF3FCDEAFF020EE926000EEA22EE50F6
:1006B000ED100EE03ECDE9FF3FCDEAFFEE52010E18
:1006C000EF6E3CCDE9FF3DCDEAFFEE52EF6E38D044
:1006D0003ECDE9FF3FCDEAFF1D0EE926000EEA22DE
:1006E000EE6AEE6AEE6AEE6A3CCDE9FF3DCDEAFFC6
:1006F0001D0EE926000EEA22EE6AEE6AEE6AEE6A46
:100700003CCDE9FF3DCDEAFF110EEB6A120EEB6A1C
:100710003CCDE9FF3DCDEAFF130EEB6A140EEB6A08
:100720003ECDE9FF3FCDEAFF130EEB6A140EEB6AF4
:100730003ECDE9FF3FCDEAFF110EEB6A120EEB6AE8
:100740003CCDE9FF3DCDEAFF130EE926000EEA227B
:10075000EECF00F0EFCF01F03CCDE9FF3DCDEAFF59
:10076000110E00C0EBFF120E01C0EBFF3ECDE9FF02
:100770003FCDEAFF130EE926000EEA22EECF00F08D
:10078000EFCF01F03ECDE9FF3FCDEAFF110E00C0F3
:10079000EBFF120E01C0EBFF240EE66EFA0EE66EC2
:1007A0001BDFE552E552050EE66EE66A16EC1CF01C
:1007B000E552E5523CCDE9FF3DCDEAFF050EEB5099
:1007C000E66EBBEC4CF0E55268EC4DF061EC4DF0A0
:1007D000000901E0FBD748EC4DF0F3CF00F0F4CF77
:1007E00001F03CCDE9FF3DCDEAFF0D0E00C0EBFF6F
:1007F0000E0E01C0EBFF3CCDE9FF3DCDEAFF060E3A
:10080000EB50E66EBBEC4CF0E55268EC4DF061EC61
:100810004DF0000901E0FBD748EC4DF0F3CF00F0BC
:10082000F4CF01F03CCDE9FF3DCDEAFF0F0E00C053
:10083000EBFF100E01C0EBFFE7EC1DF0F3CF00F073
:10084000F4CF01F03CCDE9FF3DCDEAFF130E00C02F
:10085000EBFF140E01C0EBFF240EE66EFA0EE66EFF
:10086000D7DEE552E552050EE66EE66A16EC1CF0A0
:10087000E552E5523ECDE9FF3FCDEAFF050EEB50D4
:10088000E66EBBEC4CF0E55268EC4DF061EC4DF0DF
:10089000000901E0FBD748EC4DF0F3CF00F0F4CFB6
:1008A00001F03ECDE9FF3FCDEAFF0D0E00C0EBFFAA
:1008B0000E0E01C0EBFF3ECDE9FF3FCDEAFF060E75
:1008C000EB50E66EBBEC4CF0E55268EC4DF061ECA1
:1008D0004DF0000901E0FBD748EC4DF0F3CF00F0FC
:1008E000F4CF01F03ECDE9FF3FCDEAFF0F0E00C08F
:1008F000EBFF100E01C0EBFFE7EC1DF0F3CF00F0B3
:10090000F4CF01F03ECDE9FF3FCDEAFF130E00C06A
:10091000EBFF140E01C0EBFFC7DDC80EE66EE66A02
:1009200016EC1CF0E552E5529FD6E552E5CFDAFF12
:10093000E7CFD9FF12003CCDE9FF3DCDEAFF070E1E
:10094000E926000EEA22EECF00F0EFCF01F000C062
:10095000F3FF01C0F4FF00D012003ECDE9FF3FCD10
:10096000EAFF070EE926000EEA22EECF00F0EFCFF5
:1009700001F000C0F3FF01C0F4FF00D012003CCD35
:10098000E9FF3DCDEAFF0B0EE926000EEA22EECF8D
:1009900000F0EFCF01F000C0F3FF01C0F4FF00D082
:1009A00012003ECDE9FF3FCDEAFF0B0EE926000E17
:1009B000EA22EECF00F0EFCF01F000C0F3FF01C05C
:1009C000F4FF00D012003CCDE9FF3DCDEAFF1A0E46
:1009D000E926000EEA22EECF00F0EFCF01F000C0D2
:1009E000F3FF01C0F4FF00D012003ECDE9FF3FCD80
:1009F000EAFF1A0EE926000EEA22EECF00F0EFCF52
:100A000001F000C0F3FF01C0F4FF00D01200D9CF05
:100A1000E6FFDACFE6FFE1CFD9FFE2CFDAFF3CCD48
:100A2000E9FF3DCDEAFF020EE926000EEA22FC0EA8
:100A3000DBCFEEFFFD0EDBCFEDFF3CCDE9FF3DCD83
:100A4000EAFF0B0EE926000EEA22EECF00F0EFCF10
:100A500001F03CCDE9FF3DCDEAFF090E00C0EBFF00
:100A60000A0E01C0EBFF3CCDE9FF3DCDEAFF0D0EC4
:100A7000E926000EEA22EECF00F0EFCF01F03CCDE8
:100A8000E9FF3DCDEAFF0F0EE926000EEA22EECF88
:100A900002F0EFCF03F00050025C0150035839E23E
:100AA0003CCDE9FF3DCDEAFF0D0EE926000EEA221E
:100AB000EECF02F0EFCF03F0020E0F0B05E0D8905F
:100AC00003320232E806FBE13CCDE9FF3DCDEAFF0F
:100AD0000F0EE926000EEA22EECF04F0EFCF05F06C
:100AE000020E0F0B05E0D89005320432E806FBE158
:100AF0000450025C006E05500358016E3CCDE9FFC6
:100B00003DCDEAFF0B0E00C0EBFF0C0E01C0EBFF6A
:100B100038D03CCDE9FF3DCDEAFF0F0EE926000EAF
:100B2000EA22EECF02F0EFCF03F0020E0F0B05E04A
:100B3000D89003320232E806FBE13CCDE9FF3DCD1F
:100B4000EAFF0D0EE926000EEA22EECF04F0EFCF09
:100B500005F0020E0F0B05E0D89005320432E806CE
:100B6000FBE10450025C006E05500358016E3CCD61
:100B7000E9FF3DCDEAFF0B0E00C0EBFF0C0E01C0FC
:100B8000EBFFFC0EDBCF00F0FD0EDBCF01F0000130
:100B9000800E01140CE0FC0EDBCF53FDFD0EDBCF0D
:100BA00054FD0D01536D541F000E542306D0FC0E4E
:100BB000DBCF53FDFD0EDBCF54FD3CCDE9FF3DCD3A
:100BC000EAFF0B0EE926000EEA22EE500D01535DFE
:100BD000516FEE505459526F3CCDE9FF3DCDEAFFC5
:100BE0001A0EE926000EEA225151EE265251ED224C
:100BF0003CCDE9FF3DCDEAFF110EE926000EEA22C9
:100C0000EE50ED1016E13CCDE9FF3DCDEAFF130EAD
:100C1000E926000EEA22EECF00F0EFCF01F03CCD46
:100C2000E9FF3DCDEAFF110E00C0EBFF120E01C03F
:100C3000EBFF3CCDE9FF3DCDEAFF090EE926000EB2
:100C4000EA22EECF00F0EFCF01F03CCDE9FF3DCD41
:100C5000EAFF0B0EE926000EEA220050EE24556F43
:100C60000150EE20566F020E296E2A6A55CD24F0EF
:100C700056CD25F00FEC39F024C055FD25C056FDAA
:100C80000D01576B586B56AF02D057695869800EEB
:100C9000581508E0000E556D561F5623571F572351
:100CA000581F5823D8905851000A08E60A0E555D7F
:100CB000000E5659000E5759000E585904E2556B54
:100CC000566B576B586B55CD5BFD56CD5CFD57CDC4
:100CD0005DFD58CD5EFD4B0E276E286A296A2A6A93
:100CE0005BCD22F05CCD23F05DCD24F05ECD25F010
:100CF000B5EC4AF01EC05BFD1FC05CFD20C05DFD71
:100D000021C05EFD0A0E276E286A296A2A6A5BCD19
:100D100022F05CCD23F05DCD24F05ECD25F035ECE6
:100D200039F022C05BFD23C05CFD24C05DFD25C001
:100D30005EFD3CCDE9FF3DCDEAFF130EE926000E36
:100D4000EA22EECF00F0EFCF01F03CCDE9FF3DCD40
:100D5000EAFF110EE926000EEA220D01EE50005CBA
:100D6000596FEE5001585A6F59CD00F05ACD01F02D
:100D7000026A036A5BCD22F05CCD23F05DCD24F0E6
:100D80005ECD25F000C027F001C028F002C029F098
:100D900003C02AF0B5EC4AF01EC05FFD1FC060FD25
:100DA00020C061FD21C062FDE80E276E030E286E93
:100DB000296A2A6A5FCD22F060CD23F061CD24F04C
:100DC00062CD25F0B5EC4BF022C05FFD23C060FD85
:100DD00024C061FD25C062FD3CCDE9FF3DCDEAFFA9
:100DE0001D0EE926000EEA220D015F51EE2660512C
:100DF000EE226151EE226251EE223CCDE9FF3DCD63
:100E0000EAFF1A0EE926000EEA22EECF00F0EFCF3D
:100E100001F0D880015004E7240E005CFF0E015859
:100E20000CE23CCDE9FF3DCDEAFF1A0EE926000EAB
:100E3000EA22240EEE6EED681ED03CCDE9FF3DCDDA
:100E4000EAFF1A0EE926000EEA22EECF00F0EFCFFD
:100E500001F0013404E20050DC08000E01540BE202
:100E60003CCDE9FF3DCDEAFF1A0EE926000EEA224D
:100E7000DC0EEE6EED6A636B646B656B666B0CCEBD
:100E800064FD0DCE63FDD950FC0FE96EFF0EDA2034
:100E9000EA6EEE50ED101FE13CCDE9FF3DCDEAFFDB
:100EA0001A0EEB6A1B0EEB6A3CCDE9FF3DCDEAFF63
:100EB0001D0EE926000EEA22EE6AEE6AEE6AEE6A7E
:100EC0003CCDE9FF3DCDEAFFEE52EF6ADC0E536FF9
:100ED000050E546F3FD0FC0EDBCF00F0FD0EDBCFD4
:100EE00001F0013404E200500008000E015419E240
:100EF0003CCDE9FF3DCDEAFF1A0EE926000EEA22BD
:100F0000EECF53FDEFCF54FDDC0E5327050E5423D7
:100F10005F516327605164236151652362516623E9
:100F200019D03CCDE9FF3DCDEAFF1A0EE926000EAF
:100F3000EA22EECF53FDEFCF54FDDC0ED88053579D
:100F4000050E54575F51635F6051645B6151655B8F
:100F50006251665B6635000E661909E6D880FF0EA1
:100F600063557F0E6455000E6555000E665506E20A
:100F700063697F0E646F656B666B12D0D8806651B3
:100F8000FF0A08E6000E635D800E6459FF0E655986
:100F9000FF0E665905E2636B800E646F65696669D2
:100FA00064CD0CFE63CD0DFE03680468056A53CD65
:100FB00006F054CD07F0086A07BE08680650035CC7
:100FC000006E07500458016E08500558026E002A42
:100FD000000E0122022200C0E6FF01C0E6FFECEC99
:100FE00002F0E552E5520A0EE66EE66A16EC1CF0D7
:100FF000E552E552E552E5CFDAFFE7CFD9FF12001F
:10100000D9CFE6FFDACFE6FFE1CFD9FFE2CFDAFFB3
:101010003ECDE9FF3FCDEAFF020EE926000EEA22AF
:10102000FC0EDBCFEEFFFD0EDBCFEDFF3ECDE9FF8B
:101030003FCDEAFF0B0EE926000EEA22EECF00F0CC
:10104000EFCF01F03ECDE9FF3FCDEAFF090E00C032
:10105000EBFF0A0E01C0EBFF3ECDE9FF3FCDEAFFFB
:101060000D0EE926000EEA22EECF00F0EFCF01F0E0
:101070003ECDE9FF3FCDEAFF0F0EE926000EEA2242
:10108000EECF02F0EFCF03F00050025C01500358A6
:1010900039E23ECDE9FF3FCDEAFF0D0EE926000E15
:1010A000EA22EECF02F0EFCF03F0020E0F0B05E0C5
:1010B000D89003320232E806FBE13ECDE9FF3FCD96
:1010C000EAFF0F0EE926000EEA22EECF04F0EFCF82
:1010D00005F0020E0F0B05E0D89005320432E80649
:1010E000FBE10450025C006E05500358016E3ECDDA
:1010F000E9FF3FCDEAFF0B0E00C0EBFF0C0E01C075
:10110000EBFF38D03ECDE9FF3FCDEAFF0F0EE926D9
:10111000000EEA22EECF02F0EFCF03F0020E0F0B2B
:1011200005E0D89003320232E806FBE13ECDE9FF4C
:101130003FCDEAFF0D0EE926000EEA22EECF04F0C5
:10114000EFCF05F0020E0F0B05E0D8900532043208
:10115000E806FBE10450025C006E05500358016E86
:101160003ECDE9FF3FCDEAFF0B0E00C0EBFF0C0EBA
:1011700001C0EBFFFC0EDBCF00F0FD0EDBCF01F07A
:101180000001800E01140CE0FC0EDBCF53FDFD0EC0
:10119000DBCF54FD0D01536D541F000E542306D0B8
:1011A000FC0EDBCF53FDFD0EDBCF54FD3ECDE9FF42
:1011B0003FCDEAFF0B0EE926000EEA22EE500D01AC
:1011C000535D516FEE505459526F3ECDE9FF3FCD04
:1011D000EAFF1A0EE926000EEA225151EE2652517C
:1011E000ED223ECDE9FF3FCDEAFF1A0EE926000EC3
:1011F000EA22EECF00F0EFCF01F0D880015004E7F3
:10120000240E005CFF0E01580CE23ECDE9FF3FCDFD
:10121000EAFF1A0EE926000EEA22240EEE6EED68B1
:101220001ED03ECDE9FF3FCDEAFF1A0EE926000EA3
:10123000EA22EECF00F0EFCF01F0013404E20050DB
:10124000DC08000E01540BE23ECDE9FF3FCDEAFF82
:101250001A0EE926000EEA22DC0EEE6EED6AD95077
:10126000FC0FE96EFF0EDA20EA6EEE50ED101FE182
:101270003ECDE9FF3FCDEAFF1A0EEB6A1B0EEB6A8B
:101280003ECDE9FF3FCDEAFF1D0EE926000EEA2222
:10129000EE6AEE6AEE6AEE6A3ECDE9FF3FCDEAFF06
:1012A000EE52EF6ADC0E536F050E546F2FD0FC0E1A
:1012B000DBCF00F0FD0EDBCF01F0013404E2005083
:1012C0000008000E015411E23ECDE9FF3FCDEAFFD8
:1012D0001A0EE926000EEA22EECF53FDEFCF54FDA1
:1012E000DC0E5327050E542311D03ECDE9FF3FCD30
:1012F000EAFF1A0EE926000EEA22EECF53FDEFCFE9
:1013000054FDDC0ED8805357050E5457036804680B
:10131000056A53CD06F054CD07F0086A07BE086889
:101320000650035C006E07500458016E08500558C3
:10133000026E002A000E0122022200C0E6FF01C058
:10134000E6FF08EC03F0E552E5520A0EE66EE66AA7
:1013500016EC1CF0E552E552E552E5CFDAFFE7CF97
:10136000D9FF1200D9CFE6FFDACFE6FFE1CFD9FFF0
:10137000E2CFDAFFFC0EDBCFE9FFFD0EDBCFEAFFA9
:10138000EE52020EE926000EEA22EECF00FDEECF6D
:1013900001FDEECF02FDEFCF03FDFC0EDBCFE9FF39
:1013A000FD0EDBCFEAFFEE52EE50ED1029E1FC0E10
:1013B000DBCFE9FFFD0EDBCFEAFFEE52020EE9269E
:1013C000000EEA22EECFE6FFEECFE6FFEECFE6FF1D
:1013D000EFCFE6FFFC0EDBCFE9FFFD0EDBCFEAFF30
:1013E000EE52EECFE6FFEFCFE6FF07EC05F0006E22
:1013F000060EE15C02E2E16AE552E16E005042D085
:10140000FC0EDBCFE9FFFD0EDBCFEAFFEE52020E52
:10141000E926000EEA22EECFE6FFEECFE6FFEECFA2
:10142000E6FFEFCFE6FFFC0EDBCFE9FFFD0EDBCFE3
:10143000EAFFEE52EECF00F0EFCF01F00A0E01020C
:10144000F3CF01F00002F3CF00F0F45001264B0E71
:10145000296E2A6A00C024F001C025F00FEC39F093
:1014600024C000F025C001F000C0E6FF01C0E6FF87
:1014700007EC05F0026E060EE15C02E2E16AE5525D
:10148000E16E0250FC0EDBCFE9FFFD0EDBCFEAFF81
:10149000070EE926000EEA22EE50ED102EE1FC0EBA
:1014A000DBCFE9FFFD0EDBCFEAFF070EE926000EDA
:1014B000EA22020EE926000EEA22EECFE6FFEECF88
:1014C000E6FFEECFE6FFEFCFE6FFFC0EDBCFE9FF56
:1014D000FD0EDBCFEAFF070EE926000EEA22EECF73
:1014E000E6FFEFCFE6FF8CDD006E060EE15C02E268
:1014F000E16AE552E16E005047D0FC0EDBCFE9FF18
:10150000FD0EDBCFEAFF070EE926000EEA22020EEF
:10151000E926000EEA22EECFE6FFEECFE6FFEECFA1
:10152000E6FFEFCFE6FFFC0EDBCFE9FFFD0EDBCFE2
:10153000EAFF070EE926000EEA22EECF00F0EFCF19
:1015400001F00A0E0102F3CF01F00002F3CF00F028
:10155000F45001264B0E296E2A6A00C024F001C007
:1015600025F00FEC39F024C000F025C001F000C0D8
:10157000E6FF01C0E6FF44DD026E060EE15C02E21A
:10158000E16AE552E16E02500D01005101110211B4
:1015900003114BE03CCDE9FF3DCDEAFF1D0EE926EE
:1015A000000EEA220051EE5C0151EE580251EE5855
:1015B0000351EE583AE3E66AE66AE66AE66A000E26
:1015C000E66EE66A07EC05F0006E060EE15C02E2EC
:1015D000E16AE552E16E0050E66AE66AE66AE66AAA
:1015E000000EE66EE66A0CDD006E060EE15C02E2BD
:1015F000E16AE552E16E0050030EE66EE66AE66AC5
:10160000E66AE66A000EE66EE66AE66EE66A13D8F9
:10161000006E090EE15C02E2E16AE552E16E005003
:101620000D01006B016B026B036BE552E5CFDAFF36
:10163000E7CFD9FF1200D9CFE6FFDACFE6FFE1CF3F
:10164000D9FFE2CFDAFFFC0EDBCF00F0FD0EDBCFDF
:1016500001F0013404E20050E808030E01540BE2EB
:10166000E80EF36EFC0EF3CFDBFF030EF36EFD0E00
:10167000F3CFDBFF18D0FC0EDBCF00F0FD0EDBCF8D
:1016800001F0D880015004E7180E005CFC0E0158F0
:101690000AE2180EF36EFC0EF3CFDBFFFC0EF36EC6
:1016A000FD0EF3CFDBFFFA0EDBCF00F0FB0EDBCF3E
:1016B00001F0013404E20050E808030E01540BE28B
:1016C000E80EF36EFA0EF3CFDBFF030EF36EFB0EA4
:1016D000F3CFDBFF18D0FA0EDBCF00F0FB0EDBCF31
:1016E00001F0D880015004E7180E005CFC0E015890
:1016F0000AE2180EF36EFA0EF3CFDBFFFC0EF36E68
:10170000FB0EF3CFDBFFF50EDBCFE9FFEA6AE9BEA4
:10171000EA680D0EEA02F3CFEAFFE902F3CFE9FF30
:10172000F450EA26040EE9260D0EEA22EE52FC0ED3
:10173000DBCFEEFFFD0EDBCFEDFFF50EDBCFE9FFDC
:10174000EA6AE9BEEA680D0EEA02F3CFEAFFE902AF
:10175000F3CFE9FFF450EA26040EE9260D0EEA2243
:10176000EE52020EE926000EEA22F60EDBCFEEFF65
:10177000F70EDBCFEEFFF80EDBCFEEFFF90EDBCF7F
:10178000EEFFF50EDBCFE9FFEA6AE9BEEA680D0E6F
:10179000EA02F3CFEAFFE902F3CFE9FFF450EA26C9
:1017A000040EE9260D0EEA22070EE926000EEA22B3
:1017B000FA0EDBCFEEFFFB0EDBCFEDFFF50EDBCF3E
:1017C000E9FFEA6AE9BEEA680D0EEA02F3CFEAFF32
:1017D000E902F3CFE9FFF450EA26040EE9260D0EE4
:1017E000EA22070EE926000EEA22020EE926000E82
:1017F000EA22F60EDBCFEEFFF70EDBCFEEFFF80EA0
:10180000DBCFEEFFF90EDBCFEEFFF50EDBCFE9FF0E
:10181000EA6AE9BEEA680D0EEA02F3CFEAFFE902DE
:10182000F3CFE9FFF450EA26040EE9260D0EEA2272
:10183000F50EDBCFEFFFE552E5CFDAFFE7CFD9FFBB
:101840001200D9CFE6FFDACFE6FFE1CFD9FFE2CF32
:10185000DAFFD950FC0FE96EFF0EDA20EA6EEE5087
:10186000ED1017E0D950FC0FE96EFF0EDA20EA6E9A
:10187000FF0EEE1802E17F0EED180BE0D950FC0FC1
:10188000E96EFF0EDA20EA6EEE5002E1800EED18EE
:1018900027E1F50EDBCFE6FFD950F60FE96EFF0E1C
:1018A000DA20EA6EEECFE6FFEECFE6FFEECFE6FF00
:1018B000EFCFE6FFFA0EDBCFE6FFFB0EDBCFE6FF56
:1018C000FA0EDBCFE6FFFB0EDBCFE6FFB4DE006EE9
:1018D000090EE15C02E2E16AE552E16E005065D179
:1018E000D950FC0FE96EFF0EDA20EA6EFF0EEE18FB
:1018F00002E1FF0EED182FE1F50EDBCFE6FFD95028
:10190000F60FE96EFF0EDA20EA6EEECFE6FFEECFBD
:10191000E6FFEECFE6FFEFCFE6FFFA0EDBCF00F0FB
:10192000FB0EDBCF01F0006C011E000E012200C097
:10193000E6FF01C0E6FFFA0EDBCFE6FFFB0EDBCFD2
:10194000E6FF79DE026E090EE15C02E2E16AE55231
:10195000E16E02502AD1D950FC0FE96EFF0EDA2059
:10196000EA6E010EEE1801E1ED502FE1F50EDBCF2E
:10197000E6FFD950F60FE96EFF0EDA20EA6EEECFE1
:10198000E6FFEECFE6FFEECFE6FFEFCFE6FFFA0E83
:10199000DBCFE6FFFB0EDBCFE6FFFA0EDBCF00F07E
:1019A000FB0EDBCF01F0006C011E000E012200C017
:1019B000E6FF01C0E6FF3FDE026E090EE15C02E2D7
:1019C000E16AE552E16E0250F0D0006A800E016ECD
:1019D000820E026E430E036E020E246E256AFC0E0A
:1019E000DBCF29F0FD0EDBCF2AF069EC39F022C005
:1019F00008F023C009F008C024F009C025F0A5ECC8
:101A000037F023C004F024C005F025C006F026C03E
:101A100007F004C028F005C029F006C02AF007C06E
:101A20002BF000C023F001C024F002C025F003C059
:101A300026F04FEC38F023C040FD24C041FD25C006
:101A400042FD26C043FDFA0EDBCF24F0FB0EDBCFB8
:101A500025F0A5EC37F023C000F024C001F025C02C
:101A600002F026C003F0086A096A800E0A6E3F0E73
:101A70000B6E40CD28F041CD29F042CD2AF043CD68
:101A80002BF008C023F009C024F00AC025F00BC0D9
:101A900026F0B8EC37F023C004F024C005F025C0D0
:101AA00006F026C007F004C028F005C029F006C0E3
:101AB0002AF007C02BF000C023F001C024F002C0C0
:101AC00025F003C026F0A2EC38F096EC39F024C0E3
:101AD00044FD25C045FDFA0EDBCF24F0FB0EDBCF25
:101AE00025F0A5EC37F023C000F024C001F025C09C
:101AF00002F026C003F0086A096A800E0A6E3F0EE3
:101B00000B6E40CD28F041CD29F042CD2AF043CDD7
:101B10002BF008C023F009C024F00AC025F00BC048
:101B200026F0B9EC37F023C004F024C005F025C03E
:101B300006F026C007F004C028F005C029F006C052
:101B40002AF007C02BF000C023F001C024F002C02F
:101B500025F003C026F0A2EC38F096EC39F024C052
:101B600046FD25C047FDF50EDBCFE6FFD950F60F49
:101B7000E96EFF0EDA20EA6EEECFE6FFEECFE6FF6B
:101B8000EECFE6FFEFCFE6FF46CDE6FF47CDE6FF1F
:101B900044CDE6FF45CDE6FF4EDD006E090EE15C6B
:101BA00002E2E16AE552E16E0050E552E5CFDAFF6C
:101BB000E7CFD9FF1200D9CFE6FFDACFE6FFE1CFBA
:101BC000D9FFE2CFDAFF3ECDE9FF3FCDEAFF070EB6
:101BD000E926000EEA22580ED880EE54020EED548B
:101BE00014E28AA208D00D01D80E4D6F4E69EC0E9A
:101BF0004F6F506906D01B0E0D014D6F4E6B4F6F2E
:101C0000506B0C01010EFE6F21D03CCDE9FF3DCDA4
:101C1000EAFF070EE926000EEA22580ED880EE549D
:101C2000020EED5413E28AA208D00D01EC0E4D6FA6
:101C30004E69D80E4F6F506906D01B0E0D014D6FC7
:101C40004E6B4F6F506B0C01010EFE6F0C01FE05C9
:101C500018E1020EE66EE66AE66AE66AE66A000ED9
:101C6000E66EE66AE66EE66AE6DC006E090EE15CA8
:101C700002E2E16AE552E16E00500C01020EFE6FD5
:101C80007DD0020EFE5D2CE18A50020B01E0010EB8
:101C9000006E8A50200B01E0010E005C20E18A50AA
:101CA000010B016E8B50010B015C19E1030EFE6FFD
:101CB000020EE66EE66AE66AE66AE66A4FCDE6FF7F
:101CC00050CDE6FF4DCDE6FF4ECDE6FFB4DC006E15
:101CD000090EE15C02E2E16AE552E16E00504ED08D
:101CE000030EFE5D44E18A50020B01E0010E006E1E
:101CF0008A50200B01E0010E005C38E08A50010B95
:101D0000016E8B50010B015C31E0C40EE66E090ED2
:101D1000E66E16EC1CF0E552E552020EE66EE66A3F
:101D2000E66AE66AE66A4DCD00F04ECD01F0006C41
:101D3000011E000E012200C0E6FF01C0E6FF4FCDEC
:101D400002F050CD03F0026C031E032202C0E6FF36
:101D500003C0E6FF70DC046E090EE15C02E2E16A9A
:101D6000E552E16E04500C01040EFE6F07D0040E24
:101D7000FE5D04E10D011E6B0C01FE6BE80EE66ECC
:101D8000030EE66E16EC1CF0E552E5521CD7E55248
:101D9000E5CFDAFFE7CFD9FF1200D9CFE6FFDACFE0
:101DA000E6FFE1CFD9FFE2CFDAFF0E0EE12402E336
:101DB000E168E652E16EDE6ADD6A9DEC37F00C0EFA
:101DC000F3CFDBFF0D0EF4CFDBFF0C0EDBCF00F00B
:101DD0000D0EDBCF01F0F80EDBCF02F0F90EDBCFFA
:101DE00003F00250005C0350015847E2F80EDBCFCD
:101DF00002F0F90EDBCF03F00C0EDB50025C006E3C
:101E00000D0EDB500358016EB40ED8800054000E46
:101E100001541CE2010EDE6EDD6A0C0EDBCF02F017
:101E20000D0EDBCF03F0680E0226010E0322F80E22
:101E3000DB50025C006EF90EDB500358016E020E9F
:101E400000C0DBFF030E01C0DBFF16D0DE68DD68DB
:101E5000F80EDBCF02F0F90EDBCF03F00C0EDB50F7
:101E6000025C006E0D0EDB500358016E020E00C0C6
:101E7000DBFF030E01C0DBFF67D00C0EDBCF00F0F1
:101E80000D0EDBCF01F0F80EDBCF02F0F90EDBCF49
:101E900003F00050025C0150035847E20C0EDBCF08
:101EA00002F00D0EDBCF03F0F80EDB50025C006E8B
:101EB000F90EDB500358016EB40ED8800054000EAA
:101EC00001541BE2DE68DD68F80EDBCF02F0F90E8C
:101ED000DBCF03F0680E0226010E03220C0EDB504E
:101EE000025C006E0D0EDB500358016E020E00C046
:101EF000DBFF030E01C0DBFF17D0010EDE6EDD6AD3
:101F00000C0EDBCF02F00D0EDBCF03F0F80EDB5032
:101F1000025C006EF90EDB500358016E020E00C029
:101F2000DBFF030E01C0DBFF0FD00C0EDBCF00F098
:101F30000D0EDBCF01F0F80EDB50001803E1F90EB7
:101F4000DB50011801E110D2020EDBCF24F0030EAA
:101F5000DBCF25F0A3EC37F023C000F024C001F064
:101F600025C002F026C003F0390E286EFA0E296E45
:101F70008E0E2A6E3C0E2B6E00C023F001C024F0A2
:101F800002C025F003C026F0A2EC38F0040E23C0F6
:101F9000DBFF050E24C0DBFF060E25C0DBFF070EAE
:101FA00026C0DBFFD950FC0FE96EFF0EDA20EA6E87
:101FB000EE50ED1035E1D9CFE9FFDACFEAFFFC0EA4
:101FC000EECFDBFFFD0EEDCFDBFF040EDBCF00F02D
:101FD000050EDBCF01F0060EDBCF02F0070EDBCFE4
:101FE00003F0286A800E296E020E2A6E430E2B6EB5
:101FF00000C023F001C024F002C025F003C026F089
:10200000A2EC38F0C5EC39F0080E22C0DBFF090E57
:1020100023C0DBFF0A0E24C0DBFF0B0E25C0DBFF55
:10202000D950FC0FE96EFF0EDA20EA6EFF0EEE18B3
:1020300002E1FF0EED1830E1F70EDBCFE6FFD950DD
:10204000080FE96E000EDA20EA6EEECFE6FFEECF63
:10205000E6FFEECFE6FFEFCFE6FFFA0EDBCF00F0B4
:10206000FB0EDBCF01F0006C011E000E012200C050
:10207000E6FF01C0E6FFFA0EDBCFE6FFFB0EDBCF8B
:10208000E6FF1BEC0BF0026E090EE15C02E2E16A76
:10209000E552E16E025068D1D950FC0FE96EFF0E97
:1020A000DA20EA6E010EEE1801E1ED5030E1F70E94
:1020B000DBCFE6FFD950080FE96E000EDA20EA6E9A
:1020C000EECFE6FFEECFE6FFEECFE6FFEFCFE6FF87
:1020D000FA0EDBCFE6FFFB0EDBCFE6FFFA0EDBCF1F
:1020E00000F0FB0EDBCF01F0006C011E000E0122A0
:1020F00000C0E6FF01C0E6FF1BEC0BF0026E090E0C
:10210000E15C02E2E16AE552E16E02502DD1006A23
:10211000800E016E820E026E430E036E020E246E5E
:10212000256AFC0EDBCF29F0FD0EDBCF2AF069EC2F
:1021300039F022C008F023C009F008C024F009C01B
:1021400025F0A5EC37F023C004F024C005F025C02D
:1021500006F026C007F004C028F005C029F006C02C
:102160002AF007C02BF000C023F001C024F002C009
:1021700025F003C026F04FEC38F023C040FD24C00A
:1021800041FD25C042FD26C043FDFA0EDBCF24F001
:10219000FB0EDBCF25F0A5EC37F023C000F024C008
:1021A00001F025C002F026C003F0086A096A800E1B
:1021B0000A6E3F0E0B6E40CD28F041CD29F042CD86
:1021C0002AF043CD2BF008C023F009C024F00AC048
:1021D00025F00BC026F0B8EC37F023C004F024C083
:1021E00005F025C006F026C007F004C028F005C0A1
:1021F00029F006C02AF007C02BF000C023F001C070
:1022000024F002C025F003C026F0A2EC38F096ECD2
:1022100039F024C044FD25C045FDFA0EDBCF24F083
:10222000FB0EDBCF25F0A5EC37F023C000F024C077
:1022300001F025C002F026C003F0086A096A800E8A
:102240000A6E3F0E0B6E40CD28F041CD29F042CDF5
:102250002AF043CD2BF008C023F009C024F00AC0B7
:1022600025F00BC026F0B9EC37F023C004F024C0F1
:1022700005F025C006F026C007F004C028F005C010
:1022800029F006C02AF007C02BF000C023F001C0DF
:1022900024F002C025F003C026F0A2EC38F096EC42
:1022A00039F024C046FD25C047FD040EDBCF00F009
:1022B000050EDBCF01F0060EDBCF02F0070EDBCF01
:1022C00003F0FC0EDBCF24F0FD0EDBCF25F0A5ECF8
:1022D00037F023C004F024C005F025C006F026C066
:1022E00007F004C028F005C029F006C02AF007C096
:1022F0002BF000C023F001C024F002C025F003C081
:1023000026F0A2EC38F0C5EC39F0080E22C0DBFF55
:10231000090E23C0DBFF0A0E24C0DBFF0B0E25C015
:10232000DBFFF70EDBCFE6FFD950080FE96E000E9A
:10233000DA20EA6EEECFE6FFEECFE6FFEECFE6FF65
:10234000EFCFE6FF46CDE6FF47CDE6FF44CDE6FF03
:1023500045CDE6FF1BEC0BF0006E090EE15C02E2DE
:10236000E16AE552E16E00500E0EE15C02E2E16AC4
:10237000E552E16EE552E5CFDAFFE7CFD9FF120073
:10238000D9CFE6FFDACFE6FFE1CFD9FFE2CFDAFF20
:10239000FD0EDBCFE9FFEA6AE9BEEA680D0EEA024C
:1023A000F3CFEAFFE902F3CFE9FFF450EA26040E87
:1023B000E9260D0EEA22EF6A54EC02F0E552E5CF71
:0823C000DAFFE7CFD9FF12009C
:0823C800D9CFE6FFDACFE6FFF2
:1023D000E1CFD9FFE2CFDAFFE652E652E652E6520B
:1023E000FD0EDB50000801E304D11F0EE66EE66A25
:1023F0001CEC48F0E552E552F3CFDEFFF4CFDDFFF1
:10240000D9CFE9FFDACFEAFFEE50ED1001E1F1D0CC
:10241000FC0EDBCFE6FFFD0EDB50E552E702F3508A
:10242000006E016A010E0026000E0122020E00C09D
:10243000DBFF030E01C0DBFF020EDBCFE6FF030E66
:10244000DBCFE6FF1CEC48F0E552E552F3CF00F09D
:10245000F4CF01F0DECFE9FFDDCFEAFF00C0EEFFF1
:1024600001C0EDFFDECFE9FFDDCFEAFFEE50ED105A
:1024700001E1B7D0FC0EDBCFE6FFFD0EDB50E552ED
:10248000E702F350026E036ADECFE9FFDDCFEAFF19
:102490000250EE24006E0350EE20016EDECFE9FF05
:1024A000DDCFEAFF020EE926000EEA2200C0EEFFB1
:1024B00001C0EDFFDECFE9FFDDCFEAFF1A0EE9260E
:1024C000000EEA22EF6ADECFE9FFDDCFEAFFEECFB2
:1024D00000F0EFCF01F0DECFE9FFDDCFEAFF040E21
:1024E000E926000EEA2200C0EEFF01C0EDFFFC0E5F
:1024F000DBCFE6FFFD0EDB04E552E702F350026E90
:10250000036ADECFE9FFDDCFEAFF0250EE24006E62
:102510000350EE20016EDECFE9FFDDCFEAFF060EAD
:10252000E926000EEA2200C0EEFF01C0EDFFDECF7B
:10253000E9FFDDCFEAFF1B0EE926000EEA22FD0EC1
:10254000DBCFEFFFDECFE9FFDDCFEAFF1C0EE92690
:10255000000EEA22FC0EDBCFEFFFDECFE9FFDDCF7E
:10256000EAFF1D0EE926000EEA22EF68DECFE9FF42
:10257000DDCFEAFF1E0EE926000EEA22EF68DECF6D
:10258000E9FFDDCFEAFF080EE926000EEA22E9CFD7
:1025900000F0EACF01F000C0E6FF01C0E6FFC4ECA6
:1025A0003DF0E552E552DECFE9FFDDCFEAFF110E47
:1025B000E926000EEA22E9CF00F0EACF01F000C0E0
:1025C000E6FF01C0E6FFC4EC3DF0E552E552DECF88
:1025D00000F0DDCF01F000C0F3FF01C0F4FF0CD02C
:1025E00008D0DECFE6FFDDCFE6FF74EC48F0E55221
:1025F000E552F36AF46A00D0040EE15C02E2E16A9B
:10260000E552E16EE552E5CFDAFFE7CFD9FF1200E0
:10261000D9CFE6FFDACFE6FFE1CFD9FFE2CFDAFF8D
:10262000E652E652E652E652DF6AF250E66EF29E5B
:10263000FC0EDBCFE9FFFD0EDBCFEAFF1A0EE92629
:10264000000EEA22EFCF00F0FC0EDBCFE9FFFD0E1B
:10265000DBCFEAFF1B0EE926000EEA22EF50005CFA
:1026600047E2F70EDBCFE6FFFA0EDBCFE6FFFB0E0D
:10267000DBCFE6FFFC0EDBCFE6FFFD0EDBCFE6FF98
:1026800058EC17F0006E050EE15C02E2E16AE552DB
:10269000E16E0050FC0EDBCFE9FFFD0EDBCFEAFF61
:1026A000110EE926000EEA22EF501AE0FC0EDBCFF5
:1026B000E9FFFD0EDBCFEAFF110EE926000EEA224C
:1026C000E9CF00F0EACF01F000C0E6FF01C0E6FF6D
:1026D00040EC20F0E552E552010802E11AEC2CF042
:1026E000E552E7AE02D0C00EF212010ECAD01FD0E2
:1026F000D950F80FE96EFF0EDA20EA6EEE50ED10B9
:1027000008E1E552E7AE02D0C00EF212000EB9D0D9
:102710000ED0DF500CE1D950010FE66E000EDA202A
:10272000E66E24EC21F0E552E552010EDF6EE55233
:10273000E7AE02D0C00EF212F1EC1CF0F250E66EE1
:10274000F29EFC0EDBCFE9FFFD0EDBCFEAFF1D0E94
:10275000E926000EEA22EF50FF080BE1FC0EDBCF6A
:10276000E9FFFD0EDBCFEAFF1D0EE926000EEA228F
:10277000EF6AFC0EDBCFE9FFFD0EDBCFEAFF1E0E9A
:10278000E926000EEA22EF50FF080BE1FC0EDBCF3A
:10279000E9FFFD0EDBCFEAFF1E0EE926000EEA225E
:1027A000EF6AE552E7AE02D0C00EF212D950F80F30
:1027B000E66EFF0EDA20E66ED950010FE66E000ECF
:1027C000DA20E66E45EC21F0E552E552E552E5529D
:1027D000000948E1FC0EDBCFE6FFFD0EDBCFE6FF94
:1027E0003DEC1AF0E552E55200092FE0F80EDBCF80
:1027F000E6FFF90EDBCFE6FFFC0EDBCFE9FFFD0EB7
:10280000DBCFEAFF080EE926000EEA22E9CF00F04E
:10281000EACF01F000C0E6FF01C0E6FFA3EC1FF025
:10282000E552E552E552E552FC0EDBCFE6FFFD0E28
:10283000DBCFE6FF27EC19F0E552E552F4EC1CF093
:10284000000902E11AEC2CF00CD0FC0EDBCFE6FF05
:10285000FD0EDBCFE6FF27EC19F0E552E552F4EC74
:102860001CF00ED0FC0EDBCFE6FFFD0EDBCFE6FF4B
:1028700027EC19F0E552E552F4EC1CF0000E01D003
:10288000D4D6006E040EE15C02E2E16AE552E16E2C
:102890000050E552E5CFDAFFE7CFD9FF1200D9CFDC
:1028A000E6FFDACFE6FFE1CFD9FFE2CFDAFFE6526B
:1028B000E652010EDB6AFC0EDBCFE9FFFD0EDBCF3B
:1028C000EAFF1A0EE926000EEA22EFCF00F0FC0E16
:1028D000DBCFE9FFFD0EDBCFEAFF1B0EE926000E82
:1028E000EA22EF50005C60E2F70EDBCFE6FFFA0E63
:1028F000DBCFE6FFFB0EDBCFE6FFFC0EDBCFE6FF18
:10290000FD0EDBCFE6FFD4DA006E050EE15C02E2DD
:10291000E16AE552E16E0050FC0EDBCFE9FFFD0EEF
:10292000DBCFEAFF1E0EE926000EEA22EF50FF0879
:102930002DE1FC0EDBCFE9FFFD0EDBCFEAFF110E30
:10294000E926000EEA22EF5020E0FC0EDBCFE9FF83
:10295000FD0EDBCFEAFF110EE926000EEA22E9CFD9
:1029600000F0EACF01F000C0E6FF01C0E6FF40EC56
:1029700020F0E552E552000908E0F80EDBCFE9FF50
:10298000F90EDBCFEAFF010EEF6E0BD0FC0EDBCFB2
:10299000E9FFFD0EDBCFEAFF1E0EE926000EEA225C
:1029A000EF2A010EDF6E01D0DF6ADF5000D0E55262
:1029B000E552E552E5CFDAFFE7CFD9FF1200D9CFD4
:1029C000E6FFDACFE6FFE1CFD9FFE2CFDAFF060E6E
:1029D000E12402E3E168E652E16EDF6AF250E66E5E
:1029E000F29EFC0EDBCFE9FFFD0EDBCFEAFF1A0EF5
:1029F000E926000EEA22EF50000801E394D0FC0E15
:102A0000DBCFE9FFFD0EDBCFEAFF060EE926000E65
:102A1000EA22040EEECFDBFF050EEDCFDBFFFA0E50
:102A2000DBCFE6FFFB0EDBCFE6FFFC0EDBCFE6FFE6
:102A3000FD0EDBCFE6FF74DBE552E552E552E552D1
:102A4000F70EDB5032E1FC0EDBCFE9FFFD0EDBCFF2
:102A5000EAFF1A0EE926000EEA22EF06FC0EDBCF93
:102A6000E9FFFD0EDBCFEAFF080EE926000EEA22A1
:102A7000EF501AE0FC0EDBCFE9FFFD0EDBCFEAFFE3
:102A8000080EE926000EEA22E9CF00F0EACF01F0B5
:102A900000C0E6FF01C0E6FF40EC20F0E552E55241
:102AA000010802E11AEC2CF036D0FC0EDBCFE9FF76
:102AB000FD0EDBCFEAFF060EE926000EEA22040E29
:102AC000DBCFEEFF050EDBCFEDFFFC0EDBCFE9FF2A
:102AD000FD0EDBCFEAFF110EE926000EEA22EF50D1
:102AE0001AE0FC0EDBCFE9FFFD0EDBCFEAFF110E93
:102AF000E926000EEA22E9CF00F0EACF01F000C09B
:102B0000E6FF01C0E6FF40EC20F0E552E552000987
:102B100002E01AEC2CF0E552E7AE02D0C00EF21241
:102B2000010EC6D01FD0D950F80FE96EFF0EDA2083
:102B3000EA6EEE50ED1008E1E552E7AE02D0C00EAD
:102B4000F212000EB5D00ED0DF500CE1D950010FBB
:102B5000E66E000EDA20E66E24EC21F0E552E55236
:102B6000010EDF6EE552E7AE02D0C00EF212F1ECBC
:102B70001CF0F250E66EF29EFC0EDBCFE9FFFD0E7C
:102B8000DBCFEAFF1D0EE926000EEA22EF50FF0818
:102B90000BE1FC0EDBCFE9FFFD0EDBCFEAFF1D0EE4
:102BA000E926000EEA22EF6AFC0EDBCFE9FFFD0EFC
:102BB000DBCFEAFF1E0EE926000EEA22EF50FF08E7
:102BC0000BE1FC0EDBCFE9FFFD0EDBCFEAFF1E0EB3
:102BD000E926000EEA22EF6AE552E7AE02D0C00E07
:102BE000F212D950F80FE66EFF0EDA20E66ED950D9
:102BF000010FE66E000EDA20E66E45EC21F0E5529C
:102C0000E552E552E552000945E1FC0EDBCFE6FF57
:102C1000FD0EDBCFE6FFE5DBE552E55200092EE0D5
:102C2000F80EDBCFE6FFF90EDBCFE6FFFC0EDBCFC5
:102C3000E9FFFD0EDBCFEAFF110EE926000EEA22C6
:102C4000E9CF00F0EACF01F000C0E6FF01C0E6FFE7
:102C5000A3EC1FF0E552E552E552E552FC0EDBCF46
:102C6000E6FFFD0EDBCFE6FFF2DAE552E552F4ECCB
:102C70001CF0000902E11AEC2CF00BD0FC0EDBCFAB
:102C8000E6FFFD0EDBCFE6FFE2DAE552E552F4ECBB
:102C90001CF00DD0FC0EDBCFE6FFFD0EDBCFE6FF18
:102CA000D6DAE552E552F4EC1CF0000E01D096D6CF
:102CB000006E060EE15C02E2E16AE552E16E005050
:102CC000E552E5CFDAFFE7CFD9FF1200D9CFE6FF13
:102CD000DACFE6FFE1CFD9FFE2CFDAFFE652E652E4
:102CE000010EDB6AFC0EDBCFE9FFFD0EDBCFEAFF56
:102CF0001A0EE926000EEA22EF50000864E2FA0EEE
:102D0000DBCFE6FFFB0EDBCFE6FFFC0EDBCFE6FF03
:102D1000FD0EDBCFE6FF04DAE552E552E552E5525F
:102D2000FC0EDBCFE9FFFD0EDBCFEAFF1A0EE92632
:102D3000000EEA22EF06FC0EDBCFE9FFFD0EDBCF33
:102D4000EAFF1D0EE926000EEA22EF50FF082DE1F2
:102D5000FC0EDBCFE9FFFD0EDBCFEAFF080EE92614
:102D6000000EEA22EF5020E0FC0EDBCFE9FFFD0E63
:102D7000DBCFEAFF080EE926000EEA22E9CF00F0D9
:102D8000EACF01F000C0E6FF01C0E6FF40EC20F012
:102D9000E552E552000908E0F80EDBCFE9FFF90E35
:102DA000DBCFEAFF010EEF6E0BD0FC0EDBCFE9FFAD
:102DB000FD0EDBCFEAFF1D0EE926000EEA22EF2A08
:102DC000010EDF6E01D0DF6ADF5000D0E552E55220
:102DD000E552E5CFDAFFE7CFD9FF1200D9CFE6FF02
:102DE000DACFE6FFE1CFD9FFE2CFDAFFE652F250C9
:102DF000E66EF29EFC0EDBCFE9FFFD0EDBCFEAFFB5
:102E00001A0EE926000EEA22EFCFDFFFE552E7AE09
:102E100002D0C00EF212DF5000D0E552E552E5CFED
:102E2000DAFFE7CFD9FF1200D9CFE6FFDACFE6FF0E
:102E3000E1CFD9FFE2CFDAFFE652FC0EDBCFE9FFAC
:102E4000FD0EDBCFEAFF1A0EE926000EEA22EFCFD5
:102E5000DFFFDF5000D0E552E552E5CFDAFFE7CFE4
:102E6000D9FF1200D9CFE6FFDACFE6FFE1CFD9FFD5
:102E7000E2CFDAFFFC0EDBCFE9FFFD0EDBCFEAFF8E
:102E8000EECFE6FFEFCFE6FF74EC48F0E552E552F7
:102E9000FC0EDBCFE6FFFD0EDBCFE6FF74EC48F067
:102EA000E552E552E552E5CFDAFFE7CFD9FF120050
:102EB000D9CFE6FFDACFE6FFE1CFD9FFE2CFDAFFE5
:102EC000FC0EDBCFE9FFFD0EDBCFEAFF1C0EE9268F
:102ED000000EEA22EF5001E112D1F90EDB5001E0C1
:102EE00080D0FC0EDBCFE9FFFD0EDBCFEAFF1C0E2E
:102EF000E926000EEA22EF50E66EE66AFA0EDBCF14
:102F0000E6FFFB0EDBCFE6FFFC0EDBCFE9FFFD0E9D
:102F1000DBCFEAFF040EE926000EEA22EECFE6FF41
:102F2000EFCFE6FFA4EC47F0006E060EE15C02E294
:102F3000E16AE552E16E0050FC0EDBCFE9FFFD0EC9
:102F4000DBCFEAFF1C0EE926000EEA22EF50006EEE
:102F5000016AFC0EDBCFE9FFFD0EDBCFEAFF040EBA
:102F6000E926000EEA220050EE260150ED22FC0E6A
:102F7000DBCFE9FFFD0EDBCFEAFF040EE926000EF2
:102F8000EA22EECF00F0EFCF01F0FC0EDBCFE9FF3D
:102F9000FD0EDBCFEAFF020EE926000EEA22EECF9D
:102FA00002F0EFCF03F00250005C0350015818E329
:102FB000FC0EDBCFE9FFFD0EDBCFEAFFEECF00F02A
:102FC000EFCF01F0FC0EDBCFE9FFFD0EDBCFEAFF18
:102FD000040EE926000EEA2200C0EEFF01C0EDFF5C
:102FE0008ED0FC0EDBCFE9FFFD0EDBCFEAFF1C0E1F
:102FF000E926000EEA22EF50E66EE66AFA0EDBCF13
:10300000E6FFFB0EDBCFE6FFFC0EDBCFE9FFFD0E9C
:10301000DBCFEAFF060EE926000EEA22EECFE6FF3E
:10302000EFCFE6FFA4EC47F0006E060EE15C02E293
:10303000E16AE552E16E0050FC0EDBCFE9FFFD0EC8
:10304000DBCFEAFF1C0EE926000EEA22EF50006EED
:10305000016AFC0EDBCFE9FFFD0EDBCFEAFF060EB7
:10306000E926000EEA220050EE5E0150ED5AFC0EF9
:10307000DBCFE9FFFD0EDBCFEAFF060EE926000EEF
:10308000EA22EECF00F0EFCF01F0FC0EDBCFE9FF3C
:10309000FD0EDBCFEAFFEECF02F0EFCF03F00250E0
:1030A000005C035001582BE2FC0EDBCFE9FFFD0E64
:1030B000DBCFEAFF1C0EE926000EEA22EF50026E7B
:1030C000036AFC0EDBCFE9FFFD0EDBCFEAFF020E49
:1030D000E926000EEA220250EE5C006E0350EE5824
:1030E000016EFC0EDBCFE9FFFD0EDBCFEAFF060E23
:1030F000E926000EEA2200C0EEFF01C0EDFFFC0E43
:10310000DBCFE9FFFD0EDBCFEAFF1A0EE926000E4A
:10311000EA22EF2AE552E5CFDAFFE7CFD9FF120026
:10312000D9CFE6FFDACFE6FFE1CFD9FFE2CFDAFF72
:10313000FC0EDBCFE9FFFD0EDBCFEAFFEE50ED101A
:1031400001E17FD0FC0EDBCFE9FFFD0EDBCFEAFF14
:103150001C0EE926000EEA22EF50006E016AFC0EFA
:10316000DBCFE9FFFD0EDBCFEAFF060EE926000EFE
:10317000EA220050EE260150ED22FC0EDBCFE9FFE3
:10318000FD0EDBCFEAFF060EE926000EEA22EECFA7
:1031900000F0EFCF01F0FC0EDBCFE9FFFD0EDBCF3F
:1031A000EAFF020EE926000EEA22EECF02F0EFCF90
:1031B00003F00250005C0350015818E3FC0EDBCF13
:1031C000E9FFFD0EDBCFEAFFEECF00F0EFCF01F01D
:1031D000FC0EDBCFE9FFFD0EDBCFEAFF060EE92692
:1031E000000EEA2200C0EEFF01C0EDFFFC0EDBCFB7
:1031F000E9FFFD0EDBCFEAFF1C0EE926000EEA22F6
:10320000EF50E66EE66AFC0EDBCFE9FFFD0EDBCF8A
:10321000EAFF060EE926000EEA22EECFE6FFEFCF28
:10322000E6FFFA0EDBCFE6FFFB0EDBCFE6FFA4ECFA
:1032300047F0006E060EE15C02E2E16AE552E16EE3
:103240000050E552E5CFDAFFE7CFD9FF1200D9CF22
:10325000E6FFDACFE6FFE1CFD9FFE2CFDAFFF250A7
:10326000E66EF29EFC0EDBCFE9FFFD0EDBCFEAFF40
:103270001E0EE926000EEA22EFCF00F0000EE76EE8
:103280000018E8AE02D0003403D0E750D8800054D4
:1032900034E2FC0EDBCFE9FFFD0EDBCFEAFF110EBF
:1032A000E926000EEA22EF5026E0FC0EDBCFE9FF14
:1032B000FD0EDBCFEAFF110EE926000EEA22E9CF70
:1032C00000F0EACF01F000C0E6FF01C0E6FF40ECED
:1032D00020F0E552E552000902E0BFEC21F0FC0EBF
:1032E000DBCFE9FFFD0EDBCFEAFF1E0EE926000E65
:1032F000EA22EF0601D001D0B5D7FC0EDBCFE9FF03
:10330000FD0EDBCFEAFF1E0EE926000EEA22EF6873
:10331000E552E7AE02D0C00EF212F250E66EF29E17
:10332000FC0EDBCFE9FFFD0EDBCFEAFF1D0EE92629
:10333000000EEA22EFCF00F0000EE76E0018E8AEB4
:1033400002D0003403D0E750D880005434E2FC0EA1
:10335000DBCFE9FFFD0EDBCFEAFF080EE926000E0A
:10336000EA22EF5026E0FC0EDBCFE9FFFD0EDBCFBB
:10337000EAFF080EE926000EEA22E9CF00F0EACFC4
:1033800001F000C0E6FF01C0E6FF40EC20F0E5528E
:10339000E552000902E0BFEC21F0FC0EDBCFE9FFB3
:1033A000FD0EDBCFEAFF1D0EE926000EEA22EF0636
:1033B00001D001D0B5D7FC0EDBCFE9FFFD0EDBCF8E
:1033C000EAFF1D0EE926000EEA22EF68E552E7AE9D
:1033D00002D0C00EF212E552E5CFDAFFE7CFD9FFF7
:1033E0001200D9CFE6FFDACFE6FFE1CFD9FFE2CF77
:1033F000DAFFE652F250E66EF29EFC0EDBCFE9FFFA
:10340000FD0EDBCFEAFF1A0EE926000EEA22EF508E
:1034100002E0000E01D0010EDF6EE552E7AE02D0F1
:10342000C00EF212DF5000D0E552E552E5CFDAFFD0
:10343000E7CFD9FF1200D9CFE6FFDACFE6FFE1CF21
:10344000D9FFE2CFDAFFE652FC0EDBCFE9FFFD0E3B
:10345000DBCFEAFF1A0EE926000EEA22EF5002E067
:10346000000E01D0010EDF6EDF5000D0E552E552B4
:10347000E5CFDAFFE7CFD9FF1200D9CFE6FFDACFE9
:10348000E6FFE1CFD9FFE2CFDAFFE652F250E66E77
:10349000F29EFC0EDBCFE9FFFD0EDBCFEAFF1A0E3A
:1034A000E926000EEA22EFCF00F0FC0EDBCFE9FFA9
:1034B000FD0EDBCFEAFF1B0EE926000EEA22EF50DD
:1034C000005C02E0000E01D0010EDF6EE552E7AEB7
:1034D00002D0C00EF212DF5000D0E552E552E5CF27
:1034E000DAFFE7CFD9FF1200D9CFE6FFDACFE6FF48
:1034F000E1CFD9FFE2CFDAFFE652FC0EDBCFE9FFE6
:10350000FD0EDBCFEAFF1A0EE926000EEA22EFCF0E
:1035100000F0FC0EDBCFE9FFFD0EDBCFEAFF1B0E58
:10352000E926000EEA22EF50005C02E0000E01D016
:10353000010EDF6EDF5000D0E552E552E5CFDAFF35
:06354000E7CFD9FF1200E5
:0A354600D9CFE6FFDACFE6FFE1CFB0
:10355000D9FFE2CFDAFFE652E652E652E652E652F1
:10356000F80EDBCFE6FFF90EDBCFE6FFC1EC22F071
:10357000E552E552DE52F3CFDEFFF4CFDDFFDD5240
:10358000D950010FE96E000EDA20EA6EEE50ED1010
:1035900001E114D1F50EDBCFE6FFFA0EDBCFE6FF3B
:1035A000FB0EDBCFE6FF010EDBCFE6FF020EDBCF2B
:1035B000E6FFD9EC21F0006E050EE15C02E2E16A63
:1035C000E552E16E0050010EDBCFE9FF020EDBCFCA
:1035D000EAFF170EE926000EEA22030EEECFDBFF0C
:1035E000040EEDCFDBFFF80EDBCF02F0F90EDBCFE0
:1035F00003F00206000E035A010EDBCFE9FF020EB4
:10360000DBCFEAFF170EE926000EEA220250EE2475
:10361000006E0350EE20016E010EDBCFE9FF020EBB
:10362000DBCFEAFF1A0EE926000EEA2200C0EEFF09
:1036300001C0EDFFF60EDBCFE6FFF70EDBCFE6FFB6
:10364000FC0EDBCFE6FFFD0EDBCFE6FF030EDBCF8C
:10365000E6FF040EDBCFE6FF4DEC29F0026E060E0E
:10366000E15C02E2E16AE552E16E0250F3CF00F064
:10367000F4CF01F0010EDBCFE9FF020EDBCFEAFF52
:1036800000C0EEFF01C0EDFFF250E66EF29E0E01AB
:10369000822B0E01820509E1010EDBCF80FE020EB6
:1036A000DBCF81FE77EC22F015D00E01875112E1BD
:1036B00080CEE9FF81CEEAFF160EEB50006EF50ECC
:1036C000DB50D880005406E3010EDBCF80FE020EF3
:1036D000DBCF81FE010EDBCFE9FF020EDBCFEAFF7D
:1036E000160EE926000EEA22EFCF00F00E018551FA
:1036F000D88000540CE2010EDBCFE9FF020EDBCFD5
:10370000EAFF160EE926000EEA22EFCF85FE0E0133
:103710008C2B010EDBCFE9FF020EDBCFEAFF160E8A
:10372000E926000EEA22EFCF00F00E018651D88084
:1037300000540CE2010EDBCFE9FF020EDBCFEAFF03
:10374000160EE926000EEA22EFCF86FE010EDBCF31
:10375000E9FF020EDBCFEAFF020EE926000EEA22A5
:10376000E9CF00F0EACF01F000C0E6FF01C0E6FFBC
:10377000010EDBCFE9FF020EDBCFEAFF160EE926D2
:10378000000EEA22EF50090DF3CF02F0F4CF03F060
:10379000BB0E02260D0E032202C0E6FF03C0E6FFA9
:1037A00056EC3EF0E552E552E552E552010EDF6E71
:1037B000E552E7AE02D0C00EF21201D0DF68DF049E
:1037C00025E1D950F30FE96EFF0EDA20EA6EEE50D4
:1037D000ED100CE0F30EDBCFE9FFF40EDBCFEAFFD8
:1037E000010EDBCFEEFF020EDBCFEDFF0E018751A6
:1037F0000DE080CEE9FF81CEEAFF160EEB50006EA1
:10380000F50EDB50005C02E21AEC2CF0DF5000D029
:10381000006E050EE15C02E2E16AE552E16E0050E5
:10382000E552E5CFDAFFE7CFD9FF1200D9CFE6FFA7
:10383000DACFE6FFE1CFD9FFE2CFDAFFE652E65278
:10384000E652020EDB6AD950FC0FE96EFF0EDA2059
:10385000EA6E000ED880EE54000EED5475E2C1D829
:10386000FC0EDB500E0183250001006EFD0EDB50C7
:103870000E0184210001016E00C0DEFF01C0DDFFEA
:1038800080CEE9FF81CEEAFF020EE926000EEA2291
:10389000E9CF00F0EACF01F000C0E6FF01C0E6FF8B
:1038A000D0EC3FF0E552E55280CEE9FF81CEEAFF51
:1038B000020EE926000EEA22DECFEEFFDDCFEDFF9D
:1038C000DECF00F0DDCF01F00E018351005C8451AA
:1038D00001581BE280CEE9FF81CEEAFF020EE92605
:1038E000000EEA22E9CF00F0EACF01F000C0E6FFC7
:1038F00001C0E6FFF3CDE6FFF4CDE6FFEEEC3EF0CF
:10390000E552E552E552E5521AD080CEE9FF81CE6C
:10391000EAFF020EE926000EEA22E9CF00F0EACF24
:1039200001F000C0E6FF01C0E6FFF1CDE6FFF2CDF9
:10393000E6FFEEEC3EF0E552E552E552E55254D892
:10394000E76E020EE7CFDBFF020EDB5002E11AEC5E
:103950002CF0E552E552E552E552E5CFDAFFE7CF2C
:10396000D9FF1200D9CFE6FFDACFE6FFE1CFD9FFCA
:10397000E2CFDAFFE652B90EE66E0D0EE66EE66AAB
:10398000000EE66EE66AE66A010EE66ED60EE66E9A
:10399000990EE66E860EE66E430EE66ED4DD006E80
:1039A0000B0EE15C02E2E16AE552E16E0050DF6E6F
:1039B000DF040BE1F29E0E01010E876F836B846BB7
:1039C00067EC2BF0000901E000D0E552E552E5CFAD
:1039D000DAFFE7CFD9FF1200F29E0E01876B19EFD5
:1039E0002CF00E01882B1200D9CFE6FFDACFE6FFCC
:1039F000E1CFD9FFE2CFDAFFE652E652E652E652D5
:103A0000020EDB6AF250E66EF29E0E0188070E018E
:103A1000885101E0C6D00E018251000801E3C1D0F7
:103A2000030EDB6A0D01F5510DE0FACDE9FFFBCD88
:103A3000EAFF060EE926000EEA22EECF00F0EFCFF5
:103A400001F002D0006A016A00C0DEFF01C0DDFFA4
:103A50000050011001E185D0DECFE9FFDDCFEAFFA4
:103A60000C0EE926000EEA22E9CF00F0EACF01F0C1
:103A700000C0E6FF01C0E6FFD0EC3FF0E552E552A2
:103A8000DECFE9FFDDCFEAFF020EE926000EEA22D3
:103A9000E9CF00F0EACF01F000C0E6FF01C0E6FF89
:103AA000D0EC3FF0E552E552DECFE9FFDDCFEAFF93
:103AB000160EE926000EEA22EFCF00F00E01865125
:103AC000D88000540AE2DECFE9FFDDCFEAFF160E10
:103AD000E926000EEA22EFCF86FEDECFE9FFDDCF3A
:103AE000EAFF020EE926000EEA22E9CF00F0EACF53
:103AF00001F000C0E6FF01C0E6FFDECFE9FFDDCF49
:103B0000EAFF160EE926000EEA22EF50090DF3CF68
:103B100002F0F4CF03F0BB0E02260D0E032202C00A
:103B2000E6FF03C0E6FF56EC3EF0E552E552E552F3
:103B3000E552DECFE9FFDDCFEAFF160EE926000EE3
:103B4000EA22EFCF00F080CEE9FF81CEEAFF160E29
:103B5000EB50005C05E3010EF36E030EF3CFDBFFC9
:103B600061D70E01895100080DE20E01895100084C
:103B700004E258D80E018907F8D7010EF36E030E40
:103B8000F3CFDBFF030EDB0403E00E018A0509E13E
:103B9000010EF36E020EF3CFDBFF0E018A6B1AECFF
:103BA0002CF0E552E7AE02D0C00EF212020EDB504E
:103BB00000D0006E040EE15C02E2E16AE552E16EC3
:103BC0000050E552E5CFDAFFE7CFD9FF1200D9CF99
:103BD000E6FFDACFE6FFE1CFD9FFE2CFDAFFE65228
:103BE000E652F250E66EF29E83CEDEFF84CEDDFF1B
:103BF000E552E7AE02D0C00EF212DECF00F0DDCF0C
:103C000001F000C0F3FF01C0F4FF00D0E552E5521F
:103C1000E552E5CFDAFFE7CFD9FF12000E0182515E
:103C200000D01200D9CFE6FFDACFE6FFE1CFD9FF0F
:103C3000E2CFDAFFE652E652E652E6520E01885132
:103C400001E0E0D0832B000E8423835184110DE129
:103C5000F1CDDEFFF2CDDDFFF3CDF1FDF4CDF2FDD0
:103C6000DECFF3FDDDCFF4FD8B2BF1CDE9FFF2CDFF
:103C7000EAFFEF50000919E0F1CDE9FFF2CDEAFFCC
:103C8000030EE926000EEA22020EE926000EEA22C1
:103C9000EE50EFCFEAFFE96E060EE926000EEA22AB
:103CA000EECF00F0EFCF01F002D0006A016A020E01
:103CB00000C0DBFF030E01C0DBFF0050011001E17B
:103CC000A0D0020EDBCFE9FF030EDBCFEAFF020E2E
:103CD000E926000EEA22EECF00F0EFCF01F00E0150
:103CE0000050835D0150845901E28BD0020EDBCF7E
:103CF000E9FF030EDBCFEAFF020EE926000EEA22FF
:103D0000E9CF00F0EACF01F000C0E6FF01C0E6FF16
:103D1000D0EC3FF0E552E552020EDBCFE9FF030E97
:103D2000DBCFEAFF0C0EE926000EEA22080EE92698
:103D3000000EEA22EE50ED1016E0020EDBCFE9FF96
:103D4000030EDBCFEAFF0C0EE926000EEA22E9CFD4
:103D500000F0EACF01F000C0E6FF01C0E6FFD0ECC2
:103D60003FF0E552E552020EDBCFE9FF030EDBCF59
:103D7000EAFF160EE926000EEA22EFCF00F00E0150
:103D80008651D88000540CE2020EDBCFE9FF030E0F
:103D9000DBCFEAFF160EE926000EEA22EFCF86FE01
:103DA000020EDBCFE9FF030EDBCFEAFF020EE926AE
:103DB000000EEA22E9CF00F0EACF01F000C0E6FFF2
:103DC00001C0E6FF020EDBCFE9FF030EDBCFEAFF07
:103DD000160EE926000EEA22EF50090DF3CF02F08D
:103DE000F4CF03F0BB0E02260D0E032202C0E6FF45
:103DF00003C0E6FF56EC3EF0E552E552E552E552CF
:103E000034D701D0892B040EE15C02E2E16AE5526D
:103E1000E16EE552E5CFDAFFE7CFD9FF1200D9CF47
:103E2000E6FFDACFE6FFE1CFD9FFE2CFDAFFE652D5
:103E3000E6520E01885103E0010E8A6F7CD0865154
:103E4000090DF3CFE9FFF4CFEAFFBB0EE9260D0E13
:103E5000EA22EF5002E18607F2D78651090DF3CF2F
:103E600000F0F4CF01F0BB0E00260D0E012200C0C1
:103E7000DEFF01C0DDFFDECFE9FFDDCFEAFFEE525E
:103E8000EE50EFCFEAFFE96E020EE926000EEA22BD
:103E9000EECF00F0EFCF01F0DECFE9FFDDCFEAFF9C
:103EA000EE5200C0EEFF01C0EDFFDECFE9FFDDCF37
:103EB000EAFFEE52EECF00F0EFCF01F0DECFE9FFE8
:103EC000DDCFEAFF030EE926000EEA22E9CF02F079
:103ED000EACF03F00250001802E1035001181AE182
:103EE000DECFE9FFDDCFEAFFEE52EE50EFCFEAFF83
:103EF000E96E020EE926000EEA22EECF00F0EFCFC7
:103F000001F0DECFE9FFDDCFEAFFEE5200C0EEFFA9
:103F100001C0EDFFDECFE9FFDDCFEAFFEE52EE504C
:103F2000EFCFEAFFE96E060EE926000EEA22EECF99
:103F300080FEEDCF81FEE552E552E552E5CFDAFF96
:103F4000E7CFD9FF1200D9CFE6FFDACFE6FFE1CF06
:103F5000D9FFE2CFDAFFE652E65280CEE9FF81CE0A
:103F6000EAFF0C0EE926000EEA22E9CF00F0EACFC4
:103F700001F000C0E6FF01C0E6FFFC0EDBCFE6FF6C
:103F8000FD0EDBCFE6FFEEEC3EF0E552E552E552EA
:103F9000E55280CEE9FF81CEEAFF020EE926000E4F
:103FA000EA22E9CF00F0EACF01F000C0E6FF01C04D
:103FB000E6FFD0EC3FF0E552E552FA0EDB500E0181
:103FC00083250001006EFB0EDB500E0184210001F1
:103FD000016E00C0DEFF01C0DDFF80CEE9FF81CEB3
:103FE000EAFF020EE926000EEA22DECFEEFFDDCF69
:103FF000EDFFDECF00F0DDCF01F00E018351005C5C
:10400000845101581BE280CEE9FF81CEEAFF020E07
:10401000E926000EEA22E9CF00F0EACF01F000C065
:10402000E6FF01C0E6FFF3CDE6FFF4CDE6FFEEECE0
:104030003EF0E552E552E552E5521AD080CEE9FF56
:1040400081CEEAFF020EE926000EEA22E9CF00F057
:10405000EACF01F000C0E6FF01C0E6FFF1CDE6FFC8
:10406000F2CDE6FFEEEC3EF0E552E552E552E552C8
:10407000E552E552E552E5CFDAFFE7CFD9FF12006E
:10408000D9CFE6FFDACFE6FFE1CFD9FFE2CFDAFF03
:10409000E652E652E652FC0EDBCFE9FFFD0EDBCF27
:1040A000EAFFEF501BE0FC0EDBCFE9FFFD0EDBCF9C
:1040B000EAFF030EE926000EEA22020EE926000EB0
:1040C000EA22EE50EFCFEAFFE96E060EE926000E77
:1040D000EA22EECF00F0EFCF01F002D0006A016AD1
:1040E00000C0DEFF01C0DDFFDECFE9FFDDCFEAFF6C
:1040F0000C0EE926000EEA22E9CF00F0EACF01F02B
:1041000000C0E6FF01C0E6FFD0EC3FF0E552E5520B
:104110000E0188515AE1DECFE9FFDDCFEAFF020E42
:10412000E926000EEA22E9CF00F0EACF01F000C054
:10413000E6FF01C0E6FFD0EC3FF0E552E552DECFEE
:10414000E9FFDDCFEAFF160EE926000EEA22EFCFE7
:1041500000F00E018651D88000540AE2DECFE9FF5C
:10416000DDCFEAFF160EE926000EEA22EFCF86FE2B
:10417000DECFE9FFDDCFEAFF020EE926000EEA22DC
:10418000E9CF00F0EACF01F000C0E6FF01C0E6FF92
:10419000DECFE9FFDDCFEAFF160EE926000EEA22A8
:1041A000EF50090DF3CF02F0F4CF03F0BB0E02265F
:1041B0000D0E032202C0E6FF03C0E6FF56EC3EF000
:1041C000E552E552E552E5521AD0DECFE9FFDDCFE8
:1041D000EAFF0C0EE926000EEA22E9CF00F0EACF52
:1041E00001F000C0E6FF01C0E6FFF50EE66E0D0E21
:1041F000E66E56EC3EF0E552E552E552E552DECF72
:10420000E9FFDDCFEAFF160EE926000EEA22EFCF26
:1042100000F080CEE9FF81CEEAFF160EEB50005C85
:1042200006E3010EF36E020EF3CFDBFF02D0020EA7
:10423000DB6ADB5000D0E552E552E552E552E5CFAE
:10424000DAFFE7CFD9FF1200D9CFE6FFDACFE6FFDA
:10425000E1CFD9FFE2CFDAFFFC0EDBCFE9FFFD0EA5
:10426000DBCFEAFF8BCEEFFFFC0EDBCFE9FFFD0ECD
:10427000DBCFEAFFEE5283CEEEFF84CEEDFFE552B8
:10428000E5CFDAFFE7CFD9FF1200D9CFE6FFDACFCB
:10429000E6FFE1CFD9FFE2CFDAFFE652F250E66E59
:1042A000F29EFC0EDBCFE9FFFD0EDBCFEAFFEF5005
:1042B0000E018B5D14E0FC0EDBCFE9FFFD0EDBCFC2
:1042C000EAFFEE52EECF00F0EFCF01F00E0100500A
:1042D000835D0150845903E3010EDF6E42D0FC0E72
:1042E000DBCFE9FFFD0EDBCFEAFFEE520E01EE5011
:1042F000835D006EEE508459016EFA0EDBCFE9FF4C
:10430000FB0EDBCFEAFFEECF02F0EFCF03F002505F
:10431000005C0350015823E2FC0EDBCFE9FFFD0EE9
:10432000DBCFEAFFEE520E01EE50835D006EEE50E1
:104330008459016EFA0EDBCFE9FFFB0EDBCFEAFFFB
:104340000050EE5E0150ED5AFC0EDBCFE6FFFD0E95
:10435000DBCFE6FF79DFE552E552DF6A02D0010EDE
:10436000DF6EE552E7AE02D0C00EF212DF5000D091
:10437000E552E552E5CFDAFFE7CFD9FF12000E0193
:10438000010E8A6F1200D9CFE6FFDACFE6FFE1CF48
:10439000D9FFE2CFDAFFF4D80D01BB51010802E2E8
:1043A0001AEC2CF0F8D7E552E5CFDAFFE7CFD9FFCA
:1043B0001200D9CFE6FFDACFE6FFE1CFD9FFE2CF97
:1043C000DAFFFC0EDBCFE9FFFD0EDBCFEAFF190EB3
:1043D000E926000EEA22EF6A040EF36EF90EDBCF37
:1043E000F4FFF350F45C05E3030EF36EF90EF3CF24
:1043F000DBFFFC0EDBCFE9FFFD0EDBCFEAFF160E85
:10440000E926000EEA22F90EDBCFEFFFFC0EDBCF30
:10441000E9FFFD0EDBCFEAFF020EE926000EEA22DD
:10442000E9CF00F0EACF01F000C0E6FF01C0E6FFEF
:104430003EEC3EF0E552E552FC0EDBCFE9FFFD0E0F
:10444000DBCFEAFF0C0EE926000EEA22E9CF00F0EE
:10445000EACF01F000C0E6FF01C0E6FF3EEC3EF00F
:10446000E552E552FC0EDBCFE9FFFD0EDBCFEAFFA4
:10447000020EE926000EEA22060EE926000EEA22C6
:10448000FC0EDBCFEEFFFD0EDBCFEDFFF90EDB50B8
:10449000006E016A040ED8800056000E0156FC0E14
:1044A000DBCFE9FFFD0EDBCFEAFF0C0EE926000EA5
:1044B000EA2200C0EEFF01C0EDFFFC0EDBCFE9FFFA
:1044C000FD0EDBCFEAFF0C0EE926000EEA22060EF7
:1044D000E926000EEA22FC0EDBCFEEFFFD0EDBCF5D
:1044E000EDFFE552E5CFDAFFE7CFD9FF1200D9CFD4
:1044F000E6FFDACFE6FFE1CFD9FFE2CFDAFFE652FF
:10450000DF6A040EDF5C14E2DF50090DF3CF00F028
:10451000F4CF01F0BB0E00260D0E012200C0E6FF15
:1045200001C0E6FFC4EC3DF0E552E552DF2AE9D7D1
:10453000DF0EE66E0D0EE66EC4EC3DF0E552E55280
:10454000E80EE66E0D0EE66EC4EC3DF0E552E55267
:10455000F50EE66E0D0EE66EC4EC3DF0E552E5524A
:104560000D01DF0EF16F0D0EF26FE80EF36F0D0E01
:10457000F46FE552E552E5CFDAFFE7CFD9FF12003D
:104580001200D9CFE6FFDACFE6FFE1CFD9FFE2CFC5
:10459000DAFFE652E6521C0EE66EE66A1CEC48F0C4
:1045A000E552E552F3CFDEFFF4CFDDFFD9CFE9FFCF
:1045B000DACFEAFFEE50ED104EE0FC0EDBCFE6FF67
:1045C000FD0EDBCFE6FF1CEC48F0E552E552F3CFE1
:1045D00000F0F4CF01F0DECFE9FFDDCFEAFF170EE8
:1045E000E926000EEA2200C0EEFF01C0EDFFDECF9B
:1045F000E9FFDDCFEAFF170EE926000EEA22EE50B2
:10460000ED100BE1DECFE6FFDDCFE6FF74EC48F006
:10461000E552E552DE6ADD6A1ED0FC0EDBCFE6FF16
:10462000FD0EDBCFE6FFA50EE66EDECFE9FFDDCFA8
:10463000EAFF170EE926000EEA22EECFE6FFEFCFE3
:10464000E6FFCFEC47F0006E050EE15C02E2E16AA6
:10465000E552E16E0050DECF00F0DDCF01F000C08A
:10466000F3FF01C0F4FF00D0E552E552E552E5CF7B
:08467000DAFFE7CFD9FF1200C9
:0846780078EC28F0FB0EDBCF0B
:10468000F3FFDB06F35000090AE0C6EC28F0FA0E4F
:1046900031EC29F0F3E1011CF1E1010E01D0000E33
:1046A000A7EF28F078EC28F03B0EE12402E3E16864
:1046B000E652E16E010EDB6A020EDB6AF90EDBCF19
:1046C000F6FFFA0EDBCFF7FFFB0EDBCFF8FF08009B
:1046D000F550DF6EDF5002E1CBEF27F0250EDF5CF7
:1046E00002E0BEEF27F0030EDB6A040EDB6A050E64
:1046F000DB6A060EDB6A070EDB6AE0EC27F02D0EA4
:10470000DF5C0CE02B0EDF5C09E0200EDF5C06E0D6
:10471000230EDF5C03E0300EDF5C1AE1DF50300A6D
:1047200014E0130A0FE0030A0AE00B0A05E0060A88
:10473000E4E1030EDB80E1D7030EDB82DED7030E5C
:10474000DB84DBD7030EDB86D8D7030EDB88D5D717
:104750002A0EDF5C1BE1DCEC27F02AEC28F010E0ED
:10476000030EDB8024682568130EDBCF29F0140EBE
:10477000DBCF2AF069EC39F0040E22C0DBFF03D056
:10478000130E13EC28F0E0EC27F00BD0090EDB6AD7
:1047900081EC28F003E0F5EC28F0FAD7090E13ECD1
:1047A00028F0030EDBB0DB982E0EDF5C1BE1E0ECA3
:1047B00027F02A0EDF5C0BE1DCEC27F02AEC28F076
:1047C00003E1130E65EC28F0E0EC27F00BD0090EA6
:1047D000DB6A81EC28F003E0F5EC28F0FAD7090E4B
:1047E00065EC28F0680EDF5C07E1E0EC27F0680E6E
:1047F000DF5C1DE1030E18D0740EDF5C17E07A0E4B
:10480000DF5C14E0480EDF5C06E0540EDF5C03E082
:104810005A0EDF5C02E1020E07D06C0EDF5C03E093
:104820006A0EDF5C04E1010EB8EC28F0C9DBDF5052
:104830006E0A01E17FD31E0A01E192D1200A01E153
:104840008FD13F0A01E149D11A0A01E146D10D0A8F
:1048500001E143D1200A01E140D13A0A01E13DD111
:10486000200A01E13AD1260A01E135D10D0A01E120
:1048700032D11A0A01E1D9D0200A4AE0300A1FE0F9
:10488000460A0EE0250A01E083D3D950F90FE96EFC
:10489000FF0EDA20EA6E010EEE5E000EEE5AEE5AC0
:1048A000C6EC28F0250EE66E95DB03E1011C01E164
:1048B00069D3C2EC28F001E26BD3DB2A69D3080E7E
:1048C000DB6A040EDB50010806E2040EDB048AEC0E
:1048D00028F0DB508BDB080EDB5009E0030EDB50C9
:1048E000010B05E172DB01E04DD3080EDB6A64DBEE
:1048F000EFCFDFFF3AEC29F003E1011C01E142D3E5
:10490000C2EC28F001E3DB2A60DB01E141D33AD3BA
:10491000070EDB5002080FE106EC29F0030ECDEC88
:1049200028F00E0EEECFDBFF0F0EEECFDBFF100EEA
:10493000EECFDBFF20D0F70EDBCF03F0F80EDBCF9E
:1049400004F0020E035E000E045AF70E03C0DBFFF4
:10495000F80E04C0DBFF03C0E9FF04C0EAFFBDECB2
:1049600028F0026A0E0E00C0DBFF0F0E01C0DBFF55
:10497000100E02C0DBFF0E0EDBCFE6FF0F0EDBCF0B
:10498000E6FF100EDBCFE6FFF7EC47F0E552E5520D
:10499000E552130E23C0DBFF140E24C0DBFF060E0E
:1049A000DB5005E0130E01EC29F001E26ADB25EC97
:1049B00029F002E2130E37DBE8EC28F006E0040EE3
:1049C00001EC29F002E2050E2EDB030EDBB005D070
:1049D000FCDA01E0D7D2080EDB6A090EDB6A0E0EA4
:1049E000DBCFF6FF0F0EDBCFF7FF100EDBCFF8FFAC
:1049F0000800F550DF6EDF5014E02BEC29F011E2D7
:104A00003AEC29F003E1011C01E1BCD2BBDB01E37C
:104A1000DB2A090EDB2AD9500E0FE96E000ECBDB24
:104A2000E7D7D3DA01E1B4D2ADD2C6DA110EEECFB8
:104A3000DBFF120EEDCFDBFF110EDBCFE6FF120E18
:104A4000DBCFE6FFE9EC47F0E552E552130EF3CF7A
:104A5000DBFF140EF4CFDBFF060EDB5004E0130E79
:104A6000D0DB01E20EDB25EC29F002E2130EDBDAEB
:104A7000AFDB05E0040EC5DB02E2050ED4DA030E5F
:104A8000DBB005D0A2DA01E07DD2080EDB6A090EA8
:104A9000DB6A110EDBCFE9FF120EDBCFEAFFEFCFAF
:104AA000DFFFDF5014E0D7DB12E2E4DB03E1011C9F
:104AB00001E168D267DB01E3DB2A090EDB2A110E74
:104AC000DB2ADBCFE9FF120EE8E3DB2AE6D77DDA4B
:104AD00001E15ED257D2030EDB8E070EDB0410E13C
:104AE00095DB040E5ADB0A0EEECFDBFF0B0EEECF8A
:104AF000DBFF0C0EEECFDBFF0D0EEECFDBFF6CD03D
:104B0000070EDB5003082CE1030EDBAE0DD0B2DA4A
:104B1000020E76DAEFCF00F0016A026A036A00AE95
:104B200039D00168026835D0F70EDBCF01F0F80EFE
:104B3000DBCF02F0020E015E000E025AF70E01C03A
:104B4000DBFFF80E02C0DBFF01C0E9FF02C0EAFF95
:104B5000EFCF00F00A0E00C0DBFF0B0EDB6A38D08F
:104B6000070EDB50020809E1030EDBAE04D059DB6F
:104B700002AE10D00ED055DB0DD0030EDBAE12D03E
:104B800079DA020E3DDAF9DA026A036A01AE02D07E
:104B900002680368E2DA0C0E02C0DBFF0D0E03C0F0
:104BA000DBFF1AD0F70EDBCF02F0F80EDBCF03F0FD
:104BB000020E025E000E035AF70E02C0DBFFF80E73
:104BC00003C0DBFF02C0E9FF03C0EAFFD6DAC5DAA3
:104BD0000C0EDB6A0D0EDB6A060EDB5005E1010EE2
:104BE000F36E050EF3CFDBFF150EDB6A160EDB6AE4
:104BF000D950370F006E000EDA20016E390E00C05A
:104C0000DBFF3A0E01C0DBFF380EDB6A080EDB6A01
:104C10000A0EAEDADF50780A12E0200A10E0280A05
:104C20000CE0200A0AE03F0A06E00D0A02E0200A32
:104C300008E1020E05D0080E03D0080EDF26100E84
:104C400097DA030EDBBE02D0DB92DB94DB50800BE5
:104C500024E08ADAD890030EEB50000A08E6000E32
:104C6000EE5C000EEE58000EEE58000EEE5815E207
:104C700013DA2768286829682A68B5EC4AF00A0E12
:104C80001EC0DBFF0B0E1FC0DBFF0C0E20C0DBFFC6
:104C90000D0E21C0DBFF2D0E08D0030EDBA202D0CB
:104CA0002B0E03D0DBA408D0200EF36E170EF3CF2B
:104CB000DBFF150EDB2A02D0170EDB6A050EDB5078
:104CC00003E1B7D901E189D0A20E006E9A0E016E00
:104CD000000E026E070EDBCF03F0046A056A066A57
:104CE00003C027F004C028F005C029F006C02AF050
:104CF000D3D9B5EC4BF000501E24F36E01501F20A9
:104D0000F46E02502020F86EF4CFF7FFF3CFF6FFD9
:104D10000800090EF5CFDBFF580EDF5C0FE1610ED6
:104D2000F36E090E7BD90AE3200E006E090EDBCF6D
:104D3000E7FF0050E75E090EE7CFDBFF070EDBCF92
:104D400000F0016A026A036A0FDA00C027F001C0AE
:104D500028F002C029F003C02AF0EECF22F0EECFF7
:104D600023F0EECF24F0EFCF25F0B5EC4BF025C0CB
:104D7000EDFF24C0EDFF23C0EDFF22C0EFFF390E91
:104D8000DBCFE9FFDB063A0EDBCFEAFF01E2DB0611
:104D9000090EDBCFEFFF150EDB2A4BD995E1030E91
:104DA000DBA61DD06F0EDF5C06E1C1D918E3150E3E
:104DB000DB285BDA14D0780EDF5C09E0580EDF5C8C
:104DC00006E0620EDF5C03E0420EDF5C08E1020EEB
:104DD000F36E160EF3CFDBFF02D0150EDB6A030E67
:104DE000DB50100B0EE0040EDBCF00F0050EDB50A5
:104DF000D880005406E2060EDB5003E1040EDB50BF
:104E000034DA95D90AE2050EDBCFE7FF150EDB5049
:104E1000E75E050EE7CFDBFF02D0050EDB6A040E6E
:104E2000DBCF00F0160E45D9D880005414E2160EE0
:104E3000DBCFE6FF150EDBCFE6FF040EDBCFE6FF90
:104E4000050EDB50E552E75CE552D880E754E552A9
:104E5000D880E7545FD9030EDB50010B0BE1080E3D
:104E6000DB5008E0B2D801E08DD0080EDB50BED890
:104E7000080EDB6A170EDB5007E088D9170EF1D950
:104E800003E1011C01E17ED0160EDB5016E07ED955
:104E9000300EE66E9FD802E1011C74E077D9DFCFB7
:104EA000E6FFFFEC49F0E552E552E552F4CF01F0A0
:104EB0000001F31C02E1011C65E0050EDBCF00F0F0
:104EC000160EDB50D880005409E2050EDBCFE7FF59
:104ED000160EDB50E75E050EE7CFDBFF300EE66E09
:104EE000050ECBD94FE1390EDB2ADBCFE9FF3A0EB5
:104EF00001E3DB2ADBCFEAFF090EEFCFDBFFDB505C
:104F00000EE044D9090EADD902E1011C3BE0390E97
:104F1000DB2ADBCFE9FF3A0EEDE3DB2AEBD755D8EE
:104F200031E1160EDBCFE6FF080EC3D8E552E724C9
:104F30005DD82ED0070EDB50030A1CE0010A14E0F6
:104F4000030A07E07BD9DBCFEEFF020EDBCFEDFFDC
:104F50001FD0F5D8056A03AE02D0046805682CD8C6
:104F6000BCD805C0EEFF14D0EAD803BE046824D82C
:104F7000B4D80ED063D9DBCFEFFF0AD07BD905E1DF
:104F8000011C03E1F368F46810D0FCD801E3DB2ACC
:104F900079D967EF23F0010EDBCF00F0020EDBCFF3
:104FA00001F000C0F3FF01C0F4FF3B0EE15C02E240
:104FB000E16AE552E16ECBD029D9020ECDEF28F09F
:104FC00061D90800F550DF6E1200200EE66E080E63
:104FD0003DEF29F0FFEC49F0E552E552E552F3CF01
:104FE00000F0F4CF01F00001F31C1200006E016A22
:104FF000D950010F4DD90050EE260150ED2212007C
:10500000045E000E055AF70E04C0DBFFF80E05C063
:10501000DBFF04C0E9FF05C0EAFF1200DBCFF4FFAD
:10502000F350F45C1200DB50E76E040EE7CFDBFFB9
:1050300012000A0EDBCF00F00B0EDBCF01F00C0EDE
:10504000DBCF02F00D0EDBCF03F000500110021099
:1050500003101200130EEECFDBFF140EEDCFDBFFBB
:10506000130EDBCF00F0140EDBCF01F00001800E39
:1050700001141200F70EDBCF04F0F80EDBCF05F0C1
:105080001200050EDB50E66ED950130F01D9E55220
:10509000E750EE6EED6A12000A0EDBCF22F00B0E27
:1050A000DBCF23F00C0EDBCF24F00D0EDBCF25F091
:1050B0001200DBCFE6FF150EDBCFE6FF050EDB505F
:1050C000E552E724E552E7241200DB50CED8010E6A
:1050D000F36E060EF3CFDBFF1200EE50EFCFEAFFC8
:1050E000E96E02C0EEFF03C0EEFF04C0EEFF120047
:1050F000D9CFE6FFDACFE6FFE1CFD9FFE2CFDAFF83
:105100001200DFCFE6FFE66AFBEC4CF0E552E55219
:10511000F3501200E76E080EE7CFDBFF1200EECF70
:1051200000F0EECF01F0EFCF02F0036A1200050E9F
:10513000DBCF00F0150EDB50D88000541200010EBA
:10514000DBCF02F0020EDBCF03F0046A1200E5525F
:10515000E5CFDAFFE7CFD9FF12000A0E00C0DBFF70
:105160000B0E01C0DBFF1200D9500A0F48EF29F0E7
:10517000F36E070EF3CFDBFF1200EECF00F0EFCFA0
:1051800001F01200010EDB2A020E1200FC0EDBCF32
:10519000E6FFFD0EDBCFE6FF1200005E000E015AB7
:1051A000F70E00C0DBFFF80E01C0DBFF00C0E9FF17
:1051B00001C0EAFF1200DA20EA6EEF2AEECFF6FF16
:1051C000000EEF22EECFF7FFEF22EECFF8FF120036
:1051D000040EDBCFE6FF130EDB50E552E75C9ADFEF
:1051E000DB5004DF060EDB501200090EDB500A0D07
:1051F000F350DF24D00FE76E090EE7CFDBFFE0EFBF
:1052000027F0DB50F36E050E0EEF28F0F70EDBCF24
:1052100000F0F80EDBCF01F01200DFCFE6FFEAEF7F
:1052200027F028DF030EECDE8FEF28F03CEC23F0B4
:10523000E552E552E552E55200091200BDDEEE509E
:10524000EFCFEAFFE96E010E1200130EDB50F36E92
:10525000040E0EEF28F0040EDB50F36E090E0EEF75
:1052600028F0DBCFE6FFEAEF27F0E76E050EE7CF89
:10527000DBFF12008BDF0DEF29F0DBCFE6FF86DFCF
:1052800016EF29F0D950F90FE96EFF0EDBEF28F089
:0A529000E96E000EDA20EA6E12004B
:06529A00D9CFE6FFDACFD8
:1052A000E6FFE1CFD9FFE2CFDAFFE652E652E6525F
:1052B000E652E652F80EDBCF00F0F90EDBCF01F03C
:1052C000000E00C0DFFF010E01C0DBFF020EDB6A33
:1052D000030EDB6AD9CFE9FFDACFEAFFEECF00F0A9
:1052E000EECF01F0EECF02F0EFCF03F00050E66E0C
:1052F000FC0EDBCFE9FFFD0EDBCFEAFFE552E75006
:10530000EF6EFC0EDB2AFD0E01E3DB2AD9CFE9FFAD
:10531000DACFEAFF080EE76ED890030EEB32020EEA
:10532000EB32010EEB32EF32E706F6E1D9CFE9FFBF
:10533000DACFEAFFEECF00F0EECF01F0EECF02F0D1
:10534000EFCF03F00050E66EFC0EDBCFE9FFFD0E61
:10535000DBCFEAFFE552E750EF6EFC0EDB2AFD0ED5
:1053600001E3DB2AFC0EDBCFE9FFFD0EDBCFEAFF1A
:10537000440EEF6EFC0EDB2AFD0E01E3DB2AFC0E71
:10538000DBCFE9FFFD0EDBCFEAFF660EEF6EFC0E12
:10539000DB2AFD0E01E3DB2AFC0EDBCFE9FFFD0E6D
:1053A000DBCFEAFFCC0EEF6EFC0EDB2AFD0E01E335
:1053B000DB2AFC0EDBCFE9FFFD0EDBCFEAFFC00EE0
:1053C000EF6EFC0EDB2AFD0E01E3DB2AFC0EDBCFC9
:1053D000E9FFFD0EDBCFEAFF110EEF6EFC0EDB2ABC
:1053E000FD0E01E3DB2AFC0EDBCFE9FFFD0EDBCF78
:1053F000EAFF220EEF6EFC0EDB2AFD0E01E3DB2A34
:10540000FC0EDBCFE9FFFD0EDBCFEAFF330EEF6EC4
:10541000FC0EDB2AFD0E01E3DB2AFC0EDBCFE9FFED
:10542000FD0EDBCFEAFF440EEF6EFC0EDB2AFD0E15
:1054300001E3DB2AFC0EDBCFE9FFFD0EDBCFEAFF49
:10544000550EEF6EFC0EDB2AFD0E01E3DB2AFC0E8F
:10545000DBCFE9FFFD0EDBCFEAFF660EEF6EFC0E41
:10546000DB2AFD0E01E3DB2AFC0EDBCFE9FFFD0E9C
:10547000DBCFEAFFEF6AFC0EDB2AFD0E01E3DB2A3D
:10548000FC0EDBCFE9FFFD0EDBCFEAFF880EEF6EEF
:10549000FC0EDB2AFD0E01E3DB2AFC0EDBCFE9FF6D
:1054A000FD0EDBCFEAFF990EEF6EFC0EDB2AFD0E40
:1054B00001E3DB2AFC0EDBCFE9FFFD0EDBCFEAFFC9
:1054C000AA0EEF6EFC0EDB2AFD0E01E3DB2AFC0EBA
:1054D000DBCFE9FFFD0EDBCFEAFFBB0EEF6EFC0E6C
:1054E000DB2AFD0E01E3DB2AFC0EDBCFE9FFFD0E1C
:1054F000DBCFEAFFEF6AFC0EDB2AFD0E01E3DB2ABD
:10550000FC0EDBCFE9FFFD0EDBCFEAFFEF6AFC0EFE
:10551000DB2AFD0E01E3DB2A040EDB6ADB503308D5
:1055200015E3FC0EDBCFE9FFFD0EDBCFEAFF040E37
:10553000DBCFEFFFFC0EDBCFE9FFDB2AFD0EDBCF7D
:10554000EAFF01E3DB2A040EDB2AE8D7FC0EDBCFFF
:10555000E9FFFD0EDBCFEAFF330EEF6EFC0EDB2A18
:10556000FD0E01E3DB2AFC0EDBCFE9FFFD0EDBCFF6
:10557000EAFFEF6AFC0EDB2AFD0E01E3DB2AFA0EDE
:10558000DBCF00F0FB0EDBCF01F0000E00C0DFFF31
:10559000010E01C0DBFF020EDB6A030EDB6AD9CF0E
:1055A000E9FFDACFEAFFEECF00F0EECF01F0EECF69
:1055B00002F0EFCF03F00050E66EFC0EDBCFE9FF08
:1055C000FD0EDBCFEAFFE552E750EF6EFC0EDB2A63
:1055D000FD0E01E3DB2AD9CFE9FFDACFEAFF080E9F
:1055E000E76ED890030EEB32020EEB32010EEB3277
:1055F000EF32E706F6E1D9CFE9FFDACFEAFFEECFE7
:1056000000F0EECF01F0EECF02F0EFCF03F000504C
:10561000E66EFC0EDBCFE9FFFD0EDBCFEAFFE552C5
:10562000E750EF6EFC0EDB2AFD0E01E3DB2AD9CF3B
:10563000E9FFDACFEAFF080EE76ED890030EEB32EF
:10564000020EEB32010EEB32EF32E706F6E1D9CF74
:10565000E9FFDACFEAFFEECF00F0EECF01F0EECFB8
:1056600002F0EFCF03F00050E66EFC0EDBCFE9FF57
:10567000FD0EDBCFEAFFE552E750EF6EFC0EDB2AB2
:10568000FD0E01E3DB2AFC0EDBCFE9FFFD0EDBCFD5
:10569000EAFF010EEF6EFC0EDB2AFD0E01E3DB2AB2
:1056A000FC0EDBCF00F0FD0EDBCF01F000C0F3FFFE
:1056B00001C0F4FF050EE15C03E200D0E16AE552AF
:1056C000E16EE552E5CFDAFFE7CFD9FF120097DBB5
:1056D00080CEE9FF81CEEAFFEECFE1FFEECFE2FF21
:1056E000E5CFE9FFE5CFE9FFFC6AE950FC5C08E2A1
:1056F0000500E550FF6EE550FE6EE550FD6EF5D7F6
:10570000E5CFEAFFE5CFE9FFE5CFEDFFE5CFEDFF20
:10571000E5CFEDFFE5CFEDFFE5CFEDFFE5CFEDFF09
:10572000E5CFEDFFE5CFEDFFE5CFEDFFE5CFEDFFF9
:10573000E5CFEDFFE5CFEDFFE5CFEDFFE5CFEDFFE9
:10574000E5CFEDFFE5CFEDFFE5CFEDFFE5CFEDFFD9
:10575000E5CFEDFFE5CFEDFFE5CFEDFFE5CFEDFFC9
:10576000E5CFEDFFE5CFEDFFE5CFEDFFE5CFEDFFB9
:10577000E5CFEDFFE5CFEDFFE5CFEDFFE5CFEDFFA9
:10578000E5CFEDFFE5CFEDFFE5CFEDFFE5CFEDFF99
:10579000E5CFEDFFE5CFEDFFE5CFEDFFE5CFEDFF89
:1057A000E5CFEDFFE5CFEDFFE5CFEDFFE5CFEDFF79
:1057B000E5CFEDFFE5CFEDFFE5CFEDFFE5CFEDFF69
:1057C000E5CFEDFFE5CFEDFFE5CFEDFFE5CFEDFF59
:1057D000E5CFEDFFE5CFEFFFE5CFFAFFE5CFFBFF2C
:1057E000E5CFF3FFE5CFF4FFE5CFF6FFE5CFF7FF19
:1057F000E5CFF8FFE5CFF5FFE5CFEAFFE5CFE9FF1D
:10580000E5CFDAFFE5CFD9FFE5CFE0FFE5CFE8FF51
:10581000C00EE81406E0E5CFD8FFE5CFE8FF1000A2
:1058200005D0E5CFD8FFE5CFE8FF1200010E00D08C
:105830001200120000000000E8CFE4FFD8CFE4FF20
:10584000F2CFE8FF0009E8CFE4FFF29EE0CFE4FFEB
:10585000D9CFE4FFDACFE4FFE9CFE4FFEACFE4FFFA
:10586000F5CFE4FFF8CFE4FFF7CFE4FFF6CFE4FF96
:10587000F4CFE4FFF3CFE4FFFBCFE4FFFACFE4FF84
:10588000E96AEA6AEECFE4FFEECFE4FFEECFE4FF91
:10589000EECFE4FFEECFE4FFEECFE4FFEECFE4FF88
:1058A000EECFE4FFEECFE4FFEECFE4FFEECFE4FF78
:1058B000EECFE4FFEECFE4FFEECFE4FFEECFE4FF68
:1058C000EECFE4FFEECFE4FFEECFE4FFEECFE4FF58
:1058D000EECFE4FFEECFE4FFEECFE4FFEECFE4FF48
:1058E000EECFE4FFEECFE4FFEECFE4FFEECFE4FF38
:1058F000EECFE4FFEECFE4FFEECFE4FFEECFE4FF28
:10590000EECFE4FFEECFE4FFEECFE4FFEECFE4FF17
:10591000EECFE4FFEECFE4FFEECFE4FFEECFE4FF07
:10592000EECFE4FFEECFE4FFEECFE4FFEECFE4FFF7
:10593000EECFE4FFEECFE4FFEECFE4FFEECFE4FFE7
:10594000EECFE4FFEECFE4FFEECFE4FFEECFE4FFD7
:10595000EFCFE4FFE9CFE4FFEACFE4FFFCCFE9FFBC
:10596000FC50000808E2FDCFE4FFFECFE4FFFFCFCC
:10597000E4FF0600F5D7E9CFE4FFE45280CEE9FF6B
:1059800081CEEAFFE1CFEEFFE2CFEEFF00000000A4
:105990000FEC1FF080CEE9FF81CEEAFFEECFE1FFF2
:1059A000EECFE2FFE5CFE9FFE5CFE9FFFC6AE95082
:1059B000FC5C08E20500E550FF6EE550FE6EE55028
:1059C000FD6EF5D7E5CFEAFFE5CFE9FFE5CFEDFFC7
:1059D000E5CFEDFFE5CFEDFFE5CFEDFFE5CFEDFF47
:1059E000E5CFEDFFE5CFEDFFE5CFEDFFE5CFEDFF37
:1059F000E5CFEDFFE5CFEDFFE5CFEDFFE5CFEDFF27
:105A0000E5CFEDFFE5CFEDFFE5CFEDFFE5CFEDFF16
:105A1000E5CFEDFFE5CFEDFFE5CFEDFFE5CFEDFF06
:105A2000E5CFEDFFE5CFEDFFE5CFEDFFE5CFEDFFF6
:105A3000E5CFEDFFE5CFEDFFE5CFEDFFE5CFEDFFE6
:105A4000E5CFEDFFE5CFEDFFE5CFEDFFE5CFEDFFD6
:105A5000E5CFEDFFE5CFEDFFE5CFEDFFE5CFEDFFC6
:105A6000E5CFEDFFE5CFEDFFE5CFEDFFE5CFEDFFB6
:105A7000E5CFEDFFE5CFEDFFE5CFEDFFE5CFEDFFA6
:105A8000E5CFEDFFE5CFEDFFE5CFEDFFE5CFEDFF96
:105A9000E5CFEDFFE5CFEDFFE5CFEFFFE5CFFAFF77
:105AA000E5CFFBFFE5CFF3FFE5CFF4FFE5CFF6FF52
:105AB000E5CFF7FFE5CFF8FFE5CFF5FFE5CFEAFF4C
