:020000040000FA
:060000007BEF2AF0120064
:0600080042EF1FF01200A0
:060018000CEF04F01200E1
:060800007BEF2AF012005C
:0608080042EF1FF0120098
:0608180042EF1FF0120088
:06083A00030084550000DC
:100840005806000003000000825500005B0600000F
:100850000200000076550000420600000C00000077
:10086000D9CFE6FFDACFE6FFE1CFD9FFE2CFDAFF5B
:10087000E652E652E652E652E652F80EDBCFE6FFCB
:10088000F90EDBCFE6FF57EC0CF0E552E552DE52F5
:10089000F3CFDEFFF4CFDDFFDD52D950010FE96E5B
:1008A000000EDA20EA6EEE50ED1001E1E9D0F50E0F
:1008B000DBCFE6FFFA0EDBCFE6FFFB0EDBCFE6FF7A
:1008C000010EDBCFE6FF020EDBCFE6FF46EC0BF0BE
:1008D0000B6E050EE15C02E2E16AE552E16E0B503F
:1008E000010EDBCFE9FF020EDBCFEAFF170EE92690
:1008F000000EEA22030EEECFDBFF040EEDCFDBFF8E
:10090000F60EDBCFE6FFF70EDBCFE6FFFC0EDBCF0C
:10091000E6FFFD0EDBCFE6FF030EDBCFE6FF040EA6
:10092000DBCFE6FFDCEC1BF00D6E060EE15C02E2B5
:10093000E16AE552E16E0D50F3CF0BF0F4CF0CF00D
:10094000010EDBCFE9FF020EDBCFEAFF0BC0EEFFAB
:100950000CC0EDFFF250E66EF29E0601442B06013C
:10096000440509E1010EDBCF42F6020EDBCF43F670
:100970000DEC0CF015D00601495112E142C6E9FF19
:1009800043C6EAFF160EEB500B6EF50EDB50D88017
:100990000B5406E3010EDBCF42F6020EDBCF43F62B
:1009A000010EDBCFE9FF020EDBCFEAFF160EE926D0
:1009B000000EEA22EFCF0BF006014751D8800B540E
:1009C0000CE2010EDBCFE9FF020EDBCFEAFF160ED1
:1009D000E926000EEA22EFCF47F6010EDBCFE9FF52
:1009E000020EDBCFEAFF160EE926000EEA22EFCF59
:1009F0000BF006014851D8800B540CE2010EDBCFFE
:100A0000E9FF020EDBCFEAFF160EE926000EEA220E
:100A1000EFCF48F6010EDBCFE9FF020EDBCFEAFF96
:100A2000020EE926000EEA22E9CF0BF0EACF0CF025
:100A30000BC0E6FF0CC0E6FF010EDBCFE9FF020EA4
:100A4000DBCFEAFF160EE926000EEA22EF50090D71
:100A5000F3CF0DF0F4CF0EF0C40E0D26050E0E22CE
:100A60000DC0E6FF0EC0E6FFE0EC24F0E552E552D3
:100A7000E552E552010EDF6EE552E7BEF28E01D07F
:100A8000DF68DF0425E1D950F30FE96EFF0EDA20AD
:100A9000EA6EEE50ED100CE0F30EDBCFE9FFF40E42
:100AA000DBCFEAFF010EDBCFEEFF020EDBCFEDFF67
:100AB000060149510DE042C6E9FF43C6EAFF160EA2
:100AC000EB500B6EF50EDB500B5C02E268EC1EF097
:100AD000DF5000D00B6E050EE15C02E2E16AE552E8
:100AE000E16E0B50E552E5CFDAFFE7CFD9FF1200F8
:100AF000D9CFE6FFDACFE6FFE1CFD9FFE2CFDAFFC9
:100B0000E652E652E652020EDB6AD950FC0FE96E5D
:100B1000FF0EDA20EA6E000ED880EE54000EED547F
:100B200075E2BFD8FC0EDB500601452500010B6EB7
:100B3000FD0EDB500601462100010C6E0BC0DEFFEE
:100B40000CC0DDFF42C6E9FF43C6EAFF020EE926FC
:100B5000000EEA22E9CF0BF0EACF0CF00BC0E6FF63
:100B60000CC0E6FF5AEC26F0E552E55242C6E9FF1A
:100B700043C6EAFF020EE926000EEA22DECFEEFFB0
:100B8000DDCFEDFFDECF0BF0DDCF0CF006014551E0
:100B90000B5C46510C581BE242C6E9FF43C6EAFF14
:100BA000020EE926000EEA22E9CF0BF0EACF0CF0A4
:100BB0000BC0E6FF0CC0E6FFFCC5E6FFFDC5E6FF87
:100BC00078EC25F0E552E552E552E5521AD042C6DE
:100BD000E9FF43C6EAFF020EE926000EEA22E9CF4A
:100BE0000BF0EACF0CF00BC0E6FF0CC0E6FFFAC535
:100BF000E6FFFBC5E6FF78EC25F0E552E552E5524D
:100C0000E55258D8E76E020EE7CFDBFF020EDB504D
:100C100002E168EC1EF0E552E552E552E552E5CFFF
:100C2000DAFFE7CFD9FF1200D9CFE6FFDACFE6FF30
:100C3000E1CFD9FFE2CFDAFFE652000EE66EE66AB8
:100C4000E66AE66EE66A800EE66EE66A510EE66ECB
:100C5000550EE66E600EE66E160EE66E01DE0B6E4B
:100C60000B0EE15C02E2E16AE552E16E0B50DF6ED1
:100C7000DF040BE1F29E0601010E496F456B466BE6
:100C8000F6EC1DF0000901E000D0E552E552E5CF99
:100C9000DAFFE7CFD9FF1200F29E0601496B67EF3A
:100CA0001EF0F250E66EF29E06014A2BE552E7BEB8
:100CB000F28E1200D9CFE6FFDACFE6FFE1CFD9FFFF
:100CC000E2CFDAFFE652E652E652E652020EDB6A65
:100CD000F250E66EF29E06014A0706014A5101E013
:100CE000C6D006014451000801E3C1D0030EDB6AFF
:100CF0000501FE510DE003C6E9FF04C6EAFF060E3A
:100D0000E926000EEA22EECF0BF0EFCF0CF002D076
:100D10000B6A0C6A0BC0DEFF0CC0DDFF0B500C1021
:100D200001E185D0DECFE9FFDDCFEAFF0C0EE92639
:100D3000000EEA22E9CF0BF0EACF0CF00BC0E6FF81
:100D40000CC0E6FF5AEC26F0E552E552DECFE9FF93
:100D5000DDCFEAFF020EE926000EEA22E9CF0BF012
:100D6000EACF0CF00BC0E6FF0CC0E6FF5AEC26F011
:100D7000E552E552DECFE9FFDDCFEAFF160EE926A8
:100D8000000EEA22EFCF0BF006014851D8800B5439
:100D90000AE2DECFE9FFDDCFEAFF160EE926000EFC
:100DA000EA22EFCF48F6DECFE9FFDDCFEAFF020E01
:100DB000E926000EEA22E9CF0BF0EACF0CF00BC0D7
:100DC000E6FF0CC0E6FFDECFE9FFDDCFEAFF160E3F
:100DD000E926000EEA22EF50090DF3CF0DF0F4CF13
:100DE0000EF0C40E0D26050E0E220DC0E6FF0EC03D
:100DF000E6FFE0EC24F0E552E552E552E552DECFA5
:100E0000E9FFDDCFEAFF160EE926000EEA22EFCF5A
:100E10000BF042C6E9FF43C6EAFF160EEB500B5C2F
:100E200005E3010EF36E030EF3CFDBFF61D706017E
:100E30004B5100080DE206014B51000804E26AD84C
:100E400006014B07F8D7010EF36E030EF3CFDBFF5D
:100E5000030EDB0403E006014C0509E1010EF36E0D
:100E6000020EF3CFDBFF06014C6B68EC1EF0E5527F
:100E7000E7BEF28E020EDB5000D00B6E040EE15C7A
:100E800002E2E16AE552E16E0B50E552E5CFDAFF8E
:100E9000E7CFD9FF1200D9CFE6FFDACFE6FFE1CFE7
:100EA000D9FFE2CFDAFFE652E652F250E66EF29E4A
:100EB00045C6DEFF46C6DDFFE552E7BEF28EDECF59
:100EC0000BF0DDCF0CF00BC0F3FF0CC0F4FF00D033
:100ED000E552E552E552E5CFDAFFE7CFD9FF120040
:100EE000D9CFE6FFDACFE6FFE1CFD9FFE2CFDAFFD5
:100EF000E652F250E66EF29E44C6DFFFE552E7BED0
:100F0000F28EDF5000D0E552E552E5CFDAFFE7CFB1
:100F1000D9FF1200D9CFE6FFDACFE6FFE1CFD9FF44
:100F2000E2CFDAFFE652E652E652E65206014A51B5
:100F300001E0E0D0452B000E4623455146110DE15E
:100F4000FAC5DEFFFBC5DDFFFCC5FAF5FDC5FBF507
:100F5000DECFFCF5DDCFFDF54D2BFAC5E9FFFBC576
:100F6000EAFFEF50000919E0FAC5E9FFFBC5EAFF07
:100F7000030EE926000EEA22020EE926000EEA22FE
:100F8000EE50EFCFEAFFE96E060EE926000EEA22E8
:100F9000EECF0BF0EFCF0CF002D00B6A0C6A020E12
:100FA0000BC0DBFF030E0CC0DBFF0B500C1001E18C
:100FB000A0D0020EDBCFE9FF030EDBCFEAFF020E6B
:100FC000E926000EEA22EECF0BF0EFCF0CF006017F
:100FD0000B50455D0C50465901E28BD0020EDBCF21
:100FE000E9FF030EDBCFEAFF020EE926000EEA223C
:100FF000E9CF0BF0EACF0CF00BC0E6FF0CC0E6FF28
:101000005AEC26F0E552E552020EDBCFE9FF030E63
:10101000DBCFEAFF0C0EE926000EEA22080EE926D5
:10102000000EEA22EE50ED1016E0020EDBCFE9FFD3
:10103000030EDBCFEAFF0C0EE926000EEA22E9CF11
:101040000BF0EACF0CF00BC0E6FF0CC0E6FF5AEC49
:1010500026F0E552E552020EDBCFE9FF030EDBCFAF
:10106000EAFF160EE926000EEA22EFCF0BF006018A
:101070004851D8800B540CE2020EDBCFE9FF030E7F
:10108000DBCFEAFF160EE926000EEA22EFCF48F684
:10109000020EDBCFE9FF030EDBCFEAFF020EE926EB
:1010A000000EEA22E9CF0BF0EACF0CF00BC0E6FF0E
:1010B0000CC0E6FF020EDBCFE9FF030EDBCFEAFF39
:1010C000160EE926000EEA22EF50090DF3CF0DF0BF
:1010D000F4CF0EF0C40E0D26050E0E220DC0E6FF55
:1010E0000EC0E6FFE0EC24F0E552E552E552E55291
:1010F00034D701D04B2B040EE15C02E2E16AE552E9
:10110000E16EE552E5CFDAFFE7CFD9FF1200D9CF84
:10111000E6FFDACFE6FFE1CFD9FFE2CFDAFFE65212
:10112000E65206014A5103E0010E4C6F7CD0485153
:10113000090DF3CFE9FFF4CFEAFFC40EE926050E4F
:10114000EA22EF5002E14807F2D74851090DF3CFE8
:101150000BF0F4CF0CF0C40E0B26050E0C220BC0C6
:10116000DEFF0CC0DDFFDECFE9FFDDCFEAFFEE5290
:10117000EE50EFCFEAFFE96E020EE926000EEA22FA
:10118000EECF0BF0EFCF0CF0DECFE9FFDDCFEAFFC3
:10119000EE520BC0EEFF0CC0EDFFDECFE9FFDDCF5E
:1011A000EAFFEE52EECF0BF0EFCF0CF0DECFE9FF0F
:1011B000DDCFEAFF030EE926000EEA22E9CF0DF0AB
:1011C000EACF0EF00D500B1802E10E500C181AE188
:1011D000DECFE9FFDDCFEAFFEE52EE50EFCFEAFFC0
:1011E000E96E020EE926000EEA22EECF0BF0EFCFF9
:1011F0000CF0DECFE9FFDDCFEAFFEE520BC0EEFFD1
:101200000CC0EDFFDECFE9FFDDCFEAFFEE52EE507E
:10121000EFCFEAFFE96E060EE926000EEA22EECFD6
:1012200042F6EDCF43F6E552E552E552E5CFDAFF5F
:10123000E7CFD9FF1200D9CFE6FFDACFE6FFE1CF43
:10124000D9FFE2CFDAFFE652E65242C6E9FF43C6D3
:10125000EAFF0C0EE926000EEA22E9CF0BF0EACFF6
:101260000CF00BC0E6FF0CC0E6FFFC0EDBCFE6FF88
:10127000FD0EDBCFE6FF78EC25F0E552E552E552B6
:10128000E55242C6E9FF43C6EAFF020EE926000E18
:10129000EA22E9CF0BF0EACF0CF00BC0E6FF0CC05E
:1012A000E6FF5AEC26F0E552E552FA0EDB50060155
:1012B000452500010B6EFB0EDB50060146210001A7
:1012C0000C6E0BC0DEFF0CC0DDFF42C6E9FF43C65B
:1012D000EAFF020EE926000EEA22DECFEEFFDDCFA6
:1012E000EDFFDECF0BF0DDCF0CF0060145510B5CBE
:1012F00046510C581BE242C6E9FF43C6EAFF020E04
:10130000E926000EEA22E9CF0BF0EACF0CF00BC081
:10131000E6FF0CC0E6FFFCC5E6FFFDC5E6FF78EC86
:1013200025F0E552E552E552E5521AD042C6E9FFF2
:1013300043C6EAFF020EE926000EEA22E9CF0BF0CF
:10134000EACF0CF00BC0E6FF0CC0E6FFFAC5E6FFE3
:10135000FBC5E6FF78EC25F0E552E552E552E55293
:10136000E552E552E552E5CFDAFFE7CFD9FF1200AB
:10137000D9CFE6FFDACFE6FFE1CFD9FFE2CFDAFF40
:10138000E652E652E652FC0EDBCFE9FFFD0EDBCF64
:10139000EAFFEF501BE0FC0EDBCFE9FFFD0EDBCFD9
:1013A000EAFF030EE926000EEA22020EE926000EED
:1013B000EA22EE50EFCFEAFFE96E060EE926000EB4
:1013C000EA22EECF0BF0EFCF0CF002D00B6A0C6AE2
:1013D0000BC0DEFF0CC0DDFFDECFE9FFDDCFEAFF93
:1013E0000C0EE926000EEA22E9CF0BF0EACF0CF052
:1013F0000BC0E6FF0CC0E6FF5AEC26F0E552E552C2
:1014000006014A515AE1DECFE9FFDDCFEAFF020EC5
:10141000E926000EEA22E9CF0BF0EACF0CF00BC070
:10142000E6FF0CC0E6FF5AEC26F0E552E552DECFAF
:10143000E9FFDDCFEAFF160EE926000EEA22EFCF24
:101440000BF006014851D8800B540AE2DECFE9FFC9
:10145000DDCFEAFF160EE926000EEA22EFCF48F6AE
:10146000DECFE9FFDDCFEAFF020EE926000EEA2219
:10147000E9CF0BF0EACF0CF00BC0E6FF0CC0E6FFA3
:10148000DECFE9FFDDCFEAFF160EE926000EEA22E5
:10149000EF50090DF3CF0DF0F4CF0EF0C40E0D2672
:1014A000050E0E220DC0E6FF0EC0E6FFE0EC24F0B4
:1014B000E552E552E552E5521AD0DECFE9FFDDCF25
:1014C000EAFF0C0EE926000EEA22E9CF0BF0EACF84
:1014D0000CF00BC0E6FF0CC0E6FFFE0EE66E050E3C
:1014E000E66EE0EC24F0E552E552E552E552DECF3F
:1014F000E9FFDDCFEAFF160EE926000EEA22EFCF64
:101500000BF042C6E9FF43C6EAFF160EEB500B5C38
:1015100006E3010EF36E020EF3CFDBFF02D0020EE4
:10152000DB6ADB5000D0E552E552E552E552E5CFEB
:10153000DAFFE7CFD9FF1200D9CFE6FFDACFE6FF17
:10154000E1CFD9FFE2CFDAFFFC0EDBCFE9FFFD0EE2
:10155000DBCFEAFF4DC6EFFFFC0EDBCFE9FFFD0E50
:10156000DBCFEAFFEE5245C6EEFF46C6EDFFE55281
:10157000E5CFDAFFE7CFD9FF1200D9CFE6FFDACF08
:10158000E6FFE1CFD9FFE2CFDAFFE652FC0EDBCF78
:10159000E9FFFD0EDBCFEAFFEF5006014D5D13E0E2
:1015A000FC0EDBCFE9FFFD0EDBCFEAFFEE52EECF04
:1015B0000BF0EFCF0CF00B50455D0C50465903E398
:1015C000010EDF6E40D0FC0EDBCFE9FFFD0EDBCF5E
:1015D000EAFFEE52EE50455D0B6EEE5046590C6E32
:1015E000FA0EDBCFE9FFFB0EDBCFEAFFEECF0DF00B
:1015F000EFCF0EF00D500B5C0E500C5822E2FC0E9B
:10160000DBCFE9FFFD0EDBCFEAFFEE52EE50455D8A
:101610000B6EEE5046590C6EFA0EDBCFE9FFFB0E57
:10162000DBCFEAFF0B50EE5E0C50ED5AFC0EDBCF29
:10163000E6FFFD0EDBCFE6FF7FDFE552E552DF6A16
:1016400002D0010EDF6EDF5000D0E552E552E5CF4B
:10165000DAFFE7CFD9FF12000601010E4C6F12002E
:10166000D9CFE6FFDACFE6FFE1CFD9FFE2CFDAFF4D
:101670001DD90501C451010802E268EC1EF0F8D73B
:10168000E552E5CFDAFFE7CFD9FF1200D9CFE6FF69
:10169000DACFE6FFE1CFD9FFE2CFDAFF040EE66E44
:1016A000E66AFA0EDBCFE6FFFB0EDBCFE6FFFC0EB1
:1016B000DBCFE9FFFD0EDBCFEAFF190EE926000EB6
:1016C000EA22E9CF0BF0EACF0CF00BC0E6FF0CC02A
:1016D000E6FF3EEC27F00D6E060EE15C02E2E16AE9
:1016E000E552E16E0D50FC0EDBCFE9FFFD0EDBCFC6
:1016F000EAFF190EE926000EEA22030EE926000E83
:10170000EA22EF6A040EF36EF90EDBCFF4FFF3501A
:10171000F45C05E3030EF36EF90EF3CFDBFFFC0E72
:10172000DBCFE9FFFD0EDBCFEAFF160EE926000E48
:10173000EA22F90EDBCFEFFFFC0EDBCFE9FFFD0E57
:10174000DBCFEAFF020EE926000EEA22E9CF0BF01A
:10175000EACF0CF00BC0E6FF0CC0E6FFC8EC24F0AB
:10176000E552E552FC0EDBCFE9FFFD0EDBCFEAFFD1
:101770000C0EE926000EEA22E9CF0BF0EACF0CF0BE
:101780000BC0E6FF0CC0E6FFC8EC24F0E552E552C2
:10179000FC0EDBCFE9FFFD0EDBCFEAFF020EE926F0
:1017A000000EEA22060EE926000EEA22FC0EDBCF2E
:1017B000EEFFFD0EDBCFEDFFF90EDB500B6E0C6A7A
:1017C000040ED8800B56000E0C56FC0EDBCFE9FF42
:1017D000FD0EDBCFEAFF0C0EE926000EEA220BC05D
:1017E000EEFF0CC0EDFFFC0EDBCFE9FFFD0EDBCF03
:1017F000EAFF0C0EE926000EEA22060EE926000E8C
:10180000EA22FC0EDBCFEEFFFD0EDBCFEDFFE55253
:10181000E5CFDAFFE7CFD9FF1200D9CFE6FFDACF65
:10182000E6FFE1CFD9FFE2CFDAFFE652DF6A040E2E
:10183000DF5C14E2DF50090DF3CF0BF0F4CF0CF0B6
:10184000C40E0B26050E0C220BC0E6FF0CC0E6FFF3
:101850004EEC24F0E552E552DF2AE9D7E80EE66EB9
:10186000050EE66E4EEC24F0E552E552F10EE66E02
:10187000050EE66E4EEC24F0E552E552FE0EE66EE5
:10188000050EE66E4EEC24F0E552E5520501E80E39
:10189000FA6F050EFB6FF10EFC6F050EFD6FE55242
:1018A000E552E5CFDAFFE7CFD9FF12001200D9CF1A
:1018B000E6FFDACFE6FFE1CFD9FFE2CFDAFFE6526B
:1018C000E6521D0EE66EE66A6CEC27F0E552E55234
:1018D000F3CFDEFFF4CFDDFFD9CFE9FFDACFEAFFA8
:1018E000EE50ED104EE0FC0EDBCFE6FFFD0EDBCF41
:1018F000E6FF6CEC27F0E552E552F3CF0BF0F4CFA6
:101900000CF0DECFE9FFDDCFEAFF170EE926000E6F
:10191000EA220BC0EEFF0CC0EDFFDECFE9FFDDCF0A
:10192000EAFF170EE926000EEA22EE50ED100BE159
:10193000DECFE6FFDDCFE6FFC4EC27F0E552E5524F
:10194000DE6ADD6A1ED0FC0EDBCFE6FFFD0EDBCFCC
:10195000E6FFA50EE66EDECFE9FFDDCFEAFF170E4C
:10196000E926000EEA22EECFE6FFEFCFE6FF24ECF9
:1019700027F00B6E050EE15C02E2E16AE552E16ED2
:101980000B50DECF0BF0DDCF0CF00BC0F3FF0CC023
:10199000F4FF00D0E552E552E552E5CFDAFFE7CF9C
:0419A000D9FF120059
:0C19A400D9CFE6FFDACFE6FFE1CFD9FF94
:1019B000E2CFDAFFE652E652E652E652FD0EDB5087
:1019C000000801E304D11F0EE66EE66A6CEC27F016
:1019D000E552E552F3CFDEFFF4CFDDFFD9CFE9FFCB
:1019E000DACFEAFFEE50ED1001E1F1D0FC0EDBCFD3
:1019F000E6FFFD0EDB50E552E702F3500B6E0C6A7A
:101A0000010E0B26000E0C22020E0BC0DBFF030E94
:101A10000CC0DBFF020EDBCFE6FF030EDBCFE6FFE1
:101A20006CEC27F0E552E552F3CF0BF0F4CF0CF05D
:101A3000DECFE9FFDDCFEAFF0BC0EEFF0CC0EDFF0C
:101A4000DECFE9FFDDCFEAFFEE50ED1001E1B7D0C8
:101A5000FC0EDBCFE6FFFD0EDB50E552E702F35054
:101A60000D6E0E6ADECFE9FFDDCFEAFF0D50EE24EA
:101A70000B6E0E50EE200C6EDECFE9FFDDCFEAFFDD
:101A8000020EE926000EEA220BC0EEFF0CC0EDFFAD
:101A9000DECFE9FFDDCFEAFF1A0EE926000EEA22CB
:101AA000EF6ADECFE9FFDDCFEAFFEECF0BF0EFCF3D
:101AB0000CF0DECFE9FFDDCFEAFF040EE926000ED1
:101AC000EA220BC0EEFF0CC0EDFFFC0EDBCFE6FF01
:101AD000FD0EDB04E552E702F3500D6E0E6ADECF19
:101AE000E9FFDDCFEAFF0D50EE240B6E0E50EE2025
:101AF0000C6EDECFE9FFDDCFEAFF060EE926000E11
:101B0000EA220BC0EEFF0CC0EDFFDECFE9FFDDCF18
:101B1000EAFF1B0EE926000EEA22FD0EDBCFEFFFE7
:101B2000DECFE9FFDDCFEAFF1C0EE926000EEA2238
:101B3000FC0EDBCFEFFFDECFE9FFDDCFEAFF1D0EAE
:101B4000E926000EEA22EF68DECFE9FFDDCFEAFFEB
:101B50001E0EE926000EEA22EF68DECFE9FFDDCF98
:101B6000EAFF080EE926000EEA22E9CF0BF0EACFE1
:101B70000CF00BC0E6FF0CC0E6FF4EEC24F0E55283
:101B8000E552DECFE9FFDDCFEAFF110EE926000EB8
:101B9000EA22E9CF0BF0EACF0CF00BC0E6FF0CC055
:101BA000E6FF4EEC24F0E552E552DECF0BF0DDCF40
:101BB0000CF00BC0F3FF0CC0F4FF0CD008D0DECF4C
:101BC000E6FFDDCFE6FFC4EC27F0E552E552F36A0D
:101BD000F46A00D0040EE15C02E2E16AE552E16ED3
:101BE000E552E5CFDAFFE7CFD9FF1200D9CFE6FF04
:101BF000DACFE6FFE1CFD9FFE2CFDAFFE652E652D5
:101C0000E652E652010EDF6E51EC06F0D950010F9C
:101C1000E66E000EDA20E66E9CEC0AF0E552E55224
:101C2000F250E66EF29EFC0EDBCFE9FFFD0EDBCF3D
:101C3000EAFF1D0EE926000EEA22EF2AFC0EDBCF9A
:101C4000E9FFFD0EDBCFEAFF1E0EE926000EEA22B9
:101C5000EF2AE552E7BEF28EFC0EDBCFE6FFFD0E6B
:101C6000DBCFE6FFACEC14F0E552E552000901E1F0
:101C700078D0D950F80FE96EFF0EDA20EA6E000E28
:101C8000D880EE54000EED546CE2F80EDBCFE6FF88
:101C9000F90EDBCFE6FFFC0EDBCFE9FFFD0EDBCF5D
:101CA000EAFF080EE926000EEA22E9CF0BF0EACFA0
:101CB0000CF00BC0E6FF0CC0E6FF1BEC09F0E55290
:101CC000E552E552E552F250E66EF29EFC0EDBCF95
:101CD000E6FFFD0EDBCFE6FFC4EC13F0E552E55264
:101CE0005AEC06F0000902E168EC1EF0FC0EDBCFB6
:101CF000E9FFFD0EDBCFEAFF1A0EE926000EEA220D
:101D0000EFCF0BF0FC0EDBCFE9FFFD0EDBCFEAFFE0
:101D10001B0EE926000EEA22EF500B5C01E1DF6AA0
:101D200051EC06F0F250E66EF29EFC0EDBCFE9FFBE
:101D3000FD0EDBCFEAFF1D0EE926000EEA22EF2A98
:101D4000FC0EDBCFE9FFFD0EDBCFEAFF1E0EE9261E
:101D5000000EEA22EF2AE552E7BEF28EE552E7BE18
:101D6000F28EDF5046E0F250E66EF29EFC0EDBCFC4
:101D7000E9FFFD0EDBCFEAFF1A0EE926000EEA228C
:101D8000EFCF0BF0FC0EDBCFE9FFFD0EDBCFEAFF60
:101D90001B0EE926000EEA22EF500B5C26E2F70E3E
:101DA000DBCFE6FFFA0EDBCFE6FFFB0EDBCFE6FF75
:101DB000FC0EDBCFE6FFFD0EDBCFE6FF16DB0B6E86
:101DC000050EE15C02E2E16AE552E16E0B50010EA4
:101DD000DF6EFC0EDBCFE9FFFD0EDBCFEAFF1E0E50
:101DE000E926000EEA22EF2A01D0DF6AE552E7BEBB
:101DF000F28EDF5021E1D950F80FE96EFF0EDA20A4
:101E0000EA6E000ED880EE54000EED5415E2D95063
:101E1000F80FE66EFF0EDA20E66ED950010FE66E7F
:101E2000000EDA20E66EBDEC0AF0E552E552E5520E
:101E3000E552000901E1DF68FF0EDF5C01E10CD72C
:101E4000FC0EDBCFE6FFFD0EDBCFE6FFC4EC13F0AC
:101E5000E552E5525AEC06F0DF5000D00B6E040E4E
:101E6000E15C02E2E16AE552E16E0B50E552E5CF3A
:101E7000DAFFE7CFD9FF1200D9CFE6FFDACFE6FFCE
:101E8000E1CFD9FFE2CFDAFFFC0EDBCFE9FFFD0E99
:101E9000DBCFEAFF1A0EE926000EEA22EFCF0BF0A5
:101EA000FC0EDBCFE9FFFD0EDBCFEAFF1B0EE926C0
:101EB000000EEA22EF500B5C5AE2F80EDBCFE6FF91
:101EC000FA0EDBCFE6FFFB0EDBCFE6FFFC0EDBCF2F
:101ED000E6FFFD0EDBCFE6FF88DA0B6E050EE15C58
:101EE00002E2E16AE552E16E0B50FC0EDBCFE9FF46
:101EF000FD0EDBCFEAFF1E0EE926000EEA22EF50B0
:101F0000FF082AE1F90EDB5026E1FC0EDBCFE9FFEA
:101F1000FD0EDBCFEAFF110EE926000EEA22EF509C
:101F20001AE0FC0EDBCFE9FFFD0EDBCFEAFF110E5E
:101F3000E926000EEA22E9CF0BF0EACF0CF00BC045
:101F4000E6FF0CC0E6FFB8EC09F0E552E5520009E7
:101F500002E0010E0FD00BD0FC0EDBCFE9FFFD0E2F
:101F6000DBCFEAFF1E0EE926000EEA22EF2AF90E69
:101F7000DB5000D0E552E5CFDAFFE7CFD9FF120002
:101F8000D9CFE6FFDACFE6FFE1CFD9FFE2CFDAFF24
:101F9000060EE12402E3E168E652E16E010EDF6E17
:101FA00051EC06F0D950010FE66E000EDA20E66E15
:101FB0009CEC0AF0E552E552F250E66EF29EFC0E01
:101FC000DBCFE9FFFD0EDBCFEAFF1D0EE926000E99
:101FD000EA22EF2AFC0EDBCFE9FFFD0EDBCFEAFFA2
:101FE0001E0EE926000EEA22EF2AE552E7BEF28E27
:101FF000FC0EDBCFE6FFFD0EDBCFE6FF84EC14F03A
:10200000E552E55200096AE0D950F80FE96EFF0E7B
:10201000DA20EA6E000ED880EE54000EED545EE237
:10202000F80EDBCFE6FFF90EDBCFE6FFFC0EDBCFD1
:10203000E9FFFD0EDBCFEAFF110EE926000EEA22D2
:10204000E9CF0BF0EACF0CF00BC0E6FF0CC0E6FFC7
:102050001BEC09F0E552E552E552E552F250E66E0E
:10206000F29EFC0EDBCFE6FFFD0EDBCFE6FF8CDB46
:10207000E552E5525AEC06F0000902E168EC1EF068
:10208000FC0EDBCFE9FFFD0EDBCFEAFF1A0EE926DF
:10209000000EEA22EF5001E1DF6A51EC06F0F25047
:1020A000E66EF29EFC0EDBCFE9FFFD0EDBCFEAFF12
:1020B0001D0EE926000EEA22EF2AFC0EDBCFE9FF17
:1020C000FD0EDBCFEAFF1E0EE926000EEA22EF2A04
:1020D000E552E7BEF28EE552E7BEF28EDF506DE0CC
:1020E000F250E66EF29EFC0EDBCFE9FFFD0EDBCF79
:1020F000EAFF1A0EE926000EEA22EF50000859E224
:10210000FC0EDBCFE9FFFD0EDBCFEAFF060EE92672
:10211000000EEA22040EEECFDBFF050EEDCFDBFF53
:10212000FA0EDBCFE6FFFB0EDBCFE6FFFC0EDBCFCC
:10213000E6FFFD0EDBCFE6FF90DAE552E552E55211
:10214000E552F70EDB5017E1FC0EDBCFE9FFFD0E89
:10215000DBCFEAFF1A0EE926000EEA22EF06FC0E9C
:10216000DBCFE9FFFD0EDBCFEAFF1D0EE926000EF7
:10217000EA22EF2A1BD0FC0EDBCFE9FFFD0EDBCFFE
:10218000EAFF060EE926000EEA22040EDBCFEEFF80
:10219000050EDBCFEDFFFC0EDBCFE9FFFD0EDBCF45
:1021A000EAFF1E0EE926000EEA22EF2A010EDF6E7C
:1021B00001D0DF6AE552E7BEF28EDF5021E1D9504F
:1021C000F80FE96EFF0EDA20EA6E000ED880EE54AA
:1021D000000EED5415E2D950F80FE66EFF0EDA202E
:1021E000E66ED950010FE66E000EDA20E66EBDEC09
:1021F0000AF0E552E552E552E552000901E1DF68D7
:10220000FF0EDF5C01E1F4D6FC0EDBCFE6FFFD0E36
:10221000DBCFE6FFB9DAE552E5525AEC06F0DF50C3
:1022200000D00B6E060EE15C02E2E16AE552E16E5F
:102230000B50E552E5CFDAFFE7CFD9FF1200D9CF37
:10224000E6FFDACFE6FFE1CFD9FFE2CFDAFFE652D1
:10225000FC0EDBCFE9FFFD0EDBCFEAFF1A0EE9260D
:10226000000EEA22EF5000086CE2FA0EDBCFE6FF28
:10227000FB0EDBCFE6FFFC0EDBCFE6FFFD0EDBCF78
:10228000E6FFEBD9E552E552E552E552FC0EDBCF15
:10229000E9FFFD0EDBCFEAFF1A0EE926000EEA2267
:1022A000EF06FC0EDBCFE9FFFD0EDBCFEAFF1D0ED4
:1022B000E926000EEA22EF50FF0835E1F80EDBCFE9
:1022C000E9FFF90EDBCFEAFFEF502CE1FC0EDBCF8C
:1022D000E9FFFD0EDBCFEAFF080EE926000EEA2239
:1022E000EF5020E0FC0EDBCFE9FFFD0EDBCFEAFF75
:1022F000080EE926000EEA22E9CF0BF0EACF0CF037
:102300000BC0E6FF0CC0E6FFB8EC09F0E552E55261
:10231000000908E0F80EDBCFE9FFF90EDBCFEAFF9A
:10232000010EEF6E0BD0FC0EDBCFE9FFFD0EDBCF15
:10233000EAFF1D0EE926000EEA22EF2A010EDF6EEB
:1023400001D0DF6ADF5000D0E552E552E5CFDAFF79
:10235000E7CFD9FF1200D9CFE6FFDACFE6FFE1CF12
:10236000D9FFE2CFDAFFE652F250E66EF29EFC0EA3
:10237000DBCFE9FFFD0EDBCFEAFF1A0EE926000EE8
:10238000EA22EFCFDFFFE552E7BEF28EDF5000D04A
:10239000E552E552E5CFDAFFE7CFD9FF1200D9CFFA
:1023A000E6FFDACFE6FFE1CFD9FFE2CFDAFFFC0E9E
:1023B000DBCFE9FFFD0EDBCFEAFFEECFE6FFEFCF8D
:1023C000E6FFC4EC27F0E552E552FC0EDBCFE6FF5A
:1023D000FD0EDBCFE6FFC4EC27F0E552E552E552F7
:1023E000E5CFDAFFE7CFD9FF1200D9CFE6FFDACF8A
:1023F000E6FFE1CFD9FFE2CFDAFFFC0EDBCFE9FF4A
:10240000FD0EDBCFEAFF1C0EE926000EEA22EF509C
:1024100001E112D1F90EDB5001E080D0FC0EDBCFE0
:10242000E9FFFD0EDBCFEAFF1C0EE926000EEA22D3
:10243000EF50E66EE66AFA0EDBCFE6FFFB0EDBCF6F
:10244000E6FFFC0EDBCFE9FFFD0EDBCFEAFF040E5B
:10245000E926000EEA22EECFE6FFEFCFE6FFF9EC29
:1024600026F00B6E060EE15C02E2E16AE552E16ED7
:102470000B50FC0EDBCFE9FFFD0EDBCFEAFF1C0E9D
:10248000E926000EEA22EF500B6E0C6AFC0EDBCF41
:10249000E9FFFD0EDBCFEAFF040EE926000EEA227B
:1024A0000B50EE260C50ED22FC0EDBCFE9FFFD0EAB
:1024B000DBCFEAFF040EE926000EEA22EECF0BF096
:1024C000EFCF0CF0FC0EDBCFE9FFFD0EDBCFEAFF18
:1024D000020EE926000EEA22EECF0DF0EFCF0EF04D
:1024E0000D500B5C0E500C5818E3FC0EDBCFE9FFCF
:1024F000FD0EDBCFEAFFEECF0BF0EFCF0CF0FC0EC2
:10250000DBCFE9FFFD0EDBCFEAFF040EE926000E6C
:10251000EA220BC0EEFF0CC0EDFF8ED0FC0EDBCF2D
:10252000E9FFFD0EDBCFEAFF1C0EE926000EEA22D2
:10253000EF50E66EE66AFA0EDBCFE6FFFB0EDBCF6E
:10254000E6FFFC0EDBCFE9FFFD0EDBCFEAFF060E58
:10255000E926000EEA22EECFE6FFEFCFE6FFF9EC28
:1025600026F00B6E060EE15C02E2E16AE552E16ED6
:102570000B50FC0EDBCFE9FFFD0EDBCFEAFF1C0E9C
:10258000E926000EEA22EF500B6E0C6AFC0EDBCF40
:10259000E9FFFD0EDBCFEAFF060EE926000EEA2278
:1025A0000B50EE5E0C50ED5AFC0EDBCFE9FFFD0E3A
:1025B000DBCFEAFF060EE926000EEA22EECF0BF093
:1025C000EFCF0CF0FC0EDBCFE9FFFD0EDBCFEAFF17
:1025D000EECF0DF0EFCF0EF00D500B5C0E500C58FF
:1025E0002BE2FC0EDBCFE9FFFD0EDBCFEAFF1C0E7A
:1025F000E926000EEA22EF500D6E0E6AFC0EDBCFCC
:10260000E9FFFD0EDBCFEAFF020EE926000EEA220B
:102610000D50EE5C0B6E0E50EE580C6EFC0EDBCFC8
:10262000E9FFFD0EDBCFEAFF060EE926000EEA22E7
:102630000BC0EEFF0CC0EDFFFC0EDBCFE9FFFD0E83
:10264000DBCFEAFF1A0EE926000EEA22EF2AE55256
:10265000E5CFDAFFE7CFD9FF1200D9CFE6FFDACF17
:10266000E6FFE1CFD9FFE2CFDAFFFC0EDBCFE9FFD7
:10267000FD0EDBCFEAFFEE50ED1001E17FD0FC0E46
:10268000DBCFE9FFFD0EDBCFEAFF1C0EE926000ED3
:10269000EA22EF500B6E0C6AFC0EDBCFE9FFFD0E59
:1026A000DBCFEAFF060EE926000EEA220B50EE26EB
:1026B0000C50ED22FC0EDBCFE9FFFD0EDBCFEAFF75
:1026C000060EE926000EEA22EECF0BF0EFCF0CF05B
:1026D000FC0EDBCFE9FFFD0EDBCFEAFF020EE926A1
:1026E000000EEA22EECF0DF0EFCF0EF00D500B5C96
:1026F0000E500C5818E3FC0EDBCFE9FFFD0EDBCFCC
:10270000EAFFEECF0BF0EFCF0CF0FC0EDBCFE9FFD2
:10271000FD0EDBCFEAFF060EE926000EEA220BC013
:10272000EEFF0CC0EDFFFC0EDBCFE9FFFD0EDBCFB3
:10273000EAFF1C0EE926000EEA22EF50E66EE66A7A
:10274000FC0EDBCFE9FFFD0EDBCFEAFF060EE9262C
:10275000000EEA22EECFE6FFEFCFE6FFFA0EDBCF68
:10276000E6FFFB0EDBCFE6FFF9EC26F00B6E060E64
:10277000E15C02E2E16AE552E16E0B50E552E5CF21
:10278000DAFFE7CFD9FF1200D9CFE6FFDACFE6FFB5
:10279000E1CFD9FFE2CFDAFFF250E66EF29EFC0EF7
:1027A000DBCFE9FFFD0EDBCFEAFF1E0EE926000EB0
:1027B000EA22EF06FC0EDBCFE9FFFD0EDBCFEAFFDE
:1027C0001E0EE926000EEA22EFCF0BF0FF0EE76E99
:1027D0000B18E8AE02D00B3403D0E750D8800B546E
:1027E00031E2FC0EDBCFE9FFFD0EDBCFEAFF1E0E70
:1027F000E926000EEA22EF68FC0EDBCFE9FFFD0EB2
:10280000DBCFEAFF110EE926000EEA22EF501AE0B4
:10281000FC0EDBCFE9FFFD0EDBCFEAFF110EE92650
:10282000000EEA22E9CF0BF0EACF0CF00BC0E6FF76
:102830000CC0E6FFB8EC09F0E552E552000902E0F1
:102840002CEC0BF0E552E7BEF28EF250E66EF29EF3
:10285000FC0EDBCFE9FFFD0EDBCFEAFF1D0EE92604
:10286000000EEA22EF06FC0EDBCFE9FFFD0EDBCF08
:10287000EAFF1D0EE926000EEA22EFCF0BF0FF0E55
:10288000E76E0B18E8AE02D00B3403D0E750D880C7
:102890000B5431E2FC0EDBCFE9FFFD0EDBCFEAFF8C
:1028A0001D0EE926000EEA22EF68FC0EDBCFE9FFE1
:1028B000FD0EDBCFEAFF080EE926000EEA22EF50FC
:1028C0001AE0FC0EDBCFE9FFFD0EDBCFEAFF080EBE
:1028D000E926000EEA22E9CF0BF0EACF0CF00BC09C
:1028E000E6FF0CC0E6FFB8EC09F0E552E55200093E
:1028F00002E02CEC0BF0E552E7BEF28EE552E5CF9C
:10290000DAFFE7CFD9FF1200D9CFE6FFDACFE6FF33
:10291000E1CFD9FFE2CFDAFFE652F250E66EF29E47
:10292000FC0EDBCFE9FFFD0EDBCFEAFF1A0EE92636
:10293000000EEA22EF5002E0000E01D0010EDF6E21
:10294000E552E7BEF28EDF5000D0E552E552E5CF0A
:10295000DAFFE7CFD9FF1200D9CFE6FFDACFE6FFE3
:10296000E1CFD9FFE2CFDAFFE652F250E66EF29EF7
:10297000FC0EDBCFE9FFFD0EDBCFEAFF1A0EE926E6
:10298000000EEA22EFCF0BF0FC0EDBCFE9FFFD0ECD
:10299000DBCFEAFF1B0EE926000EEA22EF500B5CAC
:1029A00002E0000E01D0010EDF6EE552E7BEF28EAE
:1029B000DF5000D0E552E552E5CFDAFFE7CFD9FF8F
:0229C000120003
:0E29C200D9CFE6FFDACFE6FFE1CFD9FFE2CFB3
:1029D000DAFFE652060EC16E939A93929492949007
:1029E000939094948B948B928A808B808A828A8A2B
:1029F000030EE66E31EC2AF0E5524A0EE66E4CEC20
:102A00002AF0E552000EE66EE66AABEC29F0E552DC
:102A1000E5524A0EE66E0AEC29F0E552000EE66E2B
:102A2000E66A7CEC29F0E552E552928492860B0E20
:102A3000E66E140EE66EEB0EE66E45EC29F0E552FE
:102A4000E552E5520601236B246B256B266B9280C1
:102A50009282928A93842F6B306B276B286B296B41
:102A60002A6B316B326B2B6B2C6B2D6B2E6B939E09
:102A70008A9E020E1F6F030E206F010E216FDF6A08
:102A8000040EDF5C1FE2DF50EA6A1B0FE96E060EE0
:102A9000EA22EF6AEA6ADF34FE0BEA36E96E070ED5
:102AA000E926060EEA22EE6AED6AEA6ADF34FE0BD8
:102AB000EA36E96E0F0EE926060EEA22EE6AED6AA4
:102AC000DF2ADED70601176B186B196B1A6B010E24
:102AD000E66E100EE66ED2EC0CF0E552E552F3CF46
:102AE00033F6F4CF34F6030EE66E000EE66EE66AB9
:102AF000E66EE66AC0EC19F00B6E050EE15C02E2D0
:102B0000E16AE552E16E0B50E552E552E5CFDAFF9E
:102B1000E7CFD9FF1200D9CFE6FFDACFE6FFE1CF4A
:102B2000D9FFE2CFDAFFE652E652010EDB6AE66A2F
:102B3000E668E668D9CFE6FFDACFE6FF33C6E6FF00
:102B400034C6E6FFC0EC0FF00B6E070EE15C02E24C
:102B5000E16AE552E16E0B5001085FE1DF6ADFCF09
:102B60000BF0040EE76E0B18E8AE02D0E73402D08B
:102B7000E7500B5C52E2DFCFE9FFEA6AE9BEEA68A0
:102B80001F0EE926060EEA22EFCFE9FFEA6AE9BE48
:102B9000EA681B0EE926060EEA22EF503CE0DFCF82
:102BA000E9FFEA6AE9BEEA681F0EE926060EEA2294
:102BB000EFCFE9FFEA6AE9BEEA681B0EE926060ED6
:102BC000EA22010EEFCFDBFFDBCFE9FFEA6AE9BEC5
:102BD000EA68D890E936EA360F0EE926060EEA22B0
:102BE000EECFE6FFEFCFE6FF010EDBCFE9FFEA6AAB
:102BF000E9BEEA68D890E936EA36070EE926060EFD
:102C0000EA22EECFE6FFEFCFE6FF9ADBE552E55290
:102C1000E552E55202D0DF2AA2D789D7E552E55224
:102C2000E552E5CFDAFFE7CFD9FF1200D9CFE6FFB3
:102C3000DACFE6FFE1CFD9FFE2CFDAFFE652E65284
:102C4000010EDB6ADF6A040EDF5C4CE2DF50EA6AE9
:102C50001F0FE96E060EEA22EFCFE9FFEA6AE9BE2E
:102C6000EA681B0EE926060EEA22EF5039E0DF5033
:102C7000EA6A1F0FE96E060EEA22EFCFE9FFEA6A61
:102C8000E9BEEA681B0EE926060EEA22010EEFCF26
:102C9000DBFFDBCFE9FFEA6AE9BEEA68D890E936F4
:102CA000EA360F0EE926060EEA22EECFE6FFEFCF58
:102CB000E6FF010EDBCFE9FFEA6AE9BEEA68D890D9
:102CC000E936EA36070EE926060EEA22EECFE6FFDF
:102CD000EFCFE6FF35DBE552E552E552E55202D093
:102CE000DF2AB1D7E552E552E552E5CFDAFFE7CF6B
:102CF000D9FF1200D9CFE6FFDACFE6FFE1CFD9FF47
:102D0000E2CFDAFFE652E652E652E652E6529F0E74
:102D1000E66E64EC2AF0E552010EDB6A020EDB6A15
:102D2000DF6A100EDF5C01E385D04BEC07F0F3CFD8
:102D30000BF0F4CF0CF0020E0B26000E0C22030E4B
:102D40000BC0DBFF040E0CC0DBFF8250040B23E042
:102D50008A50010B0B6E8B50010B0B5C1CE0030EB9
:102D6000DBCF0CF0040EDBCF0DF00CC0E6FF0DC086
:102D7000E6FF4BEC07F0E552E7CF0DF0E552E7CF69
:102D80000CF0F3CF0EF0F4CF0FF00C500E5C0D50A2
:102D90000F5801E2DAD74BEC07F0F3CF0BF0F4CF8A
:102DA0000CF0020E0B26000E0C22030E0BC0DBFFF4
:102DB000040E0CC0DBFF8250040B23E18A50010B90
:102DC0000B6E8B50010B0B5C1CE0030EDBCF0CF089
:102DD000040EDBCF0DF00CC0E6FF0DC0E6FF4BECA0
:102DE00007F0E552E7CF0DF0E552E7CF0CF0F3CF57
:102DF0000EF0F4CF0FF00C500E5C0D500F5801E2A6
:102E0000DAD7B9EC2AF0B4EC2AF0000901E0FBD7DC
:102E1000ABEC2AF0F3CF0BF0F4CF0CF0D950010F4C
:102E2000E96E000EDA20EA6E0B50EE260C50ED2211
:102E3000DF2A77D7010EDBCF0BF0020EDBCF0CF0D1
:102E4000040ED8900C320B32E804FBE10BC023F6E1
:102E50000CC024F6970EE66E64EC2AF0E552010EE3
:102E6000DB6A020EDB6ADF6A100EDF5C01E38DD0E5
:102E70004BEC07F0F3CF0BF0F4CF0CF0020E0B2667
:102E8000000E0C22030E0BC0DBFF040E0CC0DBFF98
:102E90008250020B27E08A50020B01E0010E0B6EFC
:102EA0008A50200B01E0010E0B5C1CE0030EDBCF0F
:102EB0000CF0040EDBCF0DF00CC0E6FF0DC0E6FFFA
:102EC0004BEC07F0E552E7CF0DF0E552E7CF0CF001
:102ED000F3CF0EF0F4CF0FF00C500E5C0D500F58E6
:102EE00001E2D6D74BEC07F0F3CF0BF0F4CF0CF0A8
:102EF000020E0B26000E0C22030E0BC0DBFF040E8D
:102F00000CC0DBFF8250020B27E18A50020B01E06C
:102F1000010E0B6E8A50200B01E0010E0B5C1CE0D1
:102F2000030EDBCF0CF0040EDBCF0DF00CC0E6FF80
:102F30000DC0E6FF4BEC07F0E552E7CF0DF0E55290
:102F4000E7CF0CF0F3CF0EF0F4CF0FF00C500E5C87
:102F50000D500F5801E2D6D7B9EC2AF0B4EC2AF0A4
:102F6000000901E0FBD7ABEC2AF0F3CF0BF0F4CF74
:102F70000CF0D950010FE96E000EDA20EA6E0B500A
:102F8000EE260C50ED22DF2A6FD7010EDBCF0BF0BF
:102F9000020EDBCF0CF0040ED8900C320B32E8049A
:102FA000FBE10BC025F60CC026F68A8E000EE66EFD
:102FB000E66AABEC29F0E552E552000EE66EE66AF1
:102FC0007CEC29F0E552E552050EE66EE66A78ECF7
:102FD00005F0E552E552870EE66E64EC2AF0E55204
:102FE000B9EC2AF0B4EC2AF0000901E0FBD7ABEC15
:102FF0002AF0F3CF2BF6F4CF2CF68F0EE66E64ECAE
:103000002AF0E552B9EC2AF0B4EC2AF0000901E00C
:10301000FBD7ABEC2AF0F3CF2DF6F4CF2EF6A70EAC
:10302000E66E64EC2AF0E552B9EC2AF0B4EC2AF032
:10303000000901E0FBD7ABEC2AF0F3CF27F6F4CF81
:1030400028F6C70EE66E64EC2AF0E552B9EC2AF0D9
:10305000B4EC2AF0000901E0FBD7ABEC2AF0F3CF87
:1030600029F6F4CF2AF68A9EE1DDF40EE66E010E13
:10307000E66E78EC05F0E552E55249D6050EE15CC6
:1030800002E2E16AE552E16EE552E5CFDAFFE7CF11
:10309000D9FF120023C6F3FF24C6F4FF00D01200AC
:1030A00025C6F3FF26C6F4FF00D012002FC6F3FF9B
:1030B00030C6F4FF00D0120031C6F3FF32C6F4FF71
:1030C00000D0120017C6F3FF18C6F4FF00D012009C
:1030D00019C6F3FF1AC6F4FF00D01200D9CFE6FFDD
:1030E000DACFE6FFE1CFD9FFE2CFDAFFE652E652D0
:1030F00027C60BF028C60CF0D8900C320B32D890B3
:103100000C320B3229C60DF02AC60EF0D8900E32C2
:103110000D32D8900E320D3206010D500B5C2F6F20
:103120000E500C58306FFC0EDBCF06F0FD0EDBCFDF
:1031300007F02F51065C0B6E305107580C6E0BC018
:10314000DEFF0CC0DDFFD9CFE9FFDACFEAFFEE509A
:103150001727EE501823D880185104E7D90E175DB1
:10316000FE0E185905E2D90E176FFE0E186F0BD020
:10317000183504E217512708010E185504E2270EEE
:10318000176F010E186FD950FC0FE96EFF0EDA2091
:10319000EA6EEE50ED1005E18A808B80176B186B9C
:1031A00012D0FC0EDBCF0BF0FD0EDBCF0CF00C349D
:1031B00004E20B500008000E0C5403E28A908B804E
:1031C00002D08A808B90800E181511E017C60BF084
:1031D00018C60CF00B6C0C1E000E0C220BC0E6FF88
:1031E0000CC0E6FFABEC29F0E552E55208D017C65B
:1031F000E6FF18C6E6FFABEC29F0E552E552E552D2
:10320000E552E552E5CFDAFFE7CFD9FF1200D9CF7B
:10321000E6FFDACFE6FFE1CFD9FFE2CFDAFFE652F1
:10322000E6522BC60BF02CC60CF0D8900C320B32A9
:10323000D8900C320B322DC60DF02EC60EF0D89061
:103240000E320D32D8900E320D3206010D500B5C4D
:10325000316F0E500C58326FFC0EDBCF06F0FD0EB6
:10326000DBCF07F03151065C0B6E325107580C6E04
:103270000BC0DEFF0CC0DDFFD9CFE9FFDACFEAFFDC
:10328000EE501927EE501A23D8801A5104E7D90EB0
:10329000195DFE0E1A5905E2D90E196FFE0E1A6F4E
:1032A0000BD01A3504E219512708010E1A5504E211
:1032B000270E196F010E1A6FD950FC0FE96EFF0E21
:1032C000DA20EA6EEE50ED1005E18A828A8A196BE7
:1032D0001A6B12D0FC0EDBCF0BF0FD0EDBCF0CF027
:1032E0000C3404E20B500008000E0C5403E28A92E6
:1032F0008A8A02D08A828A9A800E1A1511E019C62B
:103300000BF01AC60CF00B6C0C1E000E0C220BC03E
:10331000E6FF0CC0E6FF7CEC29F0E552E55208D050
:1033200019C6E6FF1AC6E6FF7CEC29F0E552E55225
:10333000E552E552E552E5CFDAFFE7CFD9FF1200BB
:10334000D9CFE6FFDACFE6FFE1CFD9FFE2CFDAFF50
:10335000FC0EDBCFE6FFFD0EDBCFE6FFBFDEE55266
:10336000E552FA0EDBCFE6FFFB0EDBCFE6FF4FDFC9
:10337000E552E552E552E5CFDAFFE7CFD9FF12007B
:10338000D9CFE6FFDACFE6FFE1CFD9FFE2CFDAFF10
:10339000F90EDBCFE9FFEA6AE9BEEA68D890E936C0
:1033A000EA36070EE926060EEA22FC0EDBCFEEFF18
:1033B000FD0EDBCFEDFFF90EDBCFE9FFEA6AE9BED8
:1033C000EA68D890E936EA360F0EE926060EEA22B8
:1033D000FA0EDBCFEEFFFB0EDBCFEDFFF90EDBCFFE
:1033E000E9FFEA6AE9BEEA681B0EE926060EEA2250
:1033F000F90EDBCFEFFFE552E5CFDAFFE7CFD9FFDC
:103400001200D9CFE6FFDACFE6FFE1CFD9FFE2CF56
:10341000DAFFD950FA0FE96EFF0EDA20EA6EEE50AD
:10342000ED1009E0D950FC0FE96EFF0EDA20EA6ECC
:10343000EE50ED1019E1F90EDBCFE6FFFA0EDBCF0F
:10344000E6FFFB0EDBCFE6FFFA0EDBCFE6FFFB0E5F
:10345000DBCFE6FF95DF0B6E050EE15C02E2E16A71
:10346000E552E16E0B50A2D0D950FC0FE96EFF0E71
:10347000DA20EA6E5A0EEE1801E1ED502CE1F90E59
:10348000DBCFE6FFFA0EDBCF0BF0FB0EDBCF0CF051
:103490000B6C0C1E000E0C220BC0E6FF0CC0E6FFEE
:1034A000FA0EDBCF0DF0FB0EDBCF0EF0D8900E3214
:1034B0000D320D6C0E1E000E0E220DC0E6FF0EC06A
:1034C000E6FF5EDF0F6E050EE15C02E2E16AE552A7
:1034D000E16E0F506BD0D950FC0FE96EFF0EDA2071
:1034E000EA6EB40EEE1801E1ED5029E1F90EDBCFE2
:1034F000E6FFFA0EDBCF0BF0FB0EDBCF0CF00B6C14
:103500000C1E000E0C220BC0E6FF0CC0E6FFFA0EEC
:10351000DBCF0DF0FB0EDBCF0EF00D6C0E1E000EA0
:103520000E220DC0E6FF0EC0E6FF2ADF0F6E050E6D
:10353000E15C02E2E16AE552E16E0F5037D0D9500A
:10354000FC0FE96EFF0EDA20EA6EA60EEE1802E11D
:10355000FF0EED182BE1F90EDBCFE6FFFA0EDBCF05
:103560000BF0FB0EDBCF0CF0D8900C320B320B6C57
:103570000C1E000E0C220BC0E6FF0CC0E6FFFA0E7C
:10358000DBCF0DF0FB0EDBCF0EF00D6C0E1E000E30
:103590000E220DC0E6FF0EC0E6FFF2DE0F6E050E36
:1035A000E15C02E2E16AE552E16E0F50E552E5CFDF
:1035B000DAFFE7CFD9FF1200D9CFE6FFDACFE6FF77
:1035C000E1CFD9FFE2CFDAFFE652E652E652E65209
:1035D000E652040EDB6A0601900ED8802555010ED6
:1035E00026551CE28AB20BD0D30EDE6EDD68EC0EDF
:1035F000F36E020EF3CFDBFF030EDB6809D01B0E68
:10360000DE6EDD6AF36E020EF3CFDBFF030EDB6AC4
:10361000010EF36E040EF3CFDBFF21D0900ED880A5
:103620002355010E24551BE28AB20BD0EC0EDE6E40
:10363000DD68D30EF36E020EF3CFDBFF030EDB6803
:1036400009D01B0EDE6EDD6AF36E020EF3CFDBFFD8
:10365000030EDB6A010EF36E040EF3CFDBFF040EE4
:10366000DB0416E1020EE66E000EE66EE66AE66E1A
:10367000E66A86DE0B6E050EE15C02E2E16AE55267
:10368000E16E0B50020EF36E040EF3CFDBFF7FD022
:10369000040EDB5002082CE18A50020B01E0010EFF
:1036A0000B6E8A50200B01E0010E0B5C20E18A506A
:1036B000010B0C6E8B50010B0C5C19E1030EF36EC9
:1036C000040EF3CFDBFF020EE66EDBCFE6FF030E48
:1036D000DBCFE6FFDECFE6FFDDCFE6FF51DE0B6E90
:1036E000050EE15C02E2E16AE552E16E0B504FD05B
:1036F000040EDB50030844E18A50020B01E0010E86
:103700000B6E8A50200B01E0010E0B5C38E08A50F2
:10371000010B0C6E8B50010B0C5C31E0C40EE66E9D
:10372000090EE66E78EC05F0E552E552020EE66E03
:10373000DECF0BF0DDCF0CF0000E0B6C0C1E0C225C
:103740000BC0E6FF0CC0E6FF020EDBCF0DF0030E50
:10375000DBCF0EF00D6C0E1E000E0E220DC0E6FF2C
:103760000EC0E6FF0DDE0F6E050EE15C02E2E16ABF
:10377000E552E16E0F50040EF36EF3CFDBFF07D07E
:10378000040EDB50040803E11D6B040EDB6AE80E37
:10379000E66E030EE66E78EC05F0E552E5521BD7B7
:1037A000050EE15C02E2E16AE552E16EE552E5CF29
:0837B000DAFFE7CFD9FF120098
:0837B800D9CFE6FFDACFE6FFEE
:1037C000E1CFD9FFE2CFDAFFE652E652E652E65207
:1037D000E652F80EDBCF0BF0F90EDBCF0CF0000E4B
:1037E0000BC0DFFF010E0CC0DBFF020EDB6A030E15
:1037F000DB6AD9CFE9FFDACFEAFFEECF0BF0EECFED
:103800000CF0EECF0DF0EFCF0EF00B50E66EFC0E8D
:10381000DBCFE9FFFD0EDBCFEAFFE552E750EF6EAD
:10382000FC0EDB2AFD0E01E3DB2AD9CFE9FFDACF5C
:10383000EAFF080EE76ED890030EEB32020EEB3271
:10384000010EEB32EF32E706F6E1D9CFE9FFDACF2E
:10385000EAFFEECF0BF0EECF0CF0EECF0DF0EFCF96
:103860000EF00B50E66EFC0EDBCFE9FFFD0EDBCF5A
:10387000EAFFE552E750EF6EFC0EDB2AFD0E01E396
:10388000DB2AFC0EDBCFE9FFFD0EDBCFEAFF440EA7
:10389000EF6EFC0EDB2AFD0E01E3DB2AFC0EDBCF14
:1038A000E9FFFD0EDBCFEAFF660EEF6EFC0EDB2AB2
:1038B000FD0E01E3DB2AFC0EDBCFE9FFFD0EDBCFC3
:1038C000EAFFCC0EEF6EFC0EDB2AFD0E01E3DB2AD5
:1038D000FC0EDBCFE9FFFD0EDBCFEAFFC00EEF6E83
:1038E000FC0EDB2AFD0E01E3DB2AFC0EDBCFE9FF39
:1038F000FD0EDBCFEAFF110EEF6EFC0EDB2AFD0E94
:1039000001E3DB2AFC0EDBCFE9FFFD0EDBCFEAFF94
:10391000220EEF6EFC0EDB2AFD0E01E3DB2AFC0E0D
:10392000DBCFE9FFFD0EDBCFEAFF330EEF6EFC0EBF
:10393000DB2AFD0E01E3DB2AFC0EDBCFE9FFFD0EE7
:10394000DBCFEAFF440EEF6EFC0EDB2AFD0E01E337
:10395000DB2AFC0EDBCFE9FFFD0EDBCFEAFF550EC5
:10396000EF6EFC0EDB2AFD0E01E3DB2AFC0EDBCF43
:10397000E9FFFD0EDBCFEAFF660EEF6EFC0EDB2AE1
:10398000FD0E01E3DB2AFC0EDBCFE9FFFD0EDBCFF2
:10399000EAFFEF6AFC0EDB2AFD0E01E3DB2AFC0ED8
:1039A000DBCFE9FFFD0EDBCFEAFF880EEF6EFC0EEA
:1039B000DB2AFD0E01E3DB2AFC0EDBCFE9FFFD0E67
:1039C000DBCFEAFF990EEF6EFC0EDB2AFD0E01E362
:1039D000DB2AFC0EDBCFE9FFFD0EDBCFEAFFAA0EF0
:1039E000EF6EFC0EDB2AFD0E01E3DB2AFC0EDBCFC3
:1039F000E9FFFD0EDBCFEAFFBB0EEF6EFC0EDB2A0C
:103A0000FD0E01E3DB2AFC0EDBCFE9FFFD0EDBCF71
:103A1000EAFFEF6AFC0EDB2AFD0E01E3DB2AFC0E57
:103A2000DBCFE9FFFD0EDBCFEAFFEF6AFC0EDB2AFE
:103A3000FD0E01E3DB2A040EDB6ADB50120815E3FE
:103A4000FC0EDBCFE9FFFD0EDBCFEAFF040EDBCF80
:103A5000EFFFFC0EDBCFE9FFDB2AFD0EDBCFEAFF39
:103A600001E3DB2A040EDB2AE8D7FC0EDBCFE9FFFB
:103A7000FD0EDBCFEAFF120EEF6EFC0EDB2AFD0E11
:103A800001E3DB2AFC0EDBCFE9FFFD0EDBCFEAFF13
:103A9000EF6AFC0EDB2AFD0E01E3DB2AFA0EDBCF18
:103AA0000BF0FB0EDBCF0CF0000E0BC0DFFF010EA6
:103AB0000CC0DBFF020EDB6A030EDB6AD9CFE9FF25
:103AC000DACFEAFFEECF0BF0EECF0CF0EECF0DF039
:103AD000EFCF0EF00B50E66EFC0EDBCFE9FFFD0ED4
:103AE000DBCFEAFFE552E750EF6EFC0EDB2AFD0E5E
:103AF00001E3DB2AD9CFE9FFDACFEAFF080EE76E50
:103B0000D890030EEB32020EEB32010EEB32EF32A5
:103B1000E706F6E1D9CFE9FFDACFEAFFEECF0BF007
:103B2000EECF0CF0EECF0DF0EFCF0EF00B50E66EB7
:103B3000FC0EDBCFE9FFFD0EDBCFEAFFE552E750DD
:103B4000EF6EFC0EDB2AFD0E01E3DB2AD9CFE9FF85
:103B5000DACFEAFF080EE76ED890030EEB32020EC2
:103B6000EB32010EEB32EF32E706F6E1D9CFE9FF97
:103B7000DACFEAFFEECF0BF0EECF0CF0EECF0DF088
:103B8000EFCF0EF00B50E66EFC0EDBCFE9FFFD0E23
:103B9000DBCFEAFFE552E750EF6EFC0EDB2AFD0EAD
:103BA00001E3DB2AFC0EDBCFE9FFFD0EDBCFEAFFF2
:103BB000010EEF6EFC0EDB2AFD0E01E3DB2AFC0E8C
:103BC000DBCF0BF0FD0EDBCF0CF00BC0F3FF0CC016
:103BD000F4FF050EE15C03E200D0E16AE552E16E1C
:103BE000E552E5CFDAFFE7CFD9FF120049DA42C646
:103BF000E9FF43C6EAFFEECFE1FFEECFE2FFE5CFFC
:103C0000E9FFE5CFE9FFFC6AE950FC5C08E205004A
:103C1000E550FF6EE550FE6EE550FD6EF5D7E5CF41
:103C2000EAFFE5CFE9FFE5CFEDFFE5CFEDFFE5CF1B
:103C3000EDFFE5CFEDFFE5CFEDFFE5CFEDFFE5CF04
:103C4000EDFFE5CFEDFFE5CFEDFFE5CFEDFFE5CFF4
:103C5000EDFFE5CFEDFFE5CFEDFFE5CFEDFFE5CFE4
:103C6000EDFFE5CFEDFFE5CFEDFFE5CFEDFFE5CFD4
:103C7000EDFFE5CFEFFFE5CFFAFFE5CFFBFFE5CFA7
:103C8000F3FFE5CFF4FFE5CFF6FFE5CFF7FFE5CF94
:103C9000F8FFE5CFF5FFE5CFEAFFE5CFE9FFE5CF98
:103CA000DAFFE5CFD9FFE5CFE0FFE5CFE8FFE8AEEB
:103CB00006D0E5CFD8FFE5CFE8FF100005D0E5CF6F
:103CC000D8FFE5CFE8FF1200010E00D0120012006D
:103CD000E8CFE4FFD8CFE4FFF2CFE8FF0009E8CF58
:103CE000E4FFF29EE0CFE4FFD9CFE4FFDACFE4FFB8
:103CF000E9CFE4FFEACFE4FFF5CFE4FFF8CFE4FF3C
:103D0000F7CFE4FFF6CFE4FFF4CFE4FFF3CFE4FF17
:103D1000FBCFE4FFFACFE4FFE96AEA6AEECFE4FF03
:103D2000EECFE4FFEECFE4FFEECFE4FFEECFE4FF13
:103D3000EECFE4FFEECFE4FFEECFE4FFEECFE4FF03
:103D4000EECFE4FFEECFE4FFEECFE4FFEECFE4FFF3
:103D5000EECFE4FFEECFE4FFEECFE4FFEECFE4FFE3
:103D6000EECFE4FFEECFE4FFEFCFE4FFE9CFE4FFD7
:103D7000EACFE4FFFCCFE9FFFC50000808E2FDCFEA
:103D8000E4FFFECFE4FFFFCFE4FF0600F5D7E9CF65
:103D9000E4FFE45242C6E9FF43C6EAFFE1CFEEFF8B
:103DA000E2CFEEFF87EC08F042C6E9FF43C6EAFF28
:103DB000EECFE1FFEECFE2FFE5CFE9FFE5CFE9FF90
:103DC000FC6AE950FC5C08E20500E550FF6EE55036
:103DD000FE6EE550FD6EF5D7E5CFEAFFE5CFE9FFD2
:103DE000E5CFEDFFE5CFEDFFE5CFEDFFE5CFEDFF53
:103DF000E5CFEDFFE5CFEDFFE5CFEDFFE5CFEDFF43
:103E0000E5CFEDFFE5CFEDFFE5CFEDFFE5CFEDFF32
:103E1000E5CFEDFFE5CFEDFFE5CFEDFFE5CFEDFF22
:103E2000E5CFEDFFE5CFEDFFE5CFEDFFE5CFEFFF10
:103E3000E5CFFAFFE5CFFBFFE5CFF3FFE5CFF4FFDA
:103E4000E5CFF6FFE5CFF7FFE5CFF8FFE5CFF5FFCC
:103E5000E5CFEAFFE5CFE9FFE5CFDAFFE5CFD9FF10
:103E6000E5CFE0FFE5CFE8FFE8AE06D0E5CFD8FF2D
:103E7000E5CFE8FF100005D0E5CFD8FFE5CFE8FF9C
:103E800012001200F2A402D051EF1FF09EAA02D03D
:103E900058EF23F09EA804D09DA802D0D2EF23F0C3
:103EA0001200E8CFE4FFD8CFE4FFF2CFE8FF8009AB
:103EB000E8CFE4FFF29EE0CFE4FFD9CFE4FFDACF12
:103EC000E4FFE9CFE4FFEACFE4FFF5CFE4FFF8CF6A
:103ED000E4FFF7CFE4FFF6CFE4FFF4CFE4FFF3CF46
:103EE000E4FFFBCFE4FFFACFE4FFE96AEA6AEECF32
:103EF000E4FFEECFE4FFEECFE4FFEECFE4FFEECF42
:103F0000E4FFEECFE4FFEECFE4FFEECFE4FFEECF31
:103F1000E4FFEECFE4FFEECFE4FFEECFE4FFEECF21
:103F2000E4FFEECFE4FFEECFE4FFEECFE4FFEECF11
:103F3000E4FFEECFE4FFEECFE4FFEFCFE4FFE9CF05
:103F4000E4FFEACFE4FFFCCFE9FFFC50000808E201
:103F5000FDCFE4FFFECFE4FFFFCFE4FF0600F5D77F
:103F6000E9CFE4FFE45242C6E9FF43C6EAFFE1CFEE
:103F7000EEFFE2CFEEFFF294DAEC29F0F3CF0BF094
:103F8000F4CF0CF0120E0B26FD0E0C220BC0E6FF38
:103F90000CC0E6FFF9EC29F0E552E5528AEC07F097
:103FA00087EC08F042C6E9FF43C6EAFFEECFE1FF27
:103FB000EECFE2FFE5CFE9FFE5CFE9FFFC6AE9508C
:103FC000FC5C08E20500E550FF6EE550FE6EE55032
:103FD000FD6EF5D7E5CFEAFFE5CFE9FFE5CFEDFFD1
:103FE000E5CFEDFFE5CFEDFFE5CFEDFFE5CFEDFF51
:103FF000E5CFEDFFE5CFEDFFE5CFEDFFE5CFEDFF41
:10400000E5CFEDFFE5CFEDFFE5CFEDFFE5CFEDFF30
:10401000E5CFEDFFE5CFEDFFE5CFEDFFE5CFEDFF20
:10402000E5CFEDFFE5CFEDFFE5CFEFFFE5CFFAFF01
:10403000E5CFFBFFE5CFF3FFE5CFF4FFE5CFF6FFDC
:10404000E5CFF7FFE5CFF8FFE5CFF5FFE5CFEAFFD6
:10405000E5CFE9FFE5CFDAFFE5CFD9FFE5CFE0FF18
:10406000E5CFE8FFE8AE06D0E5CFD8FFE5CFE8FF23
:10407000100005D0E5CFD8FFE5CFE8FF1200120011
:10408000930EE66E15EC2AF0E552120EE66EFD0E6A
:0E409000E66EF9EC29F0E552E552F28C1200D2
:02409E001ED82A
:1040A000000EE66EE66A020EE66E000EE66EE66A48
:1040B000800EE66EE66A4C0EE66E550EE66EC00E9B
:1040C000E66E430EE66E30EC04F00B6E0B0EE15C18
:1040D00002E2E16AE552E16E0B501200010EE66E5B
:1040E000180EE66ED2EC0CF0E552E552F3CF3EF638
:1040F000F4CF3FF6010EE66E180EE66ED2EC0CF031
:10410000E552E552F3CF40F6F4CF41F6F250E66EB9
:10411000F29E9288948C948E4D0EE66EE66AEC0EBA
:10412000E66E86EC28F0E552E552E55293968A96C3
:10413000E552E7BEF28E0601520E356F0601650E9E
:10414000366F0601610E376F0601640E386F060187
:10415000790E396F0601210E3A6F06010D0E3B6F85
:1041600006010A0E3C6F06013D6B1200D9CFE6FF37
:10417000DACFE6FFE1CFD9FFE2CFDAFFE66AF80E49
:10418000DBCFE6FFF90EDBCFE6FFFA0EDBCFE6FF73
:10419000FB0EDBCFE6FF3EC6E6FF3FC6E6FFC0EC08
:1041A0000FF00B6E070EE15C02E2E16AE552E16E90
:1041B0000B50000903E0010E03D002D0000E00D026
:1041C000E552E5CFDAFFE7CFD9FF1200D9CFE6FFFE
:1041D000DACFE6FFE1CFD9FFE2CFDAFFE66AF90EE8
:1041E000DBCFE6FFFA0EDBCFE6FFD950FB0FE66E22
:1041F000FF0EDA20E66E40C6E6FF41C6E6FFF6ECAB
:104200000DF00B6E070EE15C02E2E16AE552E16E31
:104210000B50010802E0000E03D09D88010E00D073
:10422000E552E5CFDAFFE7CFD9FF1200D9CFE6FF9D
:10423000DACFE6FFE1CFD9FFE2CFDAFFFD0EDB50A8
:10424000F00BE8380F0BE66EFB0EDBCFE9FFFC0E40
:10425000DBCFEAFFE552E750EF6EFB0EDBCFE9FF65
:10426000FC0EDBCFEAFFEFCF0BF0090EE76E0B1869
:10427000E8AE02D00B3403D0E750D8800B540BE2E9
:10428000370E0B6EFB0EDBCFE9FFFC0EDBCFEAFF38
:104290000B50EF260AD0300E0B6EFB0EDBCFE9FF82
:1042A000FC0EDBCFEAFF0B50EF26FD0EDB500F0BB1
:1042B000E66EF90EDBCFE9FFFA0EDBCFEAFFE5523F
:1042C000E750EF6EF90EDBCFE9FFFA0EDBCFEAFF26
:1042D000EFCF0BF0090EE76E0B18E8AE02D00B34EF
:1042E00003D0E750D8800B540BE2370E0B6EF90E5B
:1042F000DBCFE9FFFA0EDBCFEAFF0B50EF260AD047
:10430000300E0B6EF90EDBCFE9FFFA0EDBCFEAFFC2
:104310000B50EF26E552E5CFDAFFE7CFD9FF1200C9
:10432000D9CFE6FFDACFE6FFE1CFD9FFE2CFDAFF60
:10433000FC0EDBCFE9FFFD0EDBCFEAFFEF5010E014
:10434000FC0EDBCFE9FFFD0EDBCFEAFFEF50E66EA0
:104350000DD8E552FC0EDB2AFD0E01E3DB2AE8D77F
:10436000E552E5CFDAFFE7CFD9FF1200D9CFE6FF5C
:10437000DACFE6FFE1CFD9FFE2CFDAFF80A808D09D
:10438000020EE66EE66A78EC05F0E552E552F6D7E5
:10439000E668E668FD0EDBCFE6FF58C6E6FF59C6C5
:1043A000E6FF14DF0B6E050EE15C02E2E16AE55206
:1043B000E16E0B50E552E5CFDAFFE7CFD9FF1200EF
:1043C000D9CFE6FFDACFE6FFE1CFD9FFE2CFDAFFC0
:1043D000080EE12402E3E168E652E16E060EE66EA5
:1043E000E66A78EC05F0E552E5528A86E668E6680A
:1043F000D9CFE6FFDACFE6FF58C6E6FF59C6E6FF9B
:10440000B5DE0B6E060EE15C02E2E16AE552E16E9A
:104410000B50000901E13FD106015A5105E1DF04CB
:1044200002E1010E5A6F37D15A0508E1070EDF5C31
:1044300003E1020E5A6F01D05A6B2DD1020E5A5D64
:1044400001E0BDD0010EDFCFDBFFDB50460803E10A
:10445000030E5A6FB3D0010EDB50520803E1030E76
:104460005A6FACD0010EDB50670851E1D950070FED
:10447000E66E000EDA20E66ED950060FE66E000EEC
:10448000DA20E66E56EC18F0F350E66ECFDE0B6ED7
:10449000050EE15C02E2E16AE552E16E0B50060EA8
:1044A000DBCFE6FF63DFE552070EDBCFE6FF5EDF23
:1044B000E552D950070FE66E000EDA20E66ED950AD
:1044C000060FE66E000EDA20E66E5CEC18F0F35094
:1044D000E66EACDE0B6E050EE15C02E2E16AE552CF
:1044E000E16E0B50060EDBCFE6FF40DFE552070E14
:1044F000DBCFE6FF3BDFE5520D0EE66E37DFE55220
:104500000A0EE66E33DFE55206015A6B57D0010EF4
:10451000DB5068080AE1350EE66E060EE66E00DF37
:10452000E552E55206015A6B49D0010EDB506C088A
:1045300015E1030EE66EF80EE66EE66A5A0EE66EBA
:10454000E66A01EC1AF00B6E050EE15C02E2E16A2C
:10455000E552E16E0B5006015A6B30D0010EDB5074
:10456000720815E1030EE66EF80EE66EE66AA60E18
:10457000E66EE66801EC1AF00B6E050EE15C02E2F5
:10458000E16AE552E16E0B5006015A6B17D0010E3D
:10459000DB50530813E1030EE66E000EE66EE66A8A
:1045A000E66EE66A01EC1AF00B6E050EE15C02E2C3
:1045B000E16AE552E16E0B5006015A6B6CD0030EB6
:1045C0005A5D0EE1DFCF0BF00C6A0BBE0C68020ED9
:1045D0000BC0DBFF030E0CC0DBFF040E5A6F5BD079
:1045E000040E5A5D57E1DFCF0BF00C6A0BBE0C686E
:1045F000040E0BC0DBFF050E0CC0DBFF010EDB5011
:10460000460819E1030EE66E040EDBCFE6FF050E49
:10461000DBCFE6FF020EDBCFE6FF030EDBCFE6FFCC
:10462000C0EC19F00B6E050EE15C02E2E16AE552A6
:10463000E16E0B502CD0010EDB50520828E1030E26
:10464000E66E040EDBCF0BF0050EDBCF0CF00B6C2F
:104650000C1E000E0C220BC0E6FF0CC0E6FF020E83
:10466000DBCF0DF0030EDBCF0EF00D6C0E1E000E37
:104670000E220DC0E6FF0EC0E6FFC0EC19F00F6E73
:10468000050EE15C02E2E16AE552E16E0F500601BF
:104690005A6B01D05A6BAAD6080EE15C02E2E16ABD
:1046A000E552E16EE552E5CFDAFFE7CFD9FF120020
:1046B000D8CFE4FFE0CFE4FFE46EE9CFE4FFEACF38
:1046C000E4FFF6CFE4FFF7CFE4FFF5CFE4FFF3CF4D
:1046D000E4FFF4CFE4FFFACFE4FF00EE00F00B0EAE
:1046E000E80403E3EECFE4FFFBD700EE0BF0050E8A
:1046F000E80403E3EECFE4FFFBD7E652D9CFE6FFB1
:10470000DACFE6FFE1CFD9FFE2CFDAFFE652AE50D3
:10471000DF6EABA202D0AB98AB88E66AE66AD9CF6F
:10472000E6FFDACFE6FF3EC6E6FF3FC6E6FF3CEC1B
:104730000FF0116E060EE15C02E2E16AE552E16EF5
:104740001150000902E068EC1EF0E552E552E5CF99
:10475000DAFFE7CFD9FFE55200EE0FF0050EE804CF
:1047600003E3E5CFEDFFFBD700EE0AF00B0EE80404
:1047700003E3E5CFEDFFFBD7E5CFFAFFE5CFF4FF8D
:10478000E5CFF3FFE5CFF5FFE5CFF7FFE5CFF6FF88
:10479000E5CFEAFFE5CFE9FFE550E5CFE0FFE5CF64
:1047A000D8FF1000D8CFE4FFE0CFE4FFE46EE9CFFC
:1047B000E4FFEACFE4FFF6CFE4FFF7CFE4FFF5CF65
:1047C000E4FFF3CFE4FFF4CFE4FFFACFE4FF00EE21
:1047D00000F00B0EE80403E3EECFE4FFFBD700EE9E
:1047E0000BF0050EE80403E3EECFE4FFFBD7E6523F
:1047F000D9CFE6FFDACFE6FFE1CFD9FFE2CFDAFF8C
:10480000E652E652D950010FE66E000EDA20E66E4F
:10481000D9CFE6FFDACFE6FF40C6E6FF41C6E6FFA6
:104820001FEC11F0106E060EE15C02E2E16AE55247
:10483000E16E1050010803E1DF50AD6E01D09D988C
:10484000E552E552E552E5CFDAFFE7CFD9FFE55271
:1048500000EE0FF0050EE80403E3E5CFEDFFFBD714
:1048600000EE0AF00B0EE80403E3E5CFEDFFFBD703
:10487000E5CFFAFFE5CFF4FFE5CFF3FFE5CFF5FF96
:10488000E5CFF7FFE5CFF6FFE5CFEAFFE5CFE9FF9C
:0C489000E550E5CFE0FFE5CFD8FF1000B9
:04489C00D9CFE6FF8B
:1048A000DACFE6FFE1CFD9FFE2CFDAFFFC0EDBCFB4
:1048B000E9FFFD0EDBCFEAFF030EE926000EEA2238
:1048C000E9CF0BF0EACF0CF0FC0EDBCFE9FFFD0ED9
:1048D000DBCFEAFFEE520BC0EEFF0CC0EDFFFC0E8B
:1048E000DBCFE9FFFD0EDBCFEAFF030EE926000E6A
:1048F000EA22EE68ED68FC0EDBCFE9FFFD0EDBCFB0
:10490000EAFF030EE926000EEA22E9CF0BF0EACF18
:104910000CF0FC0EDBCFE9FFFD0EDBCFEAFF030E50
:10492000E926000EEA22020EE926000EEA220BC05A
:10493000EEFF0CC0EDFFFC0EDBCFE9FFFD0EDBCF81
:10494000EAFF030EE926000EEA22E9CF0BF0EACFD8
:104950000CF0FC0EDBCFE9FFFD0EDBCFEAFF030E10
:10496000E926000EEA22040EE926000EEA220BC018
:10497000EEFF0CC0EDFFFC0EDBCFE9FFFD0EDBCF41
:10498000EAFFEF6AE552E5CFDAFFE7CFD9FF120081
:10499000D9CFE6FFDACFE6FFE1CFD9FFE2CFDAFFEA
:1049A000FC0EDBCFE9FFFD0EDBCFEAFF080EEB6A62
:1049B000090EEB6AE552E5CFDAFFE7CFD9FF120027
:1049C000D9CFE6FFDACFE6FFE1CFD9FFE2CFDAFFBA
:1049D000E652E652FC0EDBCFE9FFFD0EDBCFEAFF2D
:1049E000EE52EECFDEFFEDCFDDFFDECFE9FFDDCF14
:1049F000EAFF020EE926000EEA22EECF0BF0EFCF1F
:104A00000CF0FA0EDBCFE9FFFB0EDBCFEAFF020E64
:104A1000E926000EEA220BC0EEFF0CC0EDFFFC0EF3
:104A2000DBCFE9FFFD0EDBCFEAFFEE52EECF0BF05E
:104A3000EFCF0CF0FA0EDBCFE9FFFB0EDBCFEAFF86
:104A4000040EE926000EEA220BC0EEFF0CC0EDFFBB
:104A5000DECFE9FFDDCFEAFF020EE926000EEA22F3
:104A6000EE50EFCFEAFFE96E040EE926000EEA22CF
:104A7000FA0EDBCFEEFFFB0EDBCFEDFFDECFE9FF63
:104A8000DDCFEAFF020EE926000EEA22FA0EDBCFA6
:104A9000EEFFFB0EDBCFEDFFFC0EDBCFE9FFFD0EE3
:104AA000DBCFEAFFEE52FA0EDBCFEEFFFB0EDBCFE1
:104AB000EDFFFA0EDBCFE9FFFB0EDBCFEAFF080EBE
:104AC000E926000EEA22FC0EDBCFEEFFFD0EDBCF67
:104AD000EDFFFC0EDBCFE9FFFD0EDBCFEAFFEF2A97
:104AE000E552E552E552E5CFDAFFE7CFD9FF1200F4
:104AF000D9CFE6FFDACFE6FFE1CFD9FFE2CFDAFF89
:104B0000E652E652E652E652FA0EDBCFE9FFFB0E22
:104B1000DBCFEAFF020EEECFDBFF030EEDCFDBFFB4
:104B2000D950020FE96E000EDA20EA6EFF0EEE1881
:104B300002E1FF0EED1813E1FC0EDBCFE9FFFD0EE5
:104B4000DBCFEAFF030EE926000EEA22040EE92677
:104B5000000EEA22EECFDEFFEDCFDDFF3AD0FC0EF5
:104B6000DBCFE9FFFD0EDBCFEAFF030EE926000EE7
:104B7000EA22E9CF0BF0EACF0CF00BC0DEFF0CC04D
:104B8000DDFFDECFE9FFDDCFEAFF020EE926000EF2
:104B9000EA22EE50EFCFEAFFE96EEECF0BF0EFCF57
:104BA0000CF0020EDBCF0DF0030EDBCF0EF00B503E
:104BB0000D5C0C500E580DE3DECFE9FFDDCFEAFFB0
:104BC000020EE926000EEA22EECFDEFFEDCFDDFF7A
:104BD000D8D7DECFE9FFDDCFEAFF020EE926000ECF
:104BE000EA22EECF0BF0EFCF0CF0FA0EDBCFE9FFAD
:104BF000FB0EDBCFEAFF020EE926000EEA220BC015
:104C0000EEFF0CC0EDFFFA0EDBCFE9FFFB0EDBCFB2
:104C1000EAFF020EE926000EEA22EE50EFCFEAFF8D
:104C2000E96E040EE926000EEA22FA0EDBCFEEFF53
:104C3000FB0EDBCFEDFFFA0EDBCFE9FFFB0EDBCF88
:104C4000EAFF040EE926000EEA22DECFEEFFDDCFFA
:104C5000EDFFDECFE9FFDDCFEAFF020EE926000E11
:104C6000EA22FA0EDBCFEEFFFB0EDBCFEDFFFA0EF2
:104C7000DBCFE9FFFB0EDBCFEAFF080EE926000ED3
:104C8000EA22FC0EDBCFEEFFFD0EDBCFEDFFFC0ECC
:104C9000DBCFE9FFFD0EDBCFEAFFEF2A040EE15C7C
:104CA00002E2E16AE552E16EE552E5CFDAFFE7CFD5
:104CB000D9FF1200D9CFE6FFDACFE6FFE1CFD9FF67
:104CC000E2CFDAFFE652E652FC0EDBCFE9FFFD0E43
:104CD000DBCFEAFF040EE926000EEA22EECF0BF04E
:104CE000EFCF0CF0FC0EDBCFE9FFFD0EDBCFEAFFD0
:104CF000020EE926000EEA22EE50EFCFEAFFE96E3F
:104D0000040EE926000EEA220BC0EEFF0CC0EDFFF8
:104D1000FC0EDBCFE9FFFD0EDBCFEAFF020EE9263A
:104D2000000EEA22EECF0BF0EFCF0CF0FC0EDBCF43
:104D3000E9FFFD0EDBCFEAFF040EE926000EEA22B2
:104D4000EE50EFCFEAFFE96E020EE926000EEA22EE
:104D50000BC0EEFF0CC0EDFFFC0EDBCFE9FFFD0E3C
:104D6000DBCFEAFF080EE926000EEA22EECFDEFFD7
:104D7000EDCFDDFFDECFE9FFDDCFEAFFEE52EECF74
:104D80000BF0EFCF0CF0FC0EDB500B1803E1FD0E27
:104D9000DB500C1817E1FC0EDBCFE9FFFD0EDBCF7B
:104DA000EAFF040EE926000EEA22EECF0BF0EFCF69
:104DB0000CF0DECFE9FFDDCFEAFFEE520BC0EEFFD5
:104DC0000CC0EDFFFC0EDBCFE9FFFD0EDBCFEAFFF1
:104DD000080EEB6A090EEB6ADECFE9FFDDCFEAFFD2
:104DE000EF06E552E552E552E5CFDAFFE7CFD9FF0E
:024DF0001200AF
:0E4DF200D9CFE6FFDACFE6FFFA0EE3CFD9FF06
:104E0000FB0EE3CFDAFFFC0EE3CFE9FFFD0EE3CFAD
:104E1000EAFFE9CFF3FFEACFF4FFF80EE35003E136
:104E2000F90EE35008E0F80EE30602E2F90EE3069D
:104E3000DECFEEFFF2D7FF0EE3CFDAFFE552FF0E33
:104E4000E3CFD9FFE5521200FE0EE3CFE9FFFF0EDC
:104E5000E3CFEAFFE9CFF3FFEACFF4FFFB0EE35025
:104E600003E1FC0EE35009E0FB0EE30602E2FC0E58
:104E7000E306FD0EE350EE6EF1D71200D9CFE6FF48
:104E8000DACFE6FFFA0EE3CFD9FFFB0EE3CFDAFF6E
:104E9000FC0EE3CFE9FFFD0EE3CFEAFFE9CFF3FF1E
:104EA000EACFF4FFF80EE35003E1F90EE3500BE014
:104EB000F80EE30602E2F90EE306DECFEFFFEE6640
:104EC000F1D7DD52EFD7FF0EE3CFDAFFE552FF0E49
:084ED000E3CFD9FFE552120007
:084ED800D9CFE6FFDACFE6FFB7
:104EE000E1CFD9FFE2CFDAFFE652E652DE6ADD6AB1
:104EF00051EC06F0FC0EDB5006015B2500010B6E49
:104F0000FD0EDB5006015C2100010C6E000E0B5CF7
:104F1000050E0C5826E2FC0EDB5006015B25000155
:104F20000D6EFD0EDB5006015C2100010E6E0601C8
:104F30000D505B5D0E505C5914E2C40E5B250B6E88
:104F4000000E5C210C6E0BC0DEFF0CC0DDFFFC0E02
:104F5000DBCF06F0FD0EDBCF07F006505B270750D6
:104F60005C235AEC06F0DECF0BF0DDCF0CF00BC06B
:104F7000F3FF0CC0F4FF00D0E552E552E552E5CF57
:104F8000DAFFE7CFD9FF1200D9CFE6FFDACFE6FF8D
:104F9000E1CFD9FFE2CFDAFFE552E5CFDAFFE7CF85
:0C4FA000D9FF120006015B6B5C6B120075
:044FAC00D2EC27F02C
:104FB00007EC29F0E1EC14F04FEC20F0000EE66E67
:104FC000E66A010EE66E000EE66EE66A800EE66E9A
:104FD000E66A460EE66E550EE66E960EE66E510ECB
:104FE000E66E30EC04F00B6E0B0EE15C02E2E16A5F
:104FF000E552E16E0B50000EE66EE66A010EE66EBB
:10500000000EE66EE66A800EE66EE66A400EE66E1A
:10501000550EE66EF40EE66E2C0EE66E30EC04F0E5
:105020000B6E0B0EE15C02E2E16AE552E16E0B50A1
:10503000000EE66EE66A030EE66E000EE66EE66AA7
:10504000E66A010EE66E400EE66E550EE66EB80E8E
:10505000E66E350EE66E30EC04F00B6E0B0EE15C86
:0E50600002E2E16AE552E16E0B5014EF06F039
:02506E003A0EF8
:10507000F66E080EF76E000EF86E06010900F55088
:10508000536F0900F550546F03E1536701D03DD0D1
:105090000900F5504E6F0900F5504F6F0900F550AB
:1050A000506F09000900F550E96E0900F550EA6EED
:1050B000090009000900F550516F0900F550526FC1
:1050C00009000900F6CF55F6F7CF56F6F8CF57F698
:1050D0004EC6F6FF4FC6F7FF50C6F8FF0601515304
:1050E00002E1525307E00900F550EE6E5107F8E275
:1050F0005207F9D755C6F6FF56C6F7FF57C6F8FF51
:0C51000006015307000E545BBFD71200DD
:04510C00D9CFE6FF12
:10511000DACFE6FFE1CFD9FFE2CFDAFFAC6AAB6AC4
:10512000FD0EDBB0AC88DBA202D0AC8CAB8CDBB468
:10513000AC8EDBA602D0AB8801D0AB8ADBB8AC84E6
:105140009E98DBBAAB86DBAC02D09D8A01D09D9ADB
:105150009E9ADBAE02D09D8801D09D98FB0EDB505D
:10516000AF6EFB0EFC0EDBCF0CF00CC00BF00C6A2C
:105170000B50B06EAC8AAB8E949C948EAC50100BDE
:1051800004E0AC50800B01E1948CE552E5CFDAFFEE
:06519000E7CFD9FF120079
:0A519600D9CFE6FFDACFE6FFE1CF44
:1051A000D9FFE2CFDAFFE652E652E80EDE6E030EDA
:1051B000DD6E8A7CF40EE66E010EE66E78EC05F08C
:1051C000E552E5528A7CF40EE66E010EE66E78EC4E
:1051D00005F0E552E5528A7CF40EE66E010EE66EAD
:1051E00078EC05F0E552E5528A7CDECFE6FFDDCFB4
:1051F000E6FF78EC05F0E552E5528A7CF6D7E552F9
:10520000E552E552E5CFDAFFE7CFD9FF1200939CD4
:045210008A9C120062
:0C521400D9CFE6FFDACFE6FFE1CFD9FFEB
:10522000E2CFDAFFE652E652E652E652F8CF02F05B
:10523000F6CF03F00C0EBA6E050EF66EF76A300E5E
:10524000F86E0800F550010B03E0010EDB6802D098
:10525000010EDB6A010EDB5002E0949201D09396BE
:10526000CA94FD0EDB50CB6ECA8402C0F8FF03C0A7
:10527000F6FF040EE15C02E2E16AE552E16EE552FE
:0A528000E5CFDAFFE7CFD9FF1200F7
:06528A00D9CFE6FFDACFE8
:10529000E6FFE1CFD9FFE2CFDAFFC26AC06AFC0EB7
:1052A000DB407F0B3C0BC26EFC0EDB38F00B300B8F
:1052B0000B6EFB0EDB500F0B0B10C16EFD0EDB50A7
:1052C000040DF350380B0C6EFD0EDB380F0B070B83
:1052D0000B6EFD0EDB50800B0B100C10C06EFC0E25
:1052E000DBAE03D09E9C9D8CF28CC280E552E5CF54
:0852F000DAFFE7CFD9FF12003D
:0852F800D9CFE6FFDACFE6FF93
:10530000E1CFD9FFE2CFDAFFE652E652FC0EDBCF67
:105310000BF0FD0EDBCF0CF0060ED8900B360C36E2
:10532000E804FBE10BC0DEFF0CC0DDFF010EDB502B
:10533000BB6EDF50E840E8403F0B300B0B6ECF0EEA
:10534000BA140B10BA6EE552E552E552E5CFDAFF1A
:06535000E7CFD9FF1200B7
:0A535600D9CFE6FFDACFE6FFE1CF82
:10536000D9FFE2CFDAFFE652E652FC0EDBCF0BF0BC
:10537000FD0EDBCF0CF0060ED8900B360C36E80491
:10538000FBE10BC0DEFF0CC0DDFF010EDB50BE6E8B
:10539000DF50E840E8403F0B300B0B6ECF0EBD14E2
:1053A0000B10BD6EE552E552E552E5CFDAFFE7CFCF
:0453B000D9FF12000F
:0C53B400D9CFE6FFDACFE6FFE1CFD9FF4A
:1053C000E2CFDAFFE652E652D650DF6E010ED7CFBB
:1053D000DBFFDECF0BF0DDCF0CF00BC0F3FF0CC01A
:1053E000F4FFE552E552E552E5CFDAFFE7CFD9FF0A
:0253F0001200A9
:0E53F200D9CFE6FFDACFE6FFE1CFD9FFE2CF59
:10540000DAFFE652E652FC0EDBCFDEFFDBCFDDFF3C
:10541000010EDB50D76EDF50D66EE552E552E552F5
:0A542000E5CFDAFFE7CFD9FF120055
:06542A00D9CFE6FFDACF46
:10543000E6FFE1CFD9FFE2CFDAFFFD0EDB507F0BB5
:10544000D56ED76AD66AF294FD0EDBAE02D0F28A30
:1054500001D0F29AD58EE552E5CFDAFFE7CFD9FF3A
:02546000120038
:0E546200D9CFE6FFDACFE6FFE1CFD9FFE2CFE8
:10547000DAFFFD0EDB50FB0BCA6ECC6A9E92FD0E6E
:10548000DBAE02D09D8201D09D92CA84E552E5CF69
:08549000DAFFE7CFD9FF12009B
:08549800D9CFE6FFDACFE6FFF1
:1054A000E1CFD9FFE2CFDAFF0C0EBD129494CA947B
:1054B000FD0EDB50CB6ECA84E552E5CFDAFFE7CFB5
:0854C000D9FF120094941200C0
:0854C800D9CFE6FFDACFE6FFC1
:1054D000E1CFD9FFE2CFDAFFC30EC2140B6EFD0E8F
:1054E000DB407F0B3C0B0B10C26EE552E5CFDAFFC1
:0654F000E7CFD9FF120016
:0A54F60010EE60F020EE60F0F86A9E
:105500000A9CFF0EE96E0E0EEA6E010E006E000E92
:10551000ED6E0052FDE1D6EF27F037EC28F01200D7
:10552000000EF36E00EE00F0040E01D81200EA60E7
:1055300002D0EE6AFCD7F350E9601200EE6AFCD7A5
:105540004D6F746F7200436865636B00434F4D4D40
:065550000049444C450037
:0A555600C4500E6E0D6AC3500D1014
:08556000F36E0EC0F4FF12000F
:08556800C250020B01E0010E2C
:02557000120027
:04557200C2821200DF
:0A557600000000000000000000002B
:02558000000029
:02558200000027
:0355840000000024
:020000040030CA
:01000000E41B
:010001003EC0
:01000200C03D
:01000300EE0E
:01000500FBFF
:010006009A5F
:01000800FFF8
:01000900FFF7
:01000A00FFF6
:01000B00FFF5
:01000C00FFF4
:01000D00FFF3
:00000001FF
